{
  "contractName": "ABroker",
  "abi": [
    {
      "constant": true,
      "inputs": [
        {
          "name": "channelId",
          "type": "bytes32"
        }
      ],
      "name": "isPresent",
      "outputs": [
        {
          "name": "",
          "type": "bool"
        }
      ],
      "payable": false,
      "stateMutability": "view",
      "type": "function"
    },
    {
      "constant": true,
      "inputs": [
        {
          "name": "channelId",
          "type": "bytes32"
        },
        {
          "name": "payment",
          "type": "uint256"
        }
      ],
      "name": "signatureDigest",
      "outputs": [
        {
          "name": "",
          "type": "bytes32"
        }
      ],
      "payable": false,
      "stateMutability": "view",
      "type": "function"
    },
    {
      "constant": true,
      "inputs": [
        {
          "name": "channelId",
          "type": "bytes32"
        },
        {
          "name": "origin",
          "type": "address"
        }
      ],
      "name": "canDeposit",
      "outputs": [
        {
          "name": "",
          "type": "bool"
        }
      ],
      "payable": false,
      "stateMutability": "view",
      "type": "function"
    },
    {
      "constant": false,
      "inputs": [
        {
          "name": "receiver",
          "type": "address"
        },
        {
          "name": "settlingPeriod",
          "type": "uint32"
        }
      ],
      "name": "open",
      "outputs": [],
      "payable": true,
      "stateMutability": "payable",
      "type": "function"
    },
    {
      "constant": true,
      "inputs": [
        {
          "name": "channelId",
          "type": "bytes32"
        },
        {
          "name": "payment",
          "type": "uint256"
        }
      ],
      "name": "paymentDigest",
      "outputs": [
        {
          "name": "",
          "type": "bytes32"
        }
      ],
      "payable": false,
      "stateMutability": "view",
      "type": "function"
    },
    {
      "constant": true,
      "inputs": [
        {
          "name": "channelId",
          "type": "bytes32"
        },
        {
          "name": "origin",
          "type": "address"
        }
      ],
      "name": "canStartSettling",
      "outputs": [
        {
          "name": "",
          "type": "bool"
        }
      ],
      "payable": false,
      "stateMutability": "view",
      "type": "function"
    },
    {
      "constant": true,
      "inputs": [
        {
          "name": "channelId",
          "type": "bytes32"
        }
      ],
      "name": "isSettling",
      "outputs": [
        {
          "name": "",
          "type": "bool"
        }
      ],
      "payable": false,
      "stateMutability": "view",
      "type": "function"
    },
    {
      "constant": false,
      "inputs": [
        {
          "name": "channelId",
          "type": "bytes32"
        },
        {
          "name": "payment",
          "type": "uint256"
        },
        {
          "name": "signature",
          "type": "bytes"
        }
      ],
      "name": "claim",
      "outputs": [],
      "payable": false,
      "stateMutability": "nonpayable",
      "type": "function"
    },
    {
      "constant": true,
      "inputs": [
        {
          "name": "",
          "type": "bytes32"
        }
      ],
      "name": "channels",
      "outputs": [
        {
          "name": "sender",
          "type": "address"
        },
        {
          "name": "receiver",
          "type": "address"
        },
        {
          "name": "value",
          "type": "uint256"
        },
        {
          "name": "settlingPeriod",
          "type": "uint32"
        },
        {
          "name": "settlingUntil",
          "type": "uint256"
        }
      ],
      "payable": false,
      "stateMutability": "view",
      "type": "function"
    },
    {
      "constant": true,
      "inputs": [
        {
          "name": "channelId",
          "type": "bytes32"
        }
      ],
      "name": "isOpen",
      "outputs": [
        {
          "name": "",
          "type": "bool"
        }
      ],
      "payable": false,
      "stateMutability": "view",
      "type": "function"
    },
    {
      "constant": false,
      "inputs": [],
      "name": "destroy",
      "outputs": [],
      "payable": false,
      "stateMutability": "nonpayable",
      "type": "function"
    },
    {
      "constant": true,
      "inputs": [],
      "name": "owner",
      "outputs": [
        {
          "name": "",
          "type": "address"
        }
      ],
      "payable": false,
      "stateMutability": "view",
      "type": "function"
    },
    {
      "constant": false,
      "inputs": [
        {
          "name": "channelId",
          "type": "bytes32"
        }
      ],
      "name": "settle",
      "outputs": [],
      "payable": false,
      "stateMutability": "nonpayable",
      "type": "function"
    },
    {
      "constant": true,
      "inputs": [],
      "name": "chainId",
      "outputs": [
        {
          "name": "",
          "type": "uint32"
        }
      ],
      "payable": false,
      "stateMutability": "view",
      "type": "function"
    },
    {
      "constant": false,
      "inputs": [
        {
          "name": "channelId",
          "type": "bytes32"
        }
      ],
      "name": "deposit",
      "outputs": [],
      "payable": true,
      "stateMutability": "payable",
      "type": "function"
    },
    {
      "constant": true,
      "inputs": [
        {
          "name": "channelId",
          "type": "bytes32"
        },
        {
          "name": "origin",
          "type": "address"
        }
      ],
      "name": "canSettle",
      "outputs": [
        {
          "name": "",
          "type": "bool"
        }
      ],
      "payable": false,
      "stateMutability": "view",
      "type": "function"
    },
    {
      "constant": false,
      "inputs": [
        {
          "name": "channelId",
          "type": "bytes32"
        }
      ],
      "name": "startSettling",
      "outputs": [],
      "payable": false,
      "stateMutability": "nonpayable",
      "type": "function"
    },
    {
      "constant": true,
      "inputs": [
        {
          "name": "channelId",
          "type": "bytes32"
        },
        {
          "name": "payment",
          "type": "uint256"
        },
        {
          "name": "origin",
          "type": "address"
        },
        {
          "name": "signature",
          "type": "bytes"
        }
      ],
      "name": "canClaim",
      "outputs": [
        {
          "name": "",
          "type": "bool"
        }
      ],
      "payable": false,
      "stateMutability": "view",
      "type": "function"
    },
    {
      "constant": false,
      "inputs": [
        {
          "name": "newOwner",
          "type": "address"
        }
      ],
      "name": "transferOwnership",
      "outputs": [],
      "payable": false,
      "stateMutability": "nonpayable",
      "type": "function"
    },
    {
      "constant": false,
      "inputs": [
        {
          "name": "_recipient",
          "type": "address"
        }
      ],
      "name": "destroyAndSend",
      "outputs": [],
      "payable": false,
      "stateMutability": "nonpayable",
      "type": "function"
    },
    {
      "inputs": [
        {
          "name": "_chainId",
          "type": "uint32"
        }
      ],
      "payable": false,
      "stateMutability": "nonpayable",
      "type": "constructor"
    },
    {
      "anonymous": false,
      "inputs": [
        {
          "indexed": true,
          "name": "channelId",
          "type": "bytes32"
        }
      ],
      "name": "DidOpen",
      "type": "event"
    },
    {
      "anonymous": false,
      "inputs": [
        {
          "indexed": true,
          "name": "channelId",
          "type": "bytes32"
        }
      ],
      "name": "DidDeposit",
      "type": "event"
    },
    {
      "anonymous": false,
      "inputs": [
        {
          "indexed": true,
          "name": "channelId",
          "type": "bytes32"
        }
      ],
      "name": "DidClaim",
      "type": "event"
    },
    {
      "anonymous": false,
      "inputs": [
        {
          "indexed": true,
          "name": "channelId",
          "type": "bytes32"
        }
      ],
      "name": "DidStartSettling",
      "type": "event"
    },
    {
      "anonymous": false,
      "inputs": [
        {
          "indexed": true,
          "name": "channelId",
          "type": "bytes32"
        }
      ],
      "name": "DidSettle",
      "type": "event"
    },
    {
      "anonymous": false,
      "inputs": [
        {
          "indexed": true,
          "name": "previousOwner",
          "type": "address"
        },
        {
          "indexed": true,
          "name": "newOwner",
          "type": "address"
        }
      ],
      "name": "OwnershipTransferred",
      "type": "event"
    }
  ],
  "bytecode": "0x6060604052341561000f57600080fd5b6040516020806117a383398101604052808051906020019091905050336000806101000a81548173ffffffffffffffffffffffffffffffffffffffff021916908373ffffffffffffffffffffffffffffffffffffffff16021790555080600260006101000a81548163ffffffff021916908363ffffffff1602179055506000600381905550506116ff806100a46000396000f300606060405260043610610111576000357c0100000000000000000000000000000000000000000000000000000000900463ffffffff168062f31e7614610116578063276bef09146101555780632f8f0c92146101a157806336ad73bb146101ff57806341b6fcf71461023c5780634722361c146102885780636683f9ae146102e65780637964ea87146103255780637a7ebd7b146103985780637c35be7a1461045357806383197ef0146104925780638da5cb5b146104a7578063987757dd146104fc5780639a8a059214610523578063b214faa514610558578063e036354e14610574578063e62eea47146105d2578063ec8be5b9146105f9578063f2fde38b146106a3578063f5074f41146106dc575b600080fd5b341561012157600080fd5b61013b600480803560001916906020019091905050610715565b604051808215151515815260200191505060405180910390f35b341561016057600080fd5b61018360048080356000191690602001909190803590602001909190505061077c565b60405180826000191660001916815260200191505060405180910390f35b34156101ac57600080fd5b6101e560048080356000191690602001909190803573ffffffffffffffffffffffffffffffffffffffff16906020019091905050610843565b604051808215151515815260200191505060405180910390f35b61023a600480803573ffffffffffffffffffffffffffffffffffffffff1690602001909190803563ffffffff169060200190919050506108d6565b005b341561024757600080fd5b61026a600480803560001916906020019091908035906020019091905050610a7a565b60405180826000191660001916815260200191505060405180910390f35b341561029357600080fd5b6102cc60048080356000191690602001909190803573ffffffffffffffffffffffffffffffffffffffff16906020019091905050610b32565b604051808215151515815260200191505060405180910390f35b34156102f157600080fd5b61030b600480803560001916906020019091905050610bc5565b604051808215151515815260200191505060405180910390f35b341561033057600080fd5b61039660048080356000191690602001909190803590602001909190803590602001908201803590602001908080601f01602080910402602001604051908101604052809392919081815260200183838082843782019150505050505091905050610bf6565b005b34156103a357600080fd5b6103bd600480803560001916906020019091905050610e4e565b604051808673ffffffffffffffffffffffffffffffffffffffff1673ffffffffffffffffffffffffffffffffffffffff1681526020018573ffffffffffffffffffffffffffffffffffffffff1673ffffffffffffffffffffffffffffffffffffffff1681526020018481526020018363ffffffff1663ffffffff1681526020018281526020019550505050505060405180910390f35b341561045e57600080fd5b610478600480803560001916906020019091905050610ed4565b604051808215151515815260200191505060405180910390f35b341561049d57600080fd5b6104a5610ef8565b005b34156104b257600080fd5b6104ba610f8d565b604051808273ffffffffffffffffffffffffffffffffffffffff1673ffffffffffffffffffffffffffffffffffffffff16815260200191505060405180910390f35b341561050757600080fd5b610521600480803560001916906020019091905050610fb2565b005b341561052e57600080fd5b610536611116565b604051808263ffffffff1663ffffffff16815260200191505060405180910390f35b61057260048080356000191690602001909190505061112c565b005b341561057f57600080fd5b6105b860048080356000191690602001909190803573ffffffffffffffffffffffffffffffffffffffff169060200190919050506111a1565b604051808215151515815260200191505060405180910390f35b34156105dd57600080fd5b6105f760048080356000191690602001909190505061125a565b005b341561060457600080fd5b61068960048080356000191690602001909190803590602001909190803573ffffffffffffffffffffffffffffffffffffffff1690602001909190803590602001908201803590602001908080601f016020809104026020016040519081016040528093929190818152602001838380828437820191505050505050919050506112e8565b604051808215151515815260200191505060405180910390f35b34156106ae57600080fd5b6106da600480803573ffffffffffffffffffffffffffffffffffffffff169060200190919050506114dd565b005b34156106e757600080fd5b610713600480803573ffffffffffffffffffffffffffffffffffffffff16906020019091905050611632565b005b600080600160008460001916600019168152602001908152602001600020905060008160000160009054906101000a900473ffffffffffffffffffffffffffffffffffffffff1673ffffffffffffffffffffffffffffffffffffffff161415915050919050565b60006107866116bf565b6040805190810160405280601c81526020017f19457468657265756d205369676e6564204d6573736167653a0a3332000000008152509050806107c98585610a7a565b6040518083805190602001908083835b6020831015156107fe57805182526020820191506020810190506020830392506107d9565b6001836020036101000a038019825116818451168082178552505050505050905001826000191660001916815260200192505050604051809103902091505092915050565b600080600060016000866000191660001916815260200190815260200160002091508373ffffffffffffffffffffffffffffffffffffffff168260000160009054906101000a900473ffffffffffffffffffffffffffffffffffffffff1673ffffffffffffffffffffffffffffffffffffffff161490506108c385610ed4565b80156108cc5750805b9250505092915050565b600060036000815480929190600101919050554301604051808281526020019150506040518091039020905060a0604051908101604052803373ffffffffffffffffffffffffffffffffffffffff1681526020018473ffffffffffffffffffffffffffffffffffffffff1681526020013481526020018363ffffffff168152602001600081525060016000836000191660001916815260200190815260200160002060008201518160000160006101000a81548173ffffffffffffffffffffffffffffffffffffffff021916908373ffffffffffffffffffffffffffffffffffffffff16021790555060208201518160010160006101000a81548173ffffffffffffffffffffffffffffffffffffffff021916908373ffffffffffffffffffffffffffffffffffffffff1602179055506040820151816002015560608201518160030160006101000a81548163ffffffff021916908363ffffffff1602179055506080820151816004015590505080600019167f3acaf6c81b0902ff892efc6d8b28af3c95b986755aeddf843449789733f92c5360405160405180910390a2505050565b600030600260009054906101000a900463ffffffff168484604051808573ffffffffffffffffffffffffffffffffffffffff1673ffffffffffffffffffffffffffffffffffffffff166c010000000000000000000000000281526014018463ffffffff1663ffffffff167c010000000000000000000000000000000000000000000000000000000002815260040183600019166000191681526020018281526020019450505050506040518091039020905092915050565b600080600060016000866000191660001916815260200190815260200160002091508373ffffffffffffffffffffffffffffffffffffffff168260000160009054906101000a900473ffffffffffffffffffffffffffffffffffffffff1673ffffffffffffffffffffffffffffffffffffffff16149050610bb285610ed4565b8015610bbb5750805b9250505092915050565b6000806001600084600019166000191681526020019081526020016000209050600081600401541415915050919050565b6000610c04848433856112e8565b1515610c0f57600080fd5b60016000856000191660001916815260200190815260200160002090508060020154831115610ca5578060010160009054906101000a900473ffffffffffffffffffffffffffffffffffffffff1673ffffffffffffffffffffffffffffffffffffffff166108fc82600201549081150290604051600060405180830381858888f193505050501515610ca057600080fd5b610d84565b8060010160009054906101000a900473ffffffffffffffffffffffffffffffffffffffff1673ffffffffffffffffffffffffffffffffffffffff166108fc849081150290604051600060405180830381858888f193505050501515610d0957600080fd5b8060000160009054906101000a900473ffffffffffffffffffffffffffffffffffffffff1673ffffffffffffffffffffffffffffffffffffffff166108fc610d5e8584600201546116a690919063ffffffff16565b9081150290604051600060405180830381858888f193505050501515610d8357600080fd5b5b600160008560001916600019168152602001908152602001600020600080820160006101000a81549073ffffffffffffffffffffffffffffffffffffffff02191690556001820160006101000a81549073ffffffffffffffffffffffffffffffffffffffff021916905560028201600090556003820160006101000a81549063ffffffff02191690556004820160009055505083600019167f3de43c9e481138453c3cfea2781e18a609abb6448556669b257edc7de710fd6460405160405180910390a250505050565b60016020528060005260406000206000915090508060000160009054906101000a900473ffffffffffffffffffffffffffffffffffffffff16908060010160009054906101000a900473ffffffffffffffffffffffffffffffffffffffff16908060020154908060030160009054906101000a900463ffffffff16908060040154905085565b6000610edf82610715565b8015610ef15750610eef82610bc5565b155b9050919050565b6000809054906101000a900473ffffffffffffffffffffffffffffffffffffffff1673ffffffffffffffffffffffffffffffffffffffff163373ffffffffffffffffffffffffffffffffffffffff16141515610f5357600080fd5b6000809054906101000a900473ffffffffffffffffffffffffffffffffffffffff1673ffffffffffffffffffffffffffffffffffffffff16ff5b6000809054906101000a900473ffffffffffffffffffffffffffffffffffffffff1681565b6000610fbe82336111a1565b1515610fc957600080fd5b60016000836000191660001916815260200190815260200160002090508060000160009054906101000a900473ffffffffffffffffffffffffffffffffffffffff1673ffffffffffffffffffffffffffffffffffffffff166108fc82600201549081150290604051600060405180830381858888f19350505050151561104e57600080fd5b600160008360001916600019168152602001908152602001600020600080820160006101000a81549073ffffffffffffffffffffffffffffffffffffffff02191690556001820160006101000a81549073ffffffffffffffffffffffffffffffffffffffff021916905560028201600090556003820160006101000a81549063ffffffff02191690556004820160009055505081600019167f74fb75c3de2cff5e8a78cf9b1f49a5bea60126b42ed45bb4b2b25b7da03e4d1b60405160405180910390a25050565b600260009054906101000a900463ffffffff1681565b6111368133610843565b151561114157600080fd5b346001600083600019166000191681526020019081526020016000206002016000828254019250508190555080600019167f10c816afbc7739effeca84484944281b5f1d2db052625db0de2e516e896517e760405160405180910390a250565b60008060008060016000876000191660001916815260200190815260200160002092508473ffffffffffffffffffffffffffffffffffffffff168360000160009054906101000a900473ffffffffffffffffffffffffffffffffffffffff1673ffffffffffffffffffffffffffffffffffffffff1614915082600401544310158015611232575061123186610bc5565b5b9050818015611246575061124586610bc5565b5b801561124f5750805b935050505092915050565b60006112668233610b32565b151561127157600080fd5b60016000836000191660001916815260200190815260200160002090508060030160009054906101000a900463ffffffff1663ffffffff164301816004018190555081600019167fd6461a3a92fd600fe23f236b2e25c2fd0c197a66b2f990989f0b210d578f461760405160405180910390a25050565b6000806000806000600160008a6000191660001916815260200190815260200160002093508360010160009054906101000a900473ffffffffffffffffffffffffffffffffffffffff1673ffffffffffffffffffffffffffffffffffffffff168773ffffffffffffffffffffffffffffffffffffffff1614925061136c898961077c565b915073__ECRecovery____________________________6319045a2583886000604051602001526040518363ffffffff167c010000000000000000000000000000000000000000000000000000000002815260040180836000191660001916815260200180602001828103825283818151815260200191508051906020019080838360005b8381101561140c5780820151818401526020810190506113f1565b50505050905090810190601f1680156114395780820380516001836020036101000a031916815260200191505b50935050505060206040518083038186803b151561145657600080fd5b6102c65a03f4151561146757600080fd5b5050506040518051905073ffffffffffffffffffffffffffffffffffffffff168460000160009054906101000a900473ffffffffffffffffffffffffffffffffffffffff1673ffffffffffffffffffffffffffffffffffffffff161490508280156114cf5750805b945050505050949350505050565b6000809054906101000a900473ffffffffffffffffffffffffffffffffffffffff1673ffffffffffffffffffffffffffffffffffffffff163373ffffffffffffffffffffffffffffffffffffffff1614151561153857600080fd5b600073ffffffffffffffffffffffffffffffffffffffff168173ffffffffffffffffffffffffffffffffffffffff161415151561157457600080fd5b8073ffffffffffffffffffffffffffffffffffffffff166000809054906101000a900473ffffffffffffffffffffffffffffffffffffffff1673ffffffffffffffffffffffffffffffffffffffff167f8be0079c531659141344cd1fd0a4f28419497f9722a3daafe3b4186f6b6457e060405160405180910390a3806000806101000a81548173ffffffffffffffffffffffffffffffffffffffff021916908373ffffffffffffffffffffffffffffffffffffffff16021790555050565b6000809054906101000a900473ffffffffffffffffffffffffffffffffffffffff1673ffffffffffffffffffffffffffffffffffffffff163373ffffffffffffffffffffffffffffffffffffffff1614151561168d57600080fd5b8073ffffffffffffffffffffffffffffffffffffffff16ff5b60008282111515156116b457fe5b818303905092915050565b6020604051908101604052806000815250905600a165627a7a72305820e6aacd2e8cbe57b58807dc71fa176c685de88c6bc70d05c93e1e6ffde058fec00029",
  "source": "pragma solidity ^0.4.18;\n\nimport \"zeppelin-solidity/contracts/lifecycle/Destructible.sol\";\nimport \"zeppelin-solidity/contracts/math/SafeMath.sol\";\nimport \"zeppelin-solidity/contracts/ECRecovery.sol\";\n\n\ncontract ABroker is Destructible {\n    using SafeMath for uint256;\n\n    struct PaymentChannel {\n        address sender;\n        address receiver;\n        uint256 value;\n\n        uint32 settlingPeriod;\n        uint256 settlingUntil;\n    }\n\n    mapping (bytes32 => PaymentChannel) public channels;\n\n    uint32 public chainId;\n    uint256 id;\n\n    event DidOpen(bytes32 indexed channelId);\n    event DidDeposit(bytes32 indexed channelId);\n    event DidClaim(bytes32 indexed channelId);\n    event DidStartSettling(bytes32 indexed channelId);\n    event DidSettle(bytes32 indexed channelId);\n\n    function ABroker(uint32 _chainId) public {\n        chainId = _chainId;\n        id = 0;\n    }\n\n    function open(address receiver, uint32 settlingPeriod) public payable {\n        var channelId = keccak256(block.number + id++);\n        channels[channelId] = PaymentChannel(\n            msg.sender,\n            receiver,\n            msg.value,\n            settlingPeriod,\n            0\n        );\n\n        DidOpen(channelId);\n    }\n\n    function canDeposit(bytes32 channelId, address origin) public constant returns(bool) {\n        var channel = channels[channelId];\n        bool isSender = channel.sender == origin;\n        return isOpen(channelId) && isSender;\n    }\n\n    function deposit(bytes32 channelId) public payable {\n        require(canDeposit(channelId, msg.sender));\n\n        channels[channelId].value += msg.value;\n\n        DidDeposit(channelId);\n    }\n\n    function canStartSettling(bytes32 channelId, address origin) public constant returns(bool) {\n        var channel = channels[channelId];\n        bool isSender = channel.sender == origin;\n        return isOpen(channelId) && isSender;\n    }\n\n    function startSettling(bytes32 channelId) public {\n        require(canStartSettling(channelId, msg.sender));\n\n        var channel = channels[channelId];\n        channel.settlingUntil = block.number + channel.settlingPeriod;\n\n        DidStartSettling(channelId);\n    }\n\n    function canSettle(bytes32 channelId, address origin) public constant returns(bool) {\n        var channel = channels[channelId];\n        bool isSender = channel.sender == origin;\n        bool isWaitingOver = block.number >= channel.settlingUntil && isSettling(channelId);\n        return isSender && isSettling(channelId) && isWaitingOver;\n    }\n\n    function settle(bytes32 channelId) public {\n        require(canSettle(channelId, msg.sender));\n        var channel = channels[channelId];\n        require(channel.sender.send(channel.value));\n\n        delete channels[channelId];\n        DidSettle(channelId);\n    }\n\n    function canClaim(bytes32 channelId, uint256 payment, address origin, bytes signature) public constant returns(bool) {\n        var channel = channels[channelId];\n        bool isReceiver = origin == channel.receiver;\n        var hash = signatureDigest(channelId, payment);\n        bool isSigned = channel.sender == ECRecovery.recover(hash, signature);\n\n        return isReceiver && isSigned;\n    }\n\n    function claim(bytes32 channelId, uint256 payment, bytes signature) public {\n        require(canClaim(channelId, payment, msg.sender, signature));\n\n        var channel = channels[channelId];\n\n        if (payment > channel.value) {\n            require(channel.receiver.send(channel.value));\n        } else {\n            require(channel.receiver.send(payment));\n            require(channel.sender.send(channel.value.sub(payment)));\n        }\n\n        delete channels[channelId];\n\n        DidClaim(channelId);\n    }\n\n    function isPresent(bytes32 channelId) public constant returns(bool) {\n        var channel = channels[channelId];\n        return channel.sender != 0;\n    }\n\n    function isSettling(bytes32 channelId) public constant returns(bool) {\n        var channel = channels[channelId];\n        return channel.settlingUntil != 0;\n    }\n\n    function isOpen(bytes32 channelId) public constant returns(bool) {\n        return isPresent(channelId) && !isSettling(channelId);\n    }\n\n    function paymentDigest(bytes32 channelId, uint256 payment) public constant returns(bytes32) {\n        return keccak256(address(this), chainId, channelId, payment);\n    }\n\n    function signatureDigest(bytes32 channelId, uint256 payment) public constant returns(bytes32) {\n        bytes memory prefix = \"\\x19Ethereum Signed Message:\\n32\";\n        return keccak256(prefix, paymentDigest(channelId, payment));\n    }\n}\n",
  "sourcePath": "/Users/ukstv/Documents/Pro/Machinomy/machinomy-contracts/contracts/ABroker.sol",
  "compiler": {
    "name": "solc",
    "version": "0.4.18+commit.9cf6e910.Emscripten.clang"
  },
  "schemaVersion": "1.0.1",
  "updatedAt": "2017-12-26T21:23:50.968Z"
}