{
  "contractName": "BBroker",
  "abi": [
    {
      "constant": true,
      "inputs": [
        {
          "name": "channelId",
          "type": "bytes32"
        }
      ],
      "name": "isPresent",
      "outputs": [
        {
          "name": "",
          "type": "bool"
        }
      ],
      "payable": false,
      "stateMutability": "view",
      "type": "function"
    },
    {
      "constant": false,
      "inputs": [
        {
          "name": "channelId",
          "type": "bytes32"
        },
        {
          "name": "proof",
          "type": "bytes"
        },
        {
          "name": "preimage",
          "type": "bytes32"
        },
        {
          "name": "amount",
          "type": "int256"
        }
      ],
      "name": "withdraw",
      "outputs": [],
      "payable": false,
      "stateMutability": "nonpayable",
      "type": "function"
    },
    {
      "constant": true,
      "inputs": [
        {
          "name": "channelId",
          "type": "bytes32"
        },
        {
          "name": "merkleRoot",
          "type": "bytes32"
        }
      ],
      "name": "paymentDigest",
      "outputs": [
        {
          "name": "",
          "type": "bytes32"
        }
      ],
      "payable": false,
      "stateMutability": "view",
      "type": "function"
    },
    {
      "constant": false,
      "inputs": [
        {
          "name": "receiver",
          "type": "address"
        },
        {
          "name": "settlingPeriod",
          "type": "uint32"
        }
      ],
      "name": "open",
      "outputs": [],
      "payable": true,
      "stateMutability": "payable",
      "type": "function"
    },
    {
      "constant": true,
      "inputs": [
        {
          "name": "channelId",
          "type": "bytes32"
        },
        {
          "name": "merkleRoot",
          "type": "bytes32"
        }
      ],
      "name": "signatureDigest",
      "outputs": [
        {
          "name": "",
          "type": "bytes32"
        }
      ],
      "payable": false,
      "stateMutability": "view",
      "type": "function"
    },
    {
      "constant": true,
      "inputs": [
        {
          "name": "channelId",
          "type": "bytes32"
        },
        {
          "name": "preimage",
          "type": "bytes32"
        },
        {
          "name": "amount",
          "type": "int256"
        }
      ],
      "name": "toHashlock",
      "outputs": [
        {
          "name": "",
          "type": "bytes32"
        }
      ],
      "payable": false,
      "stateMutability": "view",
      "type": "function"
    },
    {
      "constant": true,
      "inputs": [
        {
          "name": "channelId",
          "type": "bytes32"
        },
        {
          "name": "origin",
          "type": "address"
        }
      ],
      "name": "canStartSettling",
      "outputs": [
        {
          "name": "",
          "type": "bool"
        }
      ],
      "payable": false,
      "stateMutability": "view",
      "type": "function"
    },
    {
      "constant": true,
      "inputs": [
        {
          "name": "channelId",
          "type": "bytes32"
        }
      ],
      "name": "isSettling",
      "outputs": [
        {
          "name": "",
          "type": "bool"
        }
      ],
      "payable": false,
      "stateMutability": "view",
      "type": "function"
    },
    {
      "constant": true,
      "inputs": [
        {
          "name": "",
          "type": "bytes32"
        }
      ],
      "name": "channels",
      "outputs": [
        {
          "name": "sender",
          "type": "address"
        },
        {
          "name": "receiver",
          "type": "address"
        },
        {
          "name": "value",
          "type": "uint256"
        },
        {
          "name": "merkleRoot",
          "type": "bytes32"
        },
        {
          "name": "settlingPeriod",
          "type": "uint32"
        },
        {
          "name": "settlingUntil",
          "type": "uint256"
        },
        {
          "name": "nonce",
          "type": "uint32"
        }
      ],
      "payable": false,
      "stateMutability": "view",
      "type": "function"
    },
    {
      "constant": true,
      "inputs": [
        {
          "name": "channelId",
          "type": "bytes32"
        }
      ],
      "name": "isOpen",
      "outputs": [
        {
          "name": "",
          "type": "bool"
        }
      ],
      "payable": false,
      "stateMutability": "view",
      "type": "function"
    },
    {
      "constant": false,
      "inputs": [],
      "name": "destroy",
      "outputs": [],
      "payable": false,
      "stateMutability": "nonpayable",
      "type": "function"
    },
    {
      "constant": true,
      "inputs": [],
      "name": "owner",
      "outputs": [
        {
          "name": "",
          "type": "address"
        }
      ],
      "payable": false,
      "stateMutability": "view",
      "type": "function"
    },
    {
      "constant": true,
      "inputs": [],
      "name": "chainId",
      "outputs": [
        {
          "name": "",
          "type": "uint32"
        }
      ],
      "payable": false,
      "stateMutability": "view",
      "type": "function"
    },
    {
      "constant": false,
      "inputs": [
        {
          "name": "channelId",
          "type": "bytes32"
        },
        {
          "name": "merkleRoot",
          "type": "bytes32"
        },
        {
          "name": "senderSig",
          "type": "bytes"
        },
        {
          "name": "receiverSig",
          "type": "bytes"
        }
      ],
      "name": "startSettling",
      "outputs": [],
      "payable": false,
      "stateMutability": "nonpayable",
      "type": "function"
    },
    {
      "constant": true,
      "inputs": [
        {
          "name": "proof",
          "type": "bytes"
        },
        {
          "name": "merkleRoot",
          "type": "bytes32"
        },
        {
          "name": "hashlock",
          "type": "bytes32"
        }
      ],
      "name": "checkProof",
      "outputs": [
        {
          "name": "",
          "type": "bool"
        }
      ],
      "payable": false,
      "stateMutability": "pure",
      "type": "function"
    },
    {
      "constant": false,
      "inputs": [
        {
          "name": "newOwner",
          "type": "address"
        }
      ],
      "name": "transferOwnership",
      "outputs": [],
      "payable": false,
      "stateMutability": "nonpayable",
      "type": "function"
    },
    {
      "constant": false,
      "inputs": [
        {
          "name": "_recipient",
          "type": "address"
        }
      ],
      "name": "destroyAndSend",
      "outputs": [],
      "payable": false,
      "stateMutability": "nonpayable",
      "type": "function"
    },
    {
      "constant": true,
      "inputs": [
        {
          "name": "channelId",
          "type": "bytes32"
        },
        {
          "name": "merkleRoot",
          "type": "bytes32"
        },
        {
          "name": "senderSig",
          "type": "bytes"
        },
        {
          "name": "receiverSig",
          "type": "bytes"
        }
      ],
      "name": "isSignedPayment",
      "outputs": [
        {
          "name": "",
          "type": "bool"
        }
      ],
      "payable": false,
      "stateMutability": "view",
      "type": "function"
    },
    {
      "inputs": [
        {
          "name": "_chainId",
          "type": "uint32"
        }
      ],
      "payable": false,
      "stateMutability": "nonpayable",
      "type": "constructor"
    },
    {
      "anonymous": false,
      "inputs": [
        {
          "indexed": true,
          "name": "channelId",
          "type": "bytes32"
        }
      ],
      "name": "DidOpen",
      "type": "event"
    },
    {
      "anonymous": false,
      "inputs": [
        {
          "indexed": true,
          "name": "channelId",
          "type": "bytes32"
        }
      ],
      "name": "DidStartSettling",
      "type": "event"
    },
    {
      "anonymous": false,
      "inputs": [
        {
          "indexed": true,
          "name": "channelId",
          "type": "bytes32"
        },
        {
          "indexed": false,
          "name": "amount",
          "type": "int256"
        }
      ],
      "name": "DidWithdraw",
      "type": "event"
    },
    {
      "anonymous": false,
      "inputs": [
        {
          "indexed": true,
          "name": "channelId",
          "type": "bytes32"
        }
      ],
      "name": "DidClose",
      "type": "event"
    },
    {
      "anonymous": false,
      "inputs": [
        {
          "indexed": true,
          "name": "previousOwner",
          "type": "address"
        },
        {
          "indexed": true,
          "name": "newOwner",
          "type": "address"
        }
      ],
      "name": "OwnershipTransferred",
      "type": "event"
    }
  ],
  "bytecode": "0x6060604052341561000f57600080fd5b60405160208061176783398101604052808051906020019091905050336000806101000a81548173ffffffffffffffffffffffffffffffffffffffff021916908373ffffffffffffffffffffffffffffffffffffffff16021790555080600260006101000a81548163ffffffff021916908363ffffffff1602179055506000600381905550506116c3806100a46000396000f3006060604052600436106100fb576000357c0100000000000000000000000000000000000000000000000000000000900463ffffffff168062f31e761461010057806309a777af1461013f578063285a4e66146101bf57806336ad73bb1461020f5780633a48cacd1461024c5780633f3bd9ef1461029c5780634722361c146102f55780636683f9ae146103535780637a7ebd7b146103925780637c35be7a1461046f57806383197ef0146104ae5780638da5cb5b146104c35780639a8a059214610518578063a406c6701461054d578063bf0af1ba14610607578063f2fde38b14610696578063f5074f41146106cf578063f7f3c6e514610708575b600080fd5b341561010b57600080fd5b6101256004808035600019169060200190919050506107da565b604051808215151515815260200191505060405180910390f35b341561014a57600080fd5b6101bd60048080356000191690602001909190803590602001908201803590602001908080601f0160208091040260200160405190810160405280939291908181526020018383808284378201915050505050509190803560001916906020019091908035906020019091905050610841565b005b34156101ca57600080fd5b6101f160048080356000191690602001909190803560001916906020019091905050610a44565b60405180826000191660001916815260200191505060405180910390f35b61024a600480803573ffffffffffffffffffffffffffffffffffffffff1690602001909190803563ffffffff16906020019091905050610b04565b005b341561025757600080fd5b61027e60048080356000191690602001909190803560001916906020019091905050610d06565b60405180826000191660001916815260200191505060405180910390f35b34156102a757600080fd5b6102d760048080356000191690602001909190803560001916906020019091908035906020019091905050610dcd565b60405180826000191660001916815260200191505060405180910390f35b341561030057600080fd5b61033960048080356000191690602001909190803573ffffffffffffffffffffffffffffffffffffffff16906020019091905050610e53565b604051808215151515815260200191505060405180910390f35b341561035e57600080fd5b610378600480803560001916906020019091905050610f40565b604051808215151515815260200191505060405180910390f35b341561039d57600080fd5b6103b7600480803560001916906020019091905050610f71565b604051808873ffffffffffffffffffffffffffffffffffffffff1673ffffffffffffffffffffffffffffffffffffffff1681526020018773ffffffffffffffffffffffffffffffffffffffff1673ffffffffffffffffffffffffffffffffffffffff16815260200186815260200185600019166000191681526020018463ffffffff1663ffffffff1681526020018381526020018263ffffffff1663ffffffff16815260200197505050505050505060405180910390f35b341561047a57600080fd5b610494600480803560001916906020019091905050611013565b604051808215151515815260200191505060405180910390f35b34156104b957600080fd5b6104c1611037565b005b34156104ce57600080fd5b6104d66110cc565b604051808273ffffffffffffffffffffffffffffffffffffffff1673ffffffffffffffffffffffffffffffffffffffff16815260200191505060405180910390f35b341561052357600080fd5b61052b6110f1565b604051808263ffffffff1663ffffffff16815260200191505060405180910390f35b341561055857600080fd5b6106056004808035600019169060200190919080356000191690602001909190803590602001908201803590602001908080601f0160208091040260200160405190810160405280939291908181526020018383808284378201915050505050509190803590602001908201803590602001908080601f01602080910402602001604051908101604052809392919081815260200183838082843782019150505050505091905050611107565b005b341561061257600080fd5b61067c600480803590602001908201803590602001908080601f01602080910402602001604051908101604052809392919081815260200183838082843782019150505050505091908035600019169060200190919080356000191690602001909190505061110d565b604051808215151515815260200191505060405180910390f35b34156106a157600080fd5b6106cd600480803573ffffffffffffffffffffffffffffffffffffffff169060200190919050506111c3565b005b34156106da57600080fd5b610706600480803573ffffffffffffffffffffffffffffffffffffffff16906020019091905050611318565b005b341561071357600080fd5b6107c06004808035600019169060200190919080356000191690602001909190803590602001908201803590602001908080601f0160208091040260200160405190810160405280939291908181526020018383808284378201915050505050509190803590602001908201803590602001908080601f0160208091040260200160405190810160405280939291908181526020018383808284378201915050505050509190505061138c565b604051808215151515815260200191505060405180910390f35b600080600160008460001916600019168152602001908152602001600020905060008160000160009054906101000a900473ffffffffffffffffffffffffffffffffffffffff1673ffffffffffffffffffffffffffffffffffffffff161415915050919050565b6000806000600160008860001916600019168152602001908152602001600020925061086e878686610dcd565b915061087f8684600301548461110d565b151561088a57600080fd5b60008412151561090e578390508083600201600082825403925050819055508260010160009054906101000a900473ffffffffffffffffffffffffffffffffffffffff1673ffffffffffffffffffffffffffffffffffffffff166108fc829081150290604051600060405180830381858888f19350505050151561090d57600080fd5b5b86600019167f9b97616c860c1e16c461695f07750b3ad7cdadc607e0d047ca72cf08a85aea05856040518082815260200191505060405180910390a2600083600201541415610a3b57600160008860001916600019168152602001908152602001600020600080820160006101000a81549073ffffffffffffffffffffffffffffffffffffffff02191690556001820160006101000a81549073ffffffffffffffffffffffffffffffffffffffff0219169055600282016000905560038201600090556004820160006101000a81549063ffffffff021916905560058201600090556006820160006101000a81549063ffffffff0219169055505086600019167f6c1b199e41928e006b6cd4e44a0f2ddf85df1e69545eebb0ddbcb3a970ca853c60405160405180910390a25b50505050505050565b600030600260009054906101000a900463ffffffff168484604051808573ffffffffffffffffffffffffffffffffffffffff1673ffffffffffffffffffffffffffffffffffffffff166c010000000000000000000000000281526014018463ffffffff1663ffffffff167c0100000000000000000000000000000000000000000000000000000000028152600401836000191660001916815260200182600019166000191681526020019450505050506040518091039020905092915050565b600080600080600360008154809291906001019190505543016040518082815260200191505060405180910390209350600060010292506000915060e0604051908101604052803373ffffffffffffffffffffffffffffffffffffffff1681526020018773ffffffffffffffffffffffffffffffffffffffff168152602001348152602001846000191681526020018663ffffffff1681526020018381526020018263ffffffff1681525060016000866000191660001916815260200190815260200160002060008201518160000160006101000a81548173ffffffffffffffffffffffffffffffffffffffff021916908373ffffffffffffffffffffffffffffffffffffffff16021790555060208201518160010160006101000a81548173ffffffffffffffffffffffffffffffffffffffff021916908373ffffffffffffffffffffffffffffffffffffffff160217905550604082015181600201556060820151816003019060001916905560808201518160040160006101000a81548163ffffffff021916908363ffffffff16021790555060a0820151816005015560c08201518160060160006101000a81548163ffffffff021916908363ffffffff16021790555090505083600019167f3acaf6c81b0902ff892efc6d8b28af3c95b986755aeddf843449789733f92c5360405160405180910390a2505050505050565b6000610d10611683565b6040805190810160405280601c81526020017f19457468657265756d205369676e6564204d6573736167653a0a333200000000815250905080610d538585610a44565b6040518083805190602001908083835b602083101515610d885780518252602082019150602081019050602083039250610d63565b6001836020036101000a038019825116818451168082178552505050505050905001826000191660001916815260200192505050604051809103902091505092915050565b6000600260009054906101000a900463ffffffff16848484604051808563ffffffff1663ffffffff167c010000000000000000000000000000000000000000000000000000000002815260040184600019166000191681526020018360001916600019168152602001828152602001945050505050604051809103902090509392505050565b600080600060016000866000191660001916815260200190815260200160002091508373ffffffffffffffffffffffffffffffffffffffff168260000160009054906101000a900473ffffffffffffffffffffffffffffffffffffffff1673ffffffffffffffffffffffffffffffffffffffff161480610f2257508373ffffffffffffffffffffffffffffffffffffffff168260010160009054906101000a900473ffffffffffffffffffffffffffffffffffffffff1673ffffffffffffffffffffffffffffffffffffffff16145b9050610f2d85611013565b8015610f365750805b9250505092915050565b6000806001600084600019166000191681526020019081526020016000209050600081600501541415915050919050565b60016020528060005260406000206000915090508060000160009054906101000a900473ffffffffffffffffffffffffffffffffffffffff16908060010160009054906101000a900473ffffffffffffffffffffffffffffffffffffffff16908060020154908060030154908060040160009054906101000a900463ffffffff16908060050154908060060160009054906101000a900463ffffffff16905087565b600061101e826107da565b8015611030575061102e82610f40565b155b9050919050565b6000809054906101000a900473ffffffffffffffffffffffffffffffffffffffff1673ffffffffffffffffffffffffffffffffffffffff163373ffffffffffffffffffffffffffffffffffffffff1614151561109257600080fd5b6000809054906101000a900473ffffffffffffffffffffffffffffffffffffffff1673ffffffffffffffffffffffffffffffffffffffff16ff5b6000809054906101000a900473ffffffffffffffffffffffffffffffffffffffff1681565b600260009054906101000a900463ffffffff1681565b50505050565b600080600080849150602090505b8651811115156111ac57808701519250826000191682600019161015611170578183604051808360001916600019168152602001826000191660001916815260200192505050604051809103902091506111a1565b8282604051808360001916600019168152602001826000191660001916815260200192505050604051809103902091505b60208101905061111b565b856000191682600019161493505050509392505050565b6000809054906101000a900473ffffffffffffffffffffffffffffffffffffffff1673ffffffffffffffffffffffffffffffffffffffff163373ffffffffffffffffffffffffffffffffffffffff1614151561121e57600080fd5b600073ffffffffffffffffffffffffffffffffffffffff168173ffffffffffffffffffffffffffffffffffffffff161415151561125a57600080fd5b8073ffffffffffffffffffffffffffffffffffffffff166000809054906101000a900473ffffffffffffffffffffffffffffffffffffffff1673ffffffffffffffffffffffffffffffffffffffff167f8be0079c531659141344cd1fd0a4f28419497f9722a3daafe3b4186f6b6457e060405160405180910390a3806000806101000a81548173ffffffffffffffffffffffffffffffffffffffff021916908373ffffffffffffffffffffffffffffffffffffffff16021790555050565b6000809054906101000a900473ffffffffffffffffffffffffffffffffffffffff1673ffffffffffffffffffffffffffffffffffffffff163373ffffffffffffffffffffffffffffffffffffffff1614151561137357600080fd5b8073ffffffffffffffffffffffffffffffffffffffff16ff5b6000806000806000600160008a6000191660001916815260200190815260200160002093506113bb8989610d06565b925073__ECRecovery____________________________6319045a2584896000604051602001526040518363ffffffff167c010000000000000000000000000000000000000000000000000000000002815260040180836000191660001916815260200180602001828103825283818151815260200191508051906020019080838360005b8381101561145b578082015181840152602081019050611440565b50505050905090810190601f1680156114885780820380516001836020036101000a031916815260200191505b50935050505060206040518083038186803b15156114a557600080fd5b6102c65a03f415156114b657600080fd5b5050506040518051905073ffffffffffffffffffffffffffffffffffffffff168460000160009054906101000a900473ffffffffffffffffffffffffffffffffffffffff1673ffffffffffffffffffffffffffffffffffffffff1614915073__ECRecovery____________________________6319045a2584886000604051602001526040518363ffffffff167c010000000000000000000000000000000000000000000000000000000002815260040180836000191660001916815260200180602001828103825283818151815260200191508051906020019080838360005b838110156115b2578082015181840152602081019050611597565b50505050905090810190601f1680156115df5780820380516001836020036101000a031916815260200191505b50935050505060206040518083038186803b15156115fc57600080fd5b6102c65a03f4151561160d57600080fd5b5050506040518051905073ffffffffffffffffffffffffffffffffffffffff168460010160009054906101000a900473ffffffffffffffffffffffffffffffffffffffff1673ffffffffffffffffffffffffffffffffffffffff161490508180156116755750805b945050505050949350505050565b6020604051908101604052806000815250905600a165627a7a7230582045550efd1ee04401c25eacd50f69d693da8b2fa7ae149c903ff354950dd288c70029",
  "source": "pragma solidity ^0.4.18;\n\nimport \"zeppelin-solidity/contracts/lifecycle/Destructible.sol\";\nimport \"zeppelin-solidity/contracts/math/SafeMath.sol\";\nimport \"zeppelin-solidity/contracts/ECRecovery.sol\";\n\n\ncontract BBroker is Destructible {\n    using SafeMath for uint256;\n\n    struct PaymentChannel {\n        address sender;\n        address receiver;\n        uint256 value;\n\n        bytes32 merkleRoot;\n\n        uint32 settlingPeriod;\n        uint256 settlingUntil;\n\n        uint32 nonce;\n    }\n\n    mapping (bytes32 => PaymentChannel) public channels;\n\n    uint32 public chainId;\n    uint256 id;\n\n    event DidOpen(bytes32 indexed channelId);\n    event DidStartSettling(bytes32 indexed channelId);\n    event DidWithdraw(bytes32 indexed channelId, int256 amount);\n    event DidClose(bytes32 indexed channelId);\n\n    function BBroker(uint32 _chainId) public {\n        chainId = _chainId;\n        id = 0;\n    }\n\n    function open(address receiver, uint32 settlingPeriod) public payable {\n        bytes32 channelId = keccak256(block.number + id++);\n        bytes32 merkleRoot = 0;\n        uint256 settlingUntil = 0;\n        uint32 nonce;\n        channels[channelId] = PaymentChannel(\n            msg.sender,\n            receiver,\n            msg.value,\n            merkleRoot,\n            settlingPeriod,\n            settlingUntil,\n            nonce\n        );\n        DidOpen(channelId);\n    }\n\n    function canStartSettling(bytes32 channelId, address origin) public view returns(bool) {\n        var channel = channels[channelId];\n        bool isParty = (channel.sender == origin) || (channel.receiver == origin);\n        return isOpen(channelId) && isParty;\n    }\n\n    function startSettling(bytes32 channelId, bytes32 merkleRoot, bytes senderSig, bytes receiverSig) public {\n    }\n\n//    function canStartSettling(bytes32 channelId, bytes32 merkleRoot, bytes senderSig, bytes receiverSig) public view returns(bool) {\n//        return isOpen(channelId) && isSignedPayment(channelId, merkleRoot, senderSig, receiverSig);\n//    }\n//\n//    function startSettling(bytes32 channelId, bytes32 merkleRoot, bytes senderSig, bytes receiverSig) public {\n//        require(canStartSettling(channelId, merkleRoot, senderSig, receiverSig));\n//        var channel = channels[channelId];\n//\n//        channel.merkleRoot = merkleRoot;\n//        channel.settlingUntil = block.number + channel.settlingPeriod;\n//\n//        DidStartSettling(channelId);\n//    }\n\n    function withdraw(bytes32 channelId, bytes proof, bytes32 preimage, int256 amount) public {\n        var channel = channels[channelId];\n        var hashlock = toHashlock(channelId, preimage, amount);\n        require(checkProof(proof, channel.merkleRoot, hashlock));\n\n        if (amount >= 0) {\n            var payment = uint256(amount);\n            channel.value -= payment;\n            require(channel.receiver.send(payment));\n        }\n\n        DidWithdraw(channelId, amount);\n\n        if (channel.value == 0) {\n            delete channels[channelId];\n            DidClose(channelId);\n        }\n    }\n\n    /** Digest **/\n    function isSignedPayment(bytes32 channelId, bytes32 merkleRoot, bytes senderSig, bytes receiverSig) public view returns(bool) {\n        var channel = channels[channelId];\n        var digest = signatureDigest(channelId, merkleRoot);\n        bool isSignedBySender = channel.sender == ECRecovery.recover(digest, senderSig);\n        bool isSignedByReceiver = channel.receiver == ECRecovery.recover(digest, receiverSig);\n        return isSignedBySender && isSignedByReceiver;\n    }\n\n    function paymentDigest(bytes32 channelId, bytes32 merkleRoot) public constant returns(bytes32) {\n        return keccak256(address(this), chainId, channelId, merkleRoot);\n    }\n\n    function signatureDigest(bytes32 channelId, bytes32 merkleRoot) public constant returns(bytes32) {\n        bytes memory prefix = \"\\x19Ethereum Signed Message:\\n32\";\n        return keccak256(prefix, paymentDigest(channelId, merkleRoot));\n    }\n\n    /** Hashlocks and Merkle Trees **/\n\n    function toHashlock(bytes32 channelId, bytes32 preimage, int256 amount) public view returns (bytes32) {\n        return keccak256(chainId, channelId, preimage, amount);\n    }\n\n    function checkProof(bytes proof, bytes32 merkleRoot, bytes32 hashlock) public pure returns (bool) {\n        bytes32 proofElement;\n        bytes32 cursor = hashlock;\n\n        for (uint256 i = 32; i <= proof.length; i += 32) {\n            assembly { proofElement := mload(add(proof, i)) }\n\n            if (cursor < proofElement) {\n                cursor = keccak256(cursor, proofElement);\n            } else {\n                cursor = keccak256(proofElement, cursor);\n            }\n        }\n\n        return cursor == merkleRoot;\n    }\n\n    /** Channel State **/\n    function isPresent(bytes32 channelId) public view returns(bool) {\n        var channel = channels[channelId];\n        return channel.sender != 0;\n    }\n\n    function isSettling(bytes32 channelId) public view returns(bool) {\n        var channel = channels[channelId];\n        return channel.settlingUntil != 0;\n    }\n\n    function isOpen(bytes32 channelId) public view returns(bool) {\n        return isPresent(channelId) && !isSettling(channelId);\n    }\n}\n",
  "sourcePath": "/Users/ukstv/Documents/Pro/Machinomy/machinomy-contracts/contracts/BBroker.sol",
  "compiler": {
    "name": "solc",
    "version": "0.4.18+commit.9cf6e910.Emscripten.clang"
  },
  "schemaVersion": "1.0.1",
  "updatedAt": "2017-12-27T23:24:50.396Z"
}