{
  "contractName": "BBroker",
  "abi": [
    {
      "constant": true,
      "inputs": [
        {
          "name": "channelId",
          "type": "bytes32"
        }
      ],
      "name": "isPresent",
      "outputs": [
        {
          "name": "",
          "type": "bool"
        }
      ],
      "payable": false,
      "stateMutability": "view",
      "type": "function"
    },
    {
      "constant": false,
      "inputs": [
        {
          "name": "channelId",
          "type": "bytes32"
        },
        {
          "name": "proof",
          "type": "bytes"
        },
        {
          "name": "preimage",
          "type": "bytes32"
        },
        {
          "name": "amount",
          "type": "int256"
        }
      ],
      "name": "withdraw",
      "outputs": [],
      "payable": false,
      "stateMutability": "nonpayable",
      "type": "function"
    },
    {
      "constant": true,
      "inputs": [
        {
          "name": "channelId",
          "type": "bytes32"
        },
        {
          "name": "merkleRoot",
          "type": "bytes32"
        }
      ],
      "name": "paymentDigest",
      "outputs": [
        {
          "name": "",
          "type": "bytes32"
        }
      ],
      "payable": false,
      "stateMutability": "view",
      "type": "function"
    },
    {
      "constant": false,
      "inputs": [
        {
          "name": "receiver",
          "type": "address"
        },
        {
          "name": "settlingPeriod",
          "type": "uint32"
        }
      ],
      "name": "open",
      "outputs": [],
      "payable": true,
      "stateMutability": "payable",
      "type": "function"
    },
    {
      "constant": true,
      "inputs": [
        {
          "name": "channelId",
          "type": "bytes32"
        },
        {
          "name": "preimage",
          "type": "bytes32"
        },
        {
          "name": "amount",
          "type": "int256"
        }
      ],
      "name": "toHashlock",
      "outputs": [
        {
          "name": "",
          "type": "bytes32"
        }
      ],
      "payable": false,
      "stateMutability": "view",
      "type": "function"
    },
    {
      "constant": true,
      "inputs": [
        {
          "name": "channelId",
          "type": "bytes32"
        },
        {
          "name": "origin",
          "type": "address"
        }
      ],
      "name": "canStartSettling",
      "outputs": [
        {
          "name": "",
          "type": "bool"
        }
      ],
      "payable": false,
      "stateMutability": "view",
      "type": "function"
    },
    {
      "constant": false,
      "inputs": [
        {
          "name": "channelId",
          "type": "bytes32"
        },
        {
          "name": "nonce",
          "type": "uint32"
        },
        {
          "name": "merkleRoot",
          "type": "bytes32"
        },
        {
          "name": "senderSig",
          "type": "bytes"
        },
        {
          "name": "receiverSig",
          "type": "bytes"
        }
      ],
      "name": "update",
      "outputs": [],
      "payable": false,
      "stateMutability": "nonpayable",
      "type": "function"
    },
    {
      "constant": true,
      "inputs": [
        {
          "name": "channelId",
          "type": "bytes32"
        }
      ],
      "name": "isSettling",
      "outputs": [
        {
          "name": "",
          "type": "bool"
        }
      ],
      "payable": false,
      "stateMutability": "view",
      "type": "function"
    },
    {
      "constant": true,
      "inputs": [
        {
          "name": "",
          "type": "bytes32"
        }
      ],
      "name": "channels",
      "outputs": [
        {
          "name": "sender",
          "type": "address"
        },
        {
          "name": "receiver",
          "type": "address"
        },
        {
          "name": "value",
          "type": "uint256"
        },
        {
          "name": "merkleRoot",
          "type": "bytes32"
        },
        {
          "name": "settlingPeriod",
          "type": "uint32"
        },
        {
          "name": "settlingUntil",
          "type": "uint256"
        },
        {
          "name": "nonce",
          "type": "uint32"
        }
      ],
      "payable": false,
      "stateMutability": "view",
      "type": "function"
    },
    {
      "constant": true,
      "inputs": [
        {
          "name": "channelId",
          "type": "bytes32"
        }
      ],
      "name": "isOpen",
      "outputs": [
        {
          "name": "",
          "type": "bool"
        }
      ],
      "payable": false,
      "stateMutability": "view",
      "type": "function"
    },
    {
      "constant": false,
      "inputs": [],
      "name": "destroy",
      "outputs": [],
      "payable": false,
      "stateMutability": "nonpayable",
      "type": "function"
    },
    {
      "constant": true,
      "inputs": [],
      "name": "owner",
      "outputs": [
        {
          "name": "",
          "type": "address"
        }
      ],
      "payable": false,
      "stateMutability": "view",
      "type": "function"
    },
    {
      "constant": true,
      "inputs": [],
      "name": "chainId",
      "outputs": [
        {
          "name": "",
          "type": "uint32"
        }
      ],
      "payable": false,
      "stateMutability": "view",
      "type": "function"
    },
    {
      "constant": true,
      "inputs": [
        {
          "name": "channelId",
          "type": "bytes32"
        }
      ],
      "name": "isSettled",
      "outputs": [
        {
          "name": "",
          "type": "bool"
        }
      ],
      "payable": false,
      "stateMutability": "view",
      "type": "function"
    },
    {
      "constant": true,
      "inputs": [
        {
          "name": "proof",
          "type": "bytes"
        },
        {
          "name": "merkleRoot",
          "type": "bytes32"
        },
        {
          "name": "hashlock",
          "type": "bytes32"
        }
      ],
      "name": "checkProof",
      "outputs": [
        {
          "name": "",
          "type": "bool"
        }
      ],
      "payable": false,
      "stateMutability": "pure",
      "type": "function"
    },
    {
      "constant": true,
      "inputs": [
        {
          "name": "channelId",
          "type": "bytes32"
        },
        {
          "name": "nonce",
          "type": "uint32"
        },
        {
          "name": "merkleRoot",
          "type": "bytes32"
        },
        {
          "name": "senderSig",
          "type": "bytes"
        },
        {
          "name": "receiverSig",
          "type": "bytes"
        }
      ],
      "name": "canUpdate",
      "outputs": [
        {
          "name": "",
          "type": "bool"
        }
      ],
      "payable": false,
      "stateMutability": "view",
      "type": "function"
    },
    {
      "constant": true,
      "inputs": [
        {
          "name": "digest",
          "type": "bytes32"
        }
      ],
      "name": "signatureDigest",
      "outputs": [
        {
          "name": "",
          "type": "bytes32"
        }
      ],
      "payable": false,
      "stateMutability": "pure",
      "type": "function"
    },
    {
      "constant": true,
      "inputs": [
        {
          "name": "channelId",
          "type": "bytes32"
        },
        {
          "name": "nonce",
          "type": "uint32"
        },
        {
          "name": "merkleRoot",
          "type": "bytes32"
        }
      ],
      "name": "updateFingerprint",
      "outputs": [
        {
          "name": "",
          "type": "bytes32"
        }
      ],
      "payable": false,
      "stateMutability": "view",
      "type": "function"
    },
    {
      "constant": false,
      "inputs": [
        {
          "name": "channelId",
          "type": "bytes32"
        }
      ],
      "name": "startSettling",
      "outputs": [],
      "payable": false,
      "stateMutability": "nonpayable",
      "type": "function"
    },
    {
      "constant": false,
      "inputs": [
        {
          "name": "newOwner",
          "type": "address"
        }
      ],
      "name": "transferOwnership",
      "outputs": [],
      "payable": false,
      "stateMutability": "nonpayable",
      "type": "function"
    },
    {
      "constant": false,
      "inputs": [
        {
          "name": "_recipient",
          "type": "address"
        }
      ],
      "name": "destroyAndSend",
      "outputs": [],
      "payable": false,
      "stateMutability": "nonpayable",
      "type": "function"
    },
    {
      "constant": true,
      "inputs": [
        {
          "name": "channelId",
          "type": "bytes32"
        },
        {
          "name": "merkleRoot",
          "type": "bytes32"
        },
        {
          "name": "senderSig",
          "type": "bytes"
        },
        {
          "name": "receiverSig",
          "type": "bytes"
        }
      ],
      "name": "isSignedPayment",
      "outputs": [
        {
          "name": "",
          "type": "bool"
        }
      ],
      "payable": false,
      "stateMutability": "view",
      "type": "function"
    },
    {
      "inputs": [
        {
          "name": "_chainId",
          "type": "uint32"
        }
      ],
      "payable": false,
      "stateMutability": "nonpayable",
      "type": "constructor"
    },
    {
      "anonymous": false,
      "inputs": [
        {
          "indexed": true,
          "name": "channelId",
          "type": "bytes32"
        }
      ],
      "name": "DidOpen",
      "type": "event"
    },
    {
      "anonymous": false,
      "inputs": [
        {
          "indexed": true,
          "name": "channelId",
          "type": "bytes32"
        },
        {
          "indexed": false,
          "name": "merkleRoot",
          "type": "bytes32"
        }
      ],
      "name": "DidUpdate",
      "type": "event"
    },
    {
      "anonymous": false,
      "inputs": [
        {
          "indexed": true,
          "name": "channelId",
          "type": "bytes32"
        },
        {
          "indexed": true,
          "name": "sender",
          "type": "address"
        },
        {
          "indexed": true,
          "name": "receiver",
          "type": "address"
        }
      ],
      "name": "DidStartSettling",
      "type": "event"
    },
    {
      "anonymous": false,
      "inputs": [
        {
          "indexed": true,
          "name": "channelId",
          "type": "bytes32"
        },
        {
          "indexed": false,
          "name": "amount",
          "type": "int256"
        }
      ],
      "name": "DidWithdraw",
      "type": "event"
    },
    {
      "anonymous": false,
      "inputs": [
        {
          "indexed": true,
          "name": "channelId",
          "type": "bytes32"
        }
      ],
      "name": "DidClose",
      "type": "event"
    },
    {
      "anonymous": false,
      "inputs": [
        {
          "indexed": true,
          "name": "previousOwner",
          "type": "address"
        },
        {
          "indexed": true,
          "name": "newOwner",
          "type": "address"
        }
      ],
      "name": "OwnershipTransferred",
      "type": "event"
    }
  ],
  "bytecode": "0x6060604052341561000f57600080fd5b604051602080611f7283398101604052808051906020019091905050336000806101000a81548173ffffffffffffffffffffffffffffffffffffffff021916908373ffffffffffffffffffffffffffffffffffffffff16021790555080600260006101000a81548163ffffffff021916908363ffffffff160217905550600060038190555050611ece806100a46000396000f300606060405260043610610127576000357c0100000000000000000000000000000000000000000000000000000000900463ffffffff168062f31e761461012c57806309a777af1461016b578063285a4e66146101eb57806336ad73bb1461023b5780633f3bd9ef146102785780634722361c146102d1578063524643911461032f5780636683f9ae146103f85780637a7ebd7b146104375780637c35be7a1461051457806383197ef0146105535780638da5cb5b146105685780639a8a0592146105bd578063bd07f3c9146105f2578063bf0af1ba14610631578063cf5d68b9146106c0578063d9cd29b2146107a1578063dd12c258146107e4578063e62eea4714610843578063f2fde38b1461086a578063f5074f41146108a3578063f7f3c6e5146108dc575b600080fd5b341561013757600080fd5b6101516004808035600019169060200190919050506109ae565b604051808215151515815260200191505060405180910390f35b341561017657600080fd5b6101e960048080356000191690602001909190803590602001908201803590602001908080601f0160208091040260200160405190810160405280939291908181526020018383808284378201915050505050509190803560001916906020019091908035906020019091905050610a15565b005b34156101f657600080fd5b61021d60048080356000191690602001909190803560001916906020019091905050610c18565b60405180826000191660001916815260200191505060405180910390f35b610276600480803573ffffffffffffffffffffffffffffffffffffffff1690602001909190803563ffffffff16906020019091905050610cd8565b005b341561028357600080fd5b6102b360048080356000191690602001909190803560001916906020019091908035906020019091905050610eda565b60405180826000191660001916815260200191505060405180910390f35b34156102dc57600080fd5b61031560048080356000191690602001909190803573ffffffffffffffffffffffffffffffffffffffff16906020019091905050610f60565b604051808215151515815260200191505060405180910390f35b341561033a57600080fd5b6103f660048080356000191690602001909190803563ffffffff169060200190919080356000191690602001909190803590602001908201803590602001908080601f0160208091040260200160405190810160405280939291908181526020018383808284378201915050505050509190803590602001908201803590602001908080601f0160208091040260200160405190810160405280939291908181526020018383808284378201915050505050509190505061104d565b005b341561040357600080fd5b61041d6004808035600019169060200190919050506110dd565b604051808215151515815260200191505060405180910390f35b341561044257600080fd5b61045c60048080356000191690602001909190505061110c565b604051808873ffffffffffffffffffffffffffffffffffffffff1673ffffffffffffffffffffffffffffffffffffffff1681526020018773ffffffffffffffffffffffffffffffffffffffff1673ffffffffffffffffffffffffffffffffffffffff16815260200186815260200185600019166000191681526020018463ffffffff1663ffffffff1681526020018381526020018263ffffffff1663ffffffff16815260200197505050505050505060405180910390f35b341561051f57600080fd5b6105396004808035600019169060200190919050506111ae565b604051808215151515815260200191505060405180910390f35b341561055e57600080fd5b610566611225565b005b341561057357600080fd5b61057b6112ba565b604051808273ffffffffffffffffffffffffffffffffffffffff1673ffffffffffffffffffffffffffffffffffffffff16815260200191505060405180910390f35b34156105c857600080fd5b6105d06112df565b604051808263ffffffff1663ffffffff16815260200191505060405180910390f35b34156105fd57600080fd5b6106176004808035600019169060200190919050506112f5565b604051808215151515815260200191505060405180910390f35b341561063c57600080fd5b6106a6600480803590602001908201803590602001908080601f016020809104026020016040519081016040528093929190818152602001838380828437820191505050505050919080356000191690602001909190803560001916906020019091905050611335565b604051808215151515815260200191505060405180910390f35b34156106cb57600080fd5b61078760048080356000191690602001909190803563ffffffff169060200190919080356000191690602001909190803590602001908201803590602001908080601f0160208091040260200160405190810160405280939291908181526020018383808284378201915050505050509190803590602001908201803590602001908080601f016020809104026020016040519081016040528093929190818152602001838380828437820191505050505050919050506113eb565b604051808215151515815260200191505060405180910390f35b34156107ac57600080fd5b6107c660048080356000191690602001909190505061172e565b60405180826000191660001916815260200191505060405180910390f35b34156107ef57600080fd5b61082560048080356000191690602001909190803563ffffffff16906020019091908035600019169060200190919050506117eb565b60405180826000191660001916815260200191505060405180910390f35b341561084e57600080fd5b6108686004808035600019169060200190919050506118c2565b005b341561087557600080fd5b6108a1600480803573ffffffffffffffffffffffffffffffffffffffff169060200190919050506119c6565b005b34156108ae57600080fd5b6108da600480803573ffffffffffffffffffffffffffffffffffffffff16906020019091905050611b1b565b005b34156108e757600080fd5b6109946004808035600019169060200190919080356000191690602001909190803590602001908201803590602001908080601f0160208091040260200160405190810160405280939291908181526020018383808284378201915050505050509190803590602001908201803590602001908080601f01602080910402602001604051908101604052809392919081815260200183838082843782019150505050505091905050611b8f565b604051808215151515815260200191505060405180910390f35b600080600160008460001916600019168152602001908152602001600020905060008160000160009054906101000a900473ffffffffffffffffffffffffffffffffffffffff1673ffffffffffffffffffffffffffffffffffffffff161415915050919050565b60008060006001600088600019166000191681526020019081526020016000209250610a42878686610eda565b9150610a5386846003015484611335565b1515610a5e57600080fd5b600084121515610ae2578390508083600201600082825403925050819055508260010160009054906101000a900473ffffffffffffffffffffffffffffffffffffffff1673ffffffffffffffffffffffffffffffffffffffff166108fc829081150290604051600060405180830381858888f193505050501515610ae157600080fd5b5b86600019167f9b97616c860c1e16c461695f07750b3ad7cdadc607e0d047ca72cf08a85aea05856040518082815260200191505060405180910390a2600083600201541415610c0f57600160008860001916600019168152602001908152602001600020600080820160006101000a81549073ffffffffffffffffffffffffffffffffffffffff02191690556001820160006101000a81549073ffffffffffffffffffffffffffffffffffffffff0219169055600282016000905560038201600090556004820160006101000a81549063ffffffff021916905560058201600090556006820160006101000a81549063ffffffff0219169055505086600019167f6c1b199e41928e006b6cd4e44a0f2ddf85df1e69545eebb0ddbcb3a970ca853c60405160405180910390a25b50505050505050565b600030600260009054906101000a900463ffffffff168484604051808573ffffffffffffffffffffffffffffffffffffffff1673ffffffffffffffffffffffffffffffffffffffff166c010000000000000000000000000281526014018463ffffffff1663ffffffff167c0100000000000000000000000000000000000000000000000000000000028152600401836000191660001916815260200182600019166000191681526020019450505050506040518091039020905092915050565b600080600080600360008154809291906001019190505543016040518082815260200191505060405180910390209350600060010292506000915060e0604051908101604052803373ffffffffffffffffffffffffffffffffffffffff1681526020018773ffffffffffffffffffffffffffffffffffffffff168152602001348152602001846000191681526020018663ffffffff1681526020018381526020018263ffffffff1681525060016000866000191660001916815260200190815260200160002060008201518160000160006101000a81548173ffffffffffffffffffffffffffffffffffffffff021916908373ffffffffffffffffffffffffffffffffffffffff16021790555060208201518160010160006101000a81548173ffffffffffffffffffffffffffffffffffffffff021916908373ffffffffffffffffffffffffffffffffffffffff160217905550604082015181600201556060820151816003019060001916905560808201518160040160006101000a81548163ffffffff021916908363ffffffff16021790555060a0820151816005015560c08201518160060160006101000a81548163ffffffff021916908363ffffffff16021790555090505083600019167f3acaf6c81b0902ff892efc6d8b28af3c95b986755aeddf843449789733f92c5360405160405180910390a2505050505050565b6000600260009054906101000a900463ffffffff16848484604051808563ffffffff1663ffffffff167c010000000000000000000000000000000000000000000000000000000002815260040184600019166000191681526020018360001916600019168152602001828152602001945050505050604051809103902090509392505050565b600080600060016000866000191660001916815260200190815260200160002091508373ffffffffffffffffffffffffffffffffffffffff168260000160009054906101000a900473ffffffffffffffffffffffffffffffffffffffff1673ffffffffffffffffffffffffffffffffffffffff16148061102f57508373ffffffffffffffffffffffffffffffffffffffff168260010160009054906101000a900473ffffffffffffffffffffffffffffffffffffffff1673ffffffffffffffffffffffffffffffffffffffff16145b905061103a856111ae565b80156110435750805b9250505092915050565b600061105c86868686866113eb565b151561106757600080fd5b60016000876000191660001916815260200190815260200160002090508381600301816000191690555085600019167f13eeea23baf03cd1562c1bfec13cfc1e7351e5722dcd9080cf2cad346c81521d8560405180826000191660001916815260200191505060405180910390a2505050505050565b600080600160008460001916600019168152602001908152602001600020905080600501544310915050919050565b60016020528060005260406000206000915090508060000160009054906101000a900473ffffffffffffffffffffffffffffffffffffffff16908060010160009054906101000a900473ffffffffffffffffffffffffffffffffffffffff16908060020154908060030154908060040160009054906101000a900463ffffffff16908060050154908060060160009054906101000a900463ffffffff16905087565b600080600160008460001916600019168152602001908152602001600020905060008160000160009054906101000a900473ffffffffffffffffffffffffffffffffffffffff1673ffffffffffffffffffffffffffffffffffffffff161415801561121d575060008160050154145b915050919050565b6000809054906101000a900473ffffffffffffffffffffffffffffffffffffffff1673ffffffffffffffffffffffffffffffffffffffff163373ffffffffffffffffffffffffffffffffffffffff1614151561128057600080fd5b6000809054906101000a900473ffffffffffffffffffffffffffffffffffffffff1673ffffffffffffffffffffffffffffffffffffffff16ff5b6000809054906101000a900473ffffffffffffffffffffffffffffffffffffffff1681565b600260009054906101000a900463ffffffff1681565b60008060016000846000191660001916815260200190815260200160002090508060050154600010801561132d575043816005015411155b915050919050565b600080600080849150602090505b8651811115156113d457808701519250826000191682600019161015611398578183604051808360001916600019168152602001826000191660001916815260200192505050604051809103902091506113c9565b8282604051808360001916600019168152602001826000191660001916815260200192505050604051809103902091505b602081019050611343565b856000191682600019161493505050509392505050565b600080600080600080600160008c60001916600019168152602001908152602001600020945061142461141f8c8c8c6117eb565b61172e565b935073__ECRecovery____________________________6319045a25858a6000604051602001526040518363ffffffff167c010000000000000000000000000000000000000000000000000000000002815260040180836000191660001916815260200180602001828103825283818151815260200191508051906020019080838360005b838110156114c45780820151818401526020810190506114a9565b50505050905090810190601f1680156114f15780820380516001836020036101000a031916815260200191505b50935050505060206040518083038186803b151561150e57600080fd5b6102c65a03f4151561151f57600080fd5b5050506040518051905073ffffffffffffffffffffffffffffffffffffffff168560000160009054906101000a900473ffffffffffffffffffffffffffffffffffffffff1673ffffffffffffffffffffffffffffffffffffffff1614925073__ECRecovery____________________________6319045a2585896000604051602001526040518363ffffffff167c010000000000000000000000000000000000000000000000000000000002815260040180836000191660001916815260200180602001828103825283818151815260200191508051906020019080838360005b8381101561161b578082015181840152602081019050611600565b50505050905090810190601f1680156116485780820380516001836020036101000a031916815260200191505b50935050505060206040518083038186803b151561166557600080fd5b6102c65a03f4151561167657600080fd5b5050506040518051905073ffffffffffffffffffffffffffffffffffffffff168560010160009054906101000a900473ffffffffffffffffffffffffffffffffffffffff1673ffffffffffffffffffffffffffffffffffffffff161491508460060160009054906101000a900463ffffffff1663ffffffff168a63ffffffff161190506117028b6112f5565b15801561170c5750805b80156117155750825b801561171e5750815b9550505050505095945050505050565b6000611738611e8e565b6040805190810160405280601c81526020017f19457468657265756d205369676e6564204d6573736167653a0a333200000000815250905080836040518083805190602001908083835b6020831015156117a75780518252602082019150602081019050602083039250611782565b6001836020036101000a0380198251168184511680821785525050505050509050018260001916600019168152602001925050506040518091039020915050919050565b60003084848460405180807f75000000000000000000000000000000000000000000000000000000000000008152506001018573ffffffffffffffffffffffffffffffffffffffff1673ffffffffffffffffffffffffffffffffffffffff166c0100000000000000000000000002815260140184600019166000191681526020018363ffffffff1663ffffffff167c01000000000000000000000000000000000000000000000000000000000281526004018260001916600019168152602001945050505050604051809103902090509392505050565b60006118ce8233610f60565b15156118d957600080fd5b60016000836000191660001916815260200190815260200160002090508060040160009054906101000a900463ffffffff1663ffffffff16430181600501819055508060010160009054906101000a900473ffffffffffffffffffffffffffffffffffffffff1673ffffffffffffffffffffffffffffffffffffffff168160000160009054906101000a900473ffffffffffffffffffffffffffffffffffffffff1673ffffffffffffffffffffffffffffffffffffffff1683600019167f7afa05b56c90e9be1bf71d82631ec67a0171d76eb0c455ff34d8906741a1304860405160405180910390a45050565b6000809054906101000a900473ffffffffffffffffffffffffffffffffffffffff1673ffffffffffffffffffffffffffffffffffffffff163373ffffffffffffffffffffffffffffffffffffffff16141515611a2157600080fd5b600073ffffffffffffffffffffffffffffffffffffffff168173ffffffffffffffffffffffffffffffffffffffff1614151515611a5d57600080fd5b8073ffffffffffffffffffffffffffffffffffffffff166000809054906101000a900473ffffffffffffffffffffffffffffffffffffffff1673ffffffffffffffffffffffffffffffffffffffff167f8be0079c531659141344cd1fd0a4f28419497f9722a3daafe3b4186f6b6457e060405160405180910390a3806000806101000a81548173ffffffffffffffffffffffffffffffffffffffff021916908373ffffffffffffffffffffffffffffffffffffffff16021790555050565b6000809054906101000a900473ffffffffffffffffffffffffffffffffffffffff1673ffffffffffffffffffffffffffffffffffffffff163373ffffffffffffffffffffffffffffffffffffffff16141515611b7657600080fd5b8073ffffffffffffffffffffffffffffffffffffffff16ff5b6000806000806000600160008a600019166000191681526020019081526020016000209350611bc6611bc18a8a610c18565b61172e565b925073__ECRecovery____________________________6319045a2584896000604051602001526040518363ffffffff167c010000000000000000000000000000000000000000000000000000000002815260040180836000191660001916815260200180602001828103825283818151815260200191508051906020019080838360005b83811015611c66578082015181840152602081019050611c4b565b50505050905090810190601f168015611c935780820380516001836020036101000a031916815260200191505b50935050505060206040518083038186803b1515611cb057600080fd5b6102c65a03f41515611cc157600080fd5b5050506040518051905073ffffffffffffffffffffffffffffffffffffffff168460000160009054906101000a900473ffffffffffffffffffffffffffffffffffffffff1673ffffffffffffffffffffffffffffffffffffffff1614915073__ECRecovery____________________________6319045a2584886000604051602001526040518363ffffffff167c010000000000000000000000000000000000000000000000000000000002815260040180836000191660001916815260200180602001828103825283818151815260200191508051906020019080838360005b83811015611dbd578082015181840152602081019050611da2565b50505050905090810190601f168015611dea5780820380516001836020036101000a031916815260200191505b50935050505060206040518083038186803b1515611e0757600080fd5b6102c65a03f41515611e1857600080fd5b5050506040518051905073ffffffffffffffffffffffffffffffffffffffff168460010160009054906101000a900473ffffffffffffffffffffffffffffffffffffffff1673ffffffffffffffffffffffffffffffffffffffff16149050818015611e805750805b945050505050949350505050565b6020604051908101604052806000815250905600a165627a7a72305820262cffc54c7244fac5ebcad576d928ffc22e3edce667043d71396b6647d680bc0029",
  "source": "pragma solidity ^0.4.18;\n\nimport \"zeppelin-solidity/contracts/lifecycle/Destructible.sol\";\nimport \"zeppelin-solidity/contracts/math/SafeMath.sol\";\nimport \"zeppelin-solidity/contracts/ECRecovery.sol\";\n\n\ncontract BBroker is Destructible {\n    using SafeMath for uint256;\n\n    struct PaymentChannel {\n        address sender;\n        address receiver;\n        uint256 value;\n\n        bytes32 merkleRoot;\n\n        uint32 settlingPeriod;\n        uint256 settlingUntil;\n\n        uint32 nonce;\n    }\n\n    mapping (bytes32 => PaymentChannel) public channels;\n\n    uint32 public chainId;\n    uint256 id;\n\n    event DidOpen(bytes32 indexed channelId);\n    event DidUpdate(bytes32 indexed channelId, bytes32 merkleRoot);\n    event DidStartSettling(bytes32 indexed channelId, address indexed sender, address indexed receiver);\n    event DidWithdraw(bytes32 indexed channelId, int256 amount);\n    event DidClose(bytes32 indexed channelId);\n\n    function BBroker(uint32 _chainId) public {\n        chainId = _chainId;\n        id = 0;\n    }\n\n    function open(address receiver, uint32 settlingPeriod) public payable {\n        bytes32 channelId = keccak256(block.number + id++);\n        bytes32 merkleRoot = 0;\n        uint256 settlingUntil = 0;\n        uint32 nonce;\n        channels[channelId] = PaymentChannel(\n            msg.sender,\n            receiver,\n            msg.value,\n            merkleRoot,\n            settlingPeriod,\n            settlingUntil,\n            nonce\n        );\n        DidOpen(channelId);\n    }\n\n    function canStartSettling(bytes32 channelId, address origin) public view returns(bool) {\n        var channel = channels[channelId];\n        bool isParty = (channel.sender == origin) || (channel.receiver == origin);\n        return isOpen(channelId) && isParty;\n    }\n\n    function startSettling(bytes32 channelId) public {\n        require(canStartSettling(channelId, msg.sender));\n\n        var channel = channels[channelId];\n        channel.settlingUntil = block.number + channel.settlingPeriod;\n\n        DidStartSettling(channelId, channel.sender, channel.receiver);\n    }\n\n    function updateFingerprint(bytes32 channelId, uint32 nonce, bytes32 merkleRoot) public view returns(bytes32) {\n        return keccak256(\"u\", address(this), channelId, nonce, merkleRoot);\n    }\n\n    function canUpdate(bytes32 channelId, uint32 nonce, bytes32 merkleRoot, bytes senderSig, bytes receiverSig) public view returns(bool) {\n        var channel = channels[channelId];\n        var digest = signatureDigest(updateFingerprint(channelId, nonce, merkleRoot));\n        bool isSignedBySender = channel.sender == ECRecovery.recover(digest, senderSig);\n        bool isSignedByReceiver = channel.receiver == ECRecovery.recover(digest, receiverSig);\n        bool isHigherNonce = nonce > channel.nonce;\n        return !isSettled(channelId) && isHigherNonce && isSignedBySender && isSignedByReceiver;\n    }\n\n    function update(bytes32 channelId, uint32 nonce, bytes32 merkleRoot, bytes senderSig, bytes receiverSig) public {\n        require(canUpdate(channelId, nonce, merkleRoot, senderSig, receiverSig));\n\n        var channel = channels[channelId];\n        channel.merkleRoot = merkleRoot;\n\n        DidUpdate(channelId, merkleRoot);\n    }\n\n//    function canStartSettling(bytes32 channelId, bytes32 merkleRoot, bytes senderSig, bytes receiverSig) public view returns(bool) {\n//        return isOpen(channelId) && isSignedPayment(channelId, merkleRoot, senderSig, receiverSig);\n//    }\n//\n//    function startSettling(bytes32 channelId, bytes32 merkleRoot, bytes senderSig, bytes receiverSig) public {\n//        require(canStartSettling(channelId, merkleRoot, senderSig, receiverSig));\n//        var channel = channels[channelId];\n//\n//        channel.merkleRoot = merkleRoot;\n//        channel.settlingUntil = block.number + channel.settlingPeriod;\n//\n//        DidStartSettling(channelId);\n//    }\n\n    function withdraw(bytes32 channelId, bytes proof, bytes32 preimage, int256 amount) public {\n        var channel = channels[channelId];\n        var hashlock = toHashlock(channelId, preimage, amount);\n        require(checkProof(proof, channel.merkleRoot, hashlock));\n\n        if (amount >= 0) {\n            var payment = uint256(amount);\n            channel.value -= payment;\n            require(channel.receiver.send(payment));\n        }\n\n        DidWithdraw(channelId, amount);\n\n        if (channel.value == 0) {\n            delete channels[channelId];\n            DidClose(channelId);\n        }\n    }\n\n    /** Digest **/\n    function isSignedPayment(bytes32 channelId, bytes32 merkleRoot, bytes senderSig, bytes receiverSig) public view returns(bool) {\n        var channel = channels[channelId];\n        var digest = signatureDigest(paymentDigest(channelId, merkleRoot));\n        bool isSignedBySender = channel.sender == ECRecovery.recover(digest, senderSig);\n        bool isSignedByReceiver = channel.receiver == ECRecovery.recover(digest, receiverSig);\n        return isSignedBySender && isSignedByReceiver;\n    }\n\n    function paymentDigest(bytes32 channelId, bytes32 merkleRoot) public view returns(bytes32) {\n        return keccak256(address(this), chainId, channelId, merkleRoot);\n    }\n\n    function signatureDigest(bytes32 digest) public pure returns(bytes32) {\n        bytes memory prefix = \"\\x19Ethereum Signed Message:\\n32\";\n        return keccak256(prefix, digest);\n    }\n\n    /** Hashlocks and Merkle Trees **/\n\n    function toHashlock(bytes32 channelId, bytes32 preimage, int256 amount) public view returns (bytes32) {\n        return keccak256(chainId, channelId, preimage, amount);\n    }\n\n    function checkProof(bytes proof, bytes32 merkleRoot, bytes32 hashlock) public pure returns (bool) {\n        bytes32 proofElement;\n        bytes32 cursor = hashlock;\n\n        for (uint256 i = 32; i <= proof.length; i += 32) {\n            assembly { proofElement := mload(add(proof, i)) }\n\n            if (cursor < proofElement) {\n                cursor = keccak256(cursor, proofElement);\n            } else {\n                cursor = keccak256(proofElement, cursor);\n            }\n        }\n\n        return cursor == merkleRoot;\n    }\n\n    /** Channel State **/\n    function isPresent(bytes32 channelId) public view returns(bool) {\n        var channel = channels[channelId];\n        return channel.sender != 0;\n    }\n\n    function isOpen(bytes32 channelId) public view returns(bool) {\n        var channel = channels[channelId];\n        return channel.sender != 0 && channel.settlingUntil == 0;\n    }\n\n    function isSettling(bytes32 channelId) public view returns(bool) {\n        var channel = channels[channelId];\n        return block.number < channel.settlingUntil;\n    }\n\n    function isSettled(bytes32 channelId) public view returns(bool) {\n        var channel = channels[channelId];\n        return 0 < channel.settlingUntil && channel.settlingUntil <= block.number;\n    }\n}\n",
  "sourcePath": "/Users/ukstv/Documents/Pro/Machinomy/machinomy-contracts/contracts/BBroker.sol",
  "compiler": {
    "name": "solc",
    "version": "0.4.18+commit.9cf6e910.Emscripten.clang"
  },
  "schemaVersion": "1.0.1",
  "updatedAt": "2017-12-28T01:24:53.863Z"
}