{
  "contractName": "BBroker",
  "abi": [
    {
      "constant": true,
      "inputs": [
        {
          "name": "channelId",
          "type": "bytes32"
        }
      ],
      "name": "isPresent",
      "outputs": [
        {
          "name": "",
          "type": "bool"
        }
      ],
      "payable": false,
      "stateMutability": "view",
      "type": "function"
    },
    {
      "constant": false,
      "inputs": [
        {
          "name": "channelId",
          "type": "bytes32"
        },
        {
          "name": "proof",
          "type": "bytes"
        },
        {
          "name": "preimage",
          "type": "bytes32"
        },
        {
          "name": "amount",
          "type": "int256"
        }
      ],
      "name": "withdraw",
      "outputs": [],
      "payable": false,
      "stateMutability": "nonpayable",
      "type": "function"
    },
    {
      "constant": true,
      "inputs": [
        {
          "name": "channelId",
          "type": "bytes32"
        },
        {
          "name": "merkleRoot",
          "type": "bytes32"
        }
      ],
      "name": "paymentDigest",
      "outputs": [
        {
          "name": "",
          "type": "bytes32"
        }
      ],
      "payable": false,
      "stateMutability": "view",
      "type": "function"
    },
    {
      "constant": false,
      "inputs": [
        {
          "name": "receiver",
          "type": "address"
        },
        {
          "name": "settlingPeriod",
          "type": "uint32"
        }
      ],
      "name": "open",
      "outputs": [],
      "payable": true,
      "stateMutability": "payable",
      "type": "function"
    },
    {
      "constant": true,
      "inputs": [
        {
          "name": "channelId",
          "type": "bytes32"
        },
        {
          "name": "preimage",
          "type": "bytes32"
        },
        {
          "name": "amount",
          "type": "int256"
        }
      ],
      "name": "toHashlock",
      "outputs": [
        {
          "name": "",
          "type": "bytes32"
        }
      ],
      "payable": false,
      "stateMutability": "view",
      "type": "function"
    },
    {
      "constant": true,
      "inputs": [
        {
          "name": "channelId",
          "type": "bytes32"
        },
        {
          "name": "origin",
          "type": "address"
        }
      ],
      "name": "canStartSettling",
      "outputs": [
        {
          "name": "",
          "type": "bool"
        }
      ],
      "payable": false,
      "stateMutability": "view",
      "type": "function"
    },
    {
      "constant": true,
      "inputs": [
        {
          "name": "channelId",
          "type": "bytes32"
        },
        {
          "name": "nonce",
          "type": "uint32"
        },
        {
          "name": "origin",
          "type": "address"
        }
      ],
      "name": "canUpdate",
      "outputs": [
        {
          "name": "",
          "type": "bool"
        }
      ],
      "payable": false,
      "stateMutability": "view",
      "type": "function"
    },
    {
      "constant": true,
      "inputs": [
        {
          "name": "channelId",
          "type": "bytes32"
        }
      ],
      "name": "isSettling",
      "outputs": [
        {
          "name": "",
          "type": "bool"
        }
      ],
      "payable": false,
      "stateMutability": "view",
      "type": "function"
    },
    {
      "constant": true,
      "inputs": [
        {
          "name": "",
          "type": "bytes32"
        }
      ],
      "name": "channels",
      "outputs": [
        {
          "name": "sender",
          "type": "address"
        },
        {
          "name": "receiver",
          "type": "address"
        },
        {
          "name": "value",
          "type": "uint256"
        },
        {
          "name": "merkleRoot",
          "type": "bytes32"
        },
        {
          "name": "settlingPeriod",
          "type": "uint32"
        },
        {
          "name": "settlingUntil",
          "type": "uint256"
        },
        {
          "name": "nonce",
          "type": "uint32"
        }
      ],
      "payable": false,
      "stateMutability": "view",
      "type": "function"
    },
    {
      "constant": true,
      "inputs": [
        {
          "name": "channelId",
          "type": "bytes32"
        }
      ],
      "name": "isOpen",
      "outputs": [
        {
          "name": "",
          "type": "bool"
        }
      ],
      "payable": false,
      "stateMutability": "view",
      "type": "function"
    },
    {
      "constant": false,
      "inputs": [],
      "name": "destroy",
      "outputs": [],
      "payable": false,
      "stateMutability": "nonpayable",
      "type": "function"
    },
    {
      "constant": true,
      "inputs": [],
      "name": "owner",
      "outputs": [
        {
          "name": "",
          "type": "address"
        }
      ],
      "payable": false,
      "stateMutability": "view",
      "type": "function"
    },
    {
      "constant": true,
      "inputs": [],
      "name": "chainId",
      "outputs": [
        {
          "name": "",
          "type": "uint32"
        }
      ],
      "payable": false,
      "stateMutability": "view",
      "type": "function"
    },
    {
      "constant": true,
      "inputs": [
        {
          "name": "channelId",
          "type": "bytes32"
        }
      ],
      "name": "isSettled",
      "outputs": [
        {
          "name": "",
          "type": "bool"
        }
      ],
      "payable": false,
      "stateMutability": "view",
      "type": "function"
    },
    {
      "constant": true,
      "inputs": [
        {
          "name": "proof",
          "type": "bytes"
        },
        {
          "name": "merkleRoot",
          "type": "bytes32"
        },
        {
          "name": "hashlock",
          "type": "bytes32"
        }
      ],
      "name": "checkProof",
      "outputs": [
        {
          "name": "",
          "type": "bool"
        }
      ],
      "payable": false,
      "stateMutability": "pure",
      "type": "function"
    },
    {
      "constant": true,
      "inputs": [
        {
          "name": "digest",
          "type": "bytes32"
        }
      ],
      "name": "signatureDigest",
      "outputs": [
        {
          "name": "",
          "type": "bytes32"
        }
      ],
      "payable": false,
      "stateMutability": "pure",
      "type": "function"
    },
    {
      "constant": false,
      "inputs": [
        {
          "name": "channelId",
          "type": "bytes32"
        }
      ],
      "name": "startSettling",
      "outputs": [],
      "payable": false,
      "stateMutability": "nonpayable",
      "type": "function"
    },
    {
      "constant": true,
      "inputs": [
        {
          "name": "channelId",
          "type": "bytes32"
        },
        {
          "name": "nonce",
          "type": "uint32"
        },
        {
          "name": "merkleRoot",
          "type": "bytes32"
        }
      ],
      "name": "update",
      "outputs": [
        {
          "name": "",
          "type": "bool"
        }
      ],
      "payable": false,
      "stateMutability": "view",
      "type": "function"
    },
    {
      "constant": false,
      "inputs": [
        {
          "name": "newOwner",
          "type": "address"
        }
      ],
      "name": "transferOwnership",
      "outputs": [],
      "payable": false,
      "stateMutability": "nonpayable",
      "type": "function"
    },
    {
      "constant": false,
      "inputs": [
        {
          "name": "_recipient",
          "type": "address"
        }
      ],
      "name": "destroyAndSend",
      "outputs": [],
      "payable": false,
      "stateMutability": "nonpayable",
      "type": "function"
    },
    {
      "constant": true,
      "inputs": [
        {
          "name": "channelId",
          "type": "bytes32"
        },
        {
          "name": "merkleRoot",
          "type": "bytes32"
        },
        {
          "name": "senderSig",
          "type": "bytes"
        },
        {
          "name": "receiverSig",
          "type": "bytes"
        }
      ],
      "name": "isSignedPayment",
      "outputs": [
        {
          "name": "",
          "type": "bool"
        }
      ],
      "payable": false,
      "stateMutability": "view",
      "type": "function"
    },
    {
      "inputs": [
        {
          "name": "_chainId",
          "type": "uint32"
        }
      ],
      "payable": false,
      "stateMutability": "nonpayable",
      "type": "constructor"
    },
    {
      "anonymous": false,
      "inputs": [
        {
          "indexed": true,
          "name": "channelId",
          "type": "bytes32"
        }
      ],
      "name": "DidOpen",
      "type": "event"
    },
    {
      "anonymous": false,
      "inputs": [
        {
          "indexed": true,
          "name": "channelId",
          "type": "bytes32"
        },
        {
          "indexed": true,
          "name": "sender",
          "type": "address"
        },
        {
          "indexed": true,
          "name": "receiver",
          "type": "address"
        }
      ],
      "name": "DidStartSettling",
      "type": "event"
    },
    {
      "anonymous": false,
      "inputs": [
        {
          "indexed": true,
          "name": "channelId",
          "type": "bytes32"
        },
        {
          "indexed": false,
          "name": "amount",
          "type": "int256"
        }
      ],
      "name": "DidWithdraw",
      "type": "event"
    },
    {
      "anonymous": false,
      "inputs": [
        {
          "indexed": true,
          "name": "channelId",
          "type": "bytes32"
        }
      ],
      "name": "DidClose",
      "type": "event"
    },
    {
      "anonymous": false,
      "inputs": [
        {
          "indexed": true,
          "name": "previousOwner",
          "type": "address"
        },
        {
          "indexed": true,
          "name": "newOwner",
          "type": "address"
        }
      ],
      "name": "OwnershipTransferred",
      "type": "event"
    }
  ],
  "bytecode": "0x6060604052341561000f57600080fd5b604051602080611a7883398101604052808051906020019091905050336000806101000a81548173ffffffffffffffffffffffffffffffffffffffff021916908373ffffffffffffffffffffffffffffffffffffffff16021790555080600260006101000a81548163ffffffff021916908363ffffffff1602179055506000600381905550506119d4806100a46000396000f30060606040526004361061011c576000357c0100000000000000000000000000000000000000000000000000000000900463ffffffff168062f31e761461012157806309a777af14610160578063285a4e66146101e057806336ad73bb146102305780633f3bd9ef1461026d5780634722361c146102c65780635382c454146103245780636683f9ae146103915780637a7ebd7b146103d05780637c35be7a146104ad57806383197ef0146104ec5780638da5cb5b146105015780639a8a059214610556578063bd07f3c91461058b578063bf0af1ba146105ca578063d9cd29b214610659578063e62eea471461069c578063ee2bf932146106c3578063f2fde38b1461071e578063f5074f4114610757578063f7f3c6e514610790575b600080fd5b341561012c57600080fd5b610146600480803560001916906020019091905050610862565b604051808215151515815260200191505060405180910390f35b341561016b57600080fd5b6101de60048080356000191690602001909190803590602001908201803590602001908080601f01602080910402602001604051908101604052809392919081815260200183838082843782019150505050505091908035600019169060200190919080359060200190919050506108c9565b005b34156101eb57600080fd5b61021260048080356000191690602001909190803560001916906020019091905050610acc565b60405180826000191660001916815260200191505060405180910390f35b61026b600480803573ffffffffffffffffffffffffffffffffffffffff1690602001909190803563ffffffff16906020019091905050610b8c565b005b341561027857600080fd5b6102a860048080356000191690602001909190803560001916906020019091908035906020019091905050610d8e565b60405180826000191660001916815260200191505060405180910390f35b34156102d157600080fd5b61030a60048080356000191690602001909190803573ffffffffffffffffffffffffffffffffffffffff16906020019091905050610e14565b604051808215151515815260200191505060405180910390f35b341561032f57600080fd5b61037760048080356000191690602001909190803563ffffffff1690602001909190803573ffffffffffffffffffffffffffffffffffffffff16906020019091905050610f01565b604051808215151515815260200191505060405180910390f35b341561039c57600080fd5b6103b6600480803560001916906020019091905050611020565b604051808215151515815260200191505060405180910390f35b34156103db57600080fd5b6103f5600480803560001916906020019091905050611051565b604051808873ffffffffffffffffffffffffffffffffffffffff1673ffffffffffffffffffffffffffffffffffffffff1681526020018773ffffffffffffffffffffffffffffffffffffffff1673ffffffffffffffffffffffffffffffffffffffff16815260200186815260200185600019166000191681526020018463ffffffff1663ffffffff1681526020018381526020018263ffffffff1663ffffffff16815260200197505050505050505060405180910390f35b34156104b857600080fd5b6104d26004808035600019169060200190919050506110f3565b604051808215151515815260200191505060405180910390f35b34156104f757600080fd5b6104ff611117565b005b341561050c57600080fd5b6105146111ac565b604051808273ffffffffffffffffffffffffffffffffffffffff1673ffffffffffffffffffffffffffffffffffffffff16815260200191505060405180910390f35b341561056157600080fd5b6105696111d1565b604051808263ffffffff1663ffffffff16815260200191505060405180910390f35b341561059657600080fd5b6105b06004808035600019169060200190919050506111e7565b604051808215151515815260200191505060405180910390f35b34156105d557600080fd5b61063f600480803590602001908201803590602001908080601f016020809104026020016040519081016040528093929190818152602001838380828437820191505050505050919080356000191690602001909190803560001916906020019091905050611217565b604051808215151515815260200191505060405180910390f35b341561066457600080fd5b61067e6004808035600019169060200190919050506112cd565b60405180826000191660001916815260200191505060405180910390f35b34156106a757600080fd5b6106c160048080356000191690602001909190505061138a565b005b34156106ce57600080fd5b61070460048080356000191690602001909190803563ffffffff169060200190919080356000191690602001909190505061148e565b604051808215151515815260200191505060405180910390f35b341561072957600080fd5b610755600480803573ffffffffffffffffffffffffffffffffffffffff169060200190919050506114cc565b005b341561076257600080fd5b61078e600480803573ffffffffffffffffffffffffffffffffffffffff16906020019091905050611621565b005b341561079b57600080fd5b6108486004808035600019169060200190919080356000191690602001909190803590602001908201803590602001908080601f0160208091040260200160405190810160405280939291908181526020018383808284378201915050505050509190803590602001908201803590602001908080601f01602080910402602001604051908101604052809392919081815260200183838082843782019150505050505091905050611695565b604051808215151515815260200191505060405180910390f35b600080600160008460001916600019168152602001908152602001600020905060008160000160009054906101000a900473ffffffffffffffffffffffffffffffffffffffff1673ffffffffffffffffffffffffffffffffffffffff161415915050919050565b600080600060016000886000191660001916815260200190815260200160002092506108f6878686610d8e565b915061090786846003015484611217565b151561091257600080fd5b600084121515610996578390508083600201600082825403925050819055508260010160009054906101000a900473ffffffffffffffffffffffffffffffffffffffff1673ffffffffffffffffffffffffffffffffffffffff166108fc829081150290604051600060405180830381858888f19350505050151561099557600080fd5b5b86600019167f9b97616c860c1e16c461695f07750b3ad7cdadc607e0d047ca72cf08a85aea05856040518082815260200191505060405180910390a2600083600201541415610ac357600160008860001916600019168152602001908152602001600020600080820160006101000a81549073ffffffffffffffffffffffffffffffffffffffff02191690556001820160006101000a81549073ffffffffffffffffffffffffffffffffffffffff0219169055600282016000905560038201600090556004820160006101000a81549063ffffffff021916905560058201600090556006820160006101000a81549063ffffffff0219169055505086600019167f6c1b199e41928e006b6cd4e44a0f2ddf85df1e69545eebb0ddbcb3a970ca853c60405160405180910390a25b50505050505050565b600030600260009054906101000a900463ffffffff168484604051808573ffffffffffffffffffffffffffffffffffffffff1673ffffffffffffffffffffffffffffffffffffffff166c010000000000000000000000000281526014018463ffffffff1663ffffffff167c0100000000000000000000000000000000000000000000000000000000028152600401836000191660001916815260200182600019166000191681526020019450505050506040518091039020905092915050565b600080600080600360008154809291906001019190505543016040518082815260200191505060405180910390209350600060010292506000915060e0604051908101604052803373ffffffffffffffffffffffffffffffffffffffff1681526020018773ffffffffffffffffffffffffffffffffffffffff168152602001348152602001846000191681526020018663ffffffff1681526020018381526020018263ffffffff1681525060016000866000191660001916815260200190815260200160002060008201518160000160006101000a81548173ffffffffffffffffffffffffffffffffffffffff021916908373ffffffffffffffffffffffffffffffffffffffff16021790555060208201518160010160006101000a81548173ffffffffffffffffffffffffffffffffffffffff021916908373ffffffffffffffffffffffffffffffffffffffff160217905550604082015181600201556060820151816003019060001916905560808201518160040160006101000a81548163ffffffff021916908363ffffffff16021790555060a0820151816005015560c08201518160060160006101000a81548163ffffffff021916908363ffffffff16021790555090505083600019167f3acaf6c81b0902ff892efc6d8b28af3c95b986755aeddf843449789733f92c5360405160405180910390a2505050505050565b6000600260009054906101000a900463ffffffff16848484604051808563ffffffff1663ffffffff167c010000000000000000000000000000000000000000000000000000000002815260040184600019166000191681526020018360001916600019168152602001828152602001945050505050604051809103902090509392505050565b600080600060016000866000191660001916815260200190815260200160002091508373ffffffffffffffffffffffffffffffffffffffff168260000160009054906101000a900473ffffffffffffffffffffffffffffffffffffffff1673ffffffffffffffffffffffffffffffffffffffff161480610ee357508373ffffffffffffffffffffffffffffffffffffffff168260010160009054906101000a900473ffffffffffffffffffffffffffffffffffffffff1673ffffffffffffffffffffffffffffffffffffffff16145b9050610eee856110f3565b8015610ef75750805b9250505092915050565b60008060008060016000886000191660001916815260200190815260200160002092508473ffffffffffffffffffffffffffffffffffffffff168360000160009054906101000a900473ffffffffffffffffffffffffffffffffffffffff1673ffffffffffffffffffffffffffffffffffffffff161480610fd157508473ffffffffffffffffffffffffffffffffffffffff168360010160009054906101000a900473ffffffffffffffffffffffffffffffffffffffff1673ffffffffffffffffffffffffffffffffffffffff16145b91508260060160009054906101000a900463ffffffff1663ffffffff168663ffffffff16119050611001876111e7565b15801561100b5750815b80156110145750805b93505050509392505050565b6000806001600084600019166000191681526020019081526020016000209050600081600501541415915050919050565b60016020528060005260406000206000915090508060000160009054906101000a900473ffffffffffffffffffffffffffffffffffffffff16908060010160009054906101000a900473ffffffffffffffffffffffffffffffffffffffff16908060020154908060030154908060040160009054906101000a900463ffffffff16908060050154908060060160009054906101000a900463ffffffff16905087565b60006110fe82610862565b8015611110575061110e82611020565b155b9050919050565b6000809054906101000a900473ffffffffffffffffffffffffffffffffffffffff1673ffffffffffffffffffffffffffffffffffffffff163373ffffffffffffffffffffffffffffffffffffffff1614151561117257600080fd5b6000809054906101000a900473ffffffffffffffffffffffffffffffffffffffff1673ffffffffffffffffffffffffffffffffffffffff16ff5b6000809054906101000a900473ffffffffffffffffffffffffffffffffffffffff1681565b600260009054906101000a900463ffffffff1681565b60008060016000846000191660001916815260200190815260200160002090508060050154431015915050919050565b600080600080849150602090505b8651811115156112b65780870151925082600019168260001916101561127a578183604051808360001916600019168152602001826000191660001916815260200192505050604051809103902091506112ab565b8282604051808360001916600019168152602001826000191660001916815260200192505050604051809103902091505b602081019050611225565b856000191682600019161493505050509392505050565b60006112d7611994565b6040805190810160405280601c81526020017f19457468657265756d205369676e6564204d6573736167653a0a333200000000815250905080836040518083805190602001908083835b6020831015156113465780518252602082019150602081019050602083039250611321565b6001836020036101000a0380198251168184511680821785525050505050509050018260001916600019168152602001925050506040518091039020915050919050565b60006113968233610e14565b15156113a157600080fd5b60016000836000191660001916815260200190815260200160002090508060040160009054906101000a900463ffffffff1663ffffffff16430181600501819055508060010160009054906101000a900473ffffffffffffffffffffffffffffffffffffffff1673ffffffffffffffffffffffffffffffffffffffff168160000160009054906101000a900473ffffffffffffffffffffffffffffffffffffffff1673ffffffffffffffffffffffffffffffffffffffff1683600019167f7afa05b56c90e9be1bf71d82631ec67a0171d76eb0c455ff34d8906741a1304860405160405180910390a45050565b60008061149c858533610f01565b15156114a757600080fd5b6001600086600019166000191681526020019081526020016000209050509392505050565b6000809054906101000a900473ffffffffffffffffffffffffffffffffffffffff1673ffffffffffffffffffffffffffffffffffffffff163373ffffffffffffffffffffffffffffffffffffffff1614151561152757600080fd5b600073ffffffffffffffffffffffffffffffffffffffff168173ffffffffffffffffffffffffffffffffffffffff161415151561156357600080fd5b8073ffffffffffffffffffffffffffffffffffffffff166000809054906101000a900473ffffffffffffffffffffffffffffffffffffffff1673ffffffffffffffffffffffffffffffffffffffff167f8be0079c531659141344cd1fd0a4f28419497f9722a3daafe3b4186f6b6457e060405160405180910390a3806000806101000a81548173ffffffffffffffffffffffffffffffffffffffff021916908373ffffffffffffffffffffffffffffffffffffffff16021790555050565b6000809054906101000a900473ffffffffffffffffffffffffffffffffffffffff1673ffffffffffffffffffffffffffffffffffffffff163373ffffffffffffffffffffffffffffffffffffffff1614151561167c57600080fd5b8073ffffffffffffffffffffffffffffffffffffffff16ff5b6000806000806000600160008a6000191660001916815260200190815260200160002093506116cc6116c78a8a610acc565b6112cd565b925073__ECRecovery____________________________6319045a2584896000604051602001526040518363ffffffff167c010000000000000000000000000000000000000000000000000000000002815260040180836000191660001916815260200180602001828103825283818151815260200191508051906020019080838360005b8381101561176c578082015181840152602081019050611751565b50505050905090810190601f1680156117995780820380516001836020036101000a031916815260200191505b50935050505060206040518083038186803b15156117b657600080fd5b6102c65a03f415156117c757600080fd5b5050506040518051905073ffffffffffffffffffffffffffffffffffffffff168460000160009054906101000a900473ffffffffffffffffffffffffffffffffffffffff1673ffffffffffffffffffffffffffffffffffffffff1614915073__ECRecovery____________________________6319045a2584886000604051602001526040518363ffffffff167c010000000000000000000000000000000000000000000000000000000002815260040180836000191660001916815260200180602001828103825283818151815260200191508051906020019080838360005b838110156118c35780820151818401526020810190506118a8565b50505050905090810190601f1680156118f05780820380516001836020036101000a031916815260200191505b50935050505060206040518083038186803b151561190d57600080fd5b6102c65a03f4151561191e57600080fd5b5050506040518051905073ffffffffffffffffffffffffffffffffffffffff168460010160009054906101000a900473ffffffffffffffffffffffffffffffffffffffff1673ffffffffffffffffffffffffffffffffffffffff161490508180156119865750805b945050505050949350505050565b6020604051908101604052806000815250905600a165627a7a72305820e3771dea030576a344f2a3d0a0c191262bbab44b314cbfc8d2f82cc30fc518580029",
  "source": "pragma solidity ^0.4.18;\n\nimport \"zeppelin-solidity/contracts/lifecycle/Destructible.sol\";\nimport \"zeppelin-solidity/contracts/math/SafeMath.sol\";\nimport \"zeppelin-solidity/contracts/ECRecovery.sol\";\n\n\ncontract BBroker is Destructible {\n    using SafeMath for uint256;\n\n    struct PaymentChannel {\n        address sender;\n        address receiver;\n        uint256 value;\n\n        bytes32 merkleRoot;\n\n        uint32 settlingPeriod;\n        uint256 settlingUntil;\n\n        uint32 nonce;\n    }\n\n    mapping (bytes32 => PaymentChannel) public channels;\n\n    uint32 public chainId;\n    uint256 id;\n\n    event DidOpen(bytes32 indexed channelId);\n    event DidStartSettling(bytes32 indexed channelId, address indexed sender, address indexed receiver);\n    event DidWithdraw(bytes32 indexed channelId, int256 amount);\n    event DidClose(bytes32 indexed channelId);\n\n    function BBroker(uint32 _chainId) public {\n        chainId = _chainId;\n        id = 0;\n    }\n\n    function open(address receiver, uint32 settlingPeriod) public payable {\n        bytes32 channelId = keccak256(block.number + id++);\n        bytes32 merkleRoot = 0;\n        uint256 settlingUntil = 0;\n        uint32 nonce;\n        channels[channelId] = PaymentChannel(\n            msg.sender,\n            receiver,\n            msg.value,\n            merkleRoot,\n            settlingPeriod,\n            settlingUntil,\n            nonce\n        );\n        DidOpen(channelId);\n    }\n\n    function canStartSettling(bytes32 channelId, address origin) public view returns(bool) {\n        var channel = channels[channelId];\n        bool isParty = (channel.sender == origin) || (channel.receiver == origin);\n        return isOpen(channelId) && isParty;\n    }\n\n    function startSettling(bytes32 channelId) public {\n        require(canStartSettling(channelId, msg.sender));\n\n        var channel = channels[channelId];\n        channel.settlingUntil = block.number + channel.settlingPeriod;\n\n        DidStartSettling(channelId, channel.sender, channel.receiver);\n    }\n\n    function canUpdate(bytes32 channelId, uint32 nonce, address origin) public view returns(bool) {\n        var channel = channels[channelId];\n        bool isParty = (channel.sender == origin) || (channel.receiver == origin);\n        bool isHigherNonce = nonce > channel.nonce;\n        return !isSettled(channelId) && isParty && isHigherNonce;\n    }\n\n    function update(bytes32 channelId, uint32 nonce, bytes32 merkleRoot) public view returns(bool) {\n        require(canUpdate(channelId, nonce, msg.sender));\n\n        var channel = channels[channelId];\n    }\n\n//    function canStartSettling(bytes32 channelId, bytes32 merkleRoot, bytes senderSig, bytes receiverSig) public view returns(bool) {\n//        return isOpen(channelId) && isSignedPayment(channelId, merkleRoot, senderSig, receiverSig);\n//    }\n//\n//    function startSettling(bytes32 channelId, bytes32 merkleRoot, bytes senderSig, bytes receiverSig) public {\n//        require(canStartSettling(channelId, merkleRoot, senderSig, receiverSig));\n//        var channel = channels[channelId];\n//\n//        channel.merkleRoot = merkleRoot;\n//        channel.settlingUntil = block.number + channel.settlingPeriod;\n//\n//        DidStartSettling(channelId);\n//    }\n\n    function withdraw(bytes32 channelId, bytes proof, bytes32 preimage, int256 amount) public {\n        var channel = channels[channelId];\n        var hashlock = toHashlock(channelId, preimage, amount);\n        require(checkProof(proof, channel.merkleRoot, hashlock));\n\n        if (amount >= 0) {\n            var payment = uint256(amount);\n            channel.value -= payment;\n            require(channel.receiver.send(payment));\n        }\n\n        DidWithdraw(channelId, amount);\n\n        if (channel.value == 0) {\n            delete channels[channelId];\n            DidClose(channelId);\n        }\n    }\n\n    /** Digest **/\n    function isSignedPayment(bytes32 channelId, bytes32 merkleRoot, bytes senderSig, bytes receiverSig) public view returns(bool) {\n        var channel = channels[channelId];\n        var digest = signatureDigest(paymentDigest(channelId, merkleRoot));\n        bool isSignedBySender = channel.sender == ECRecovery.recover(digest, senderSig);\n        bool isSignedByReceiver = channel.receiver == ECRecovery.recover(digest, receiverSig);\n        return isSignedBySender && isSignedByReceiver;\n    }\n\n    function paymentDigest(bytes32 channelId, bytes32 merkleRoot) public view returns(bytes32) {\n        return keccak256(address(this), chainId, channelId, merkleRoot);\n    }\n\n    function signatureDigest(bytes32 digest) public pure returns(bytes32) {\n        bytes memory prefix = \"\\x19Ethereum Signed Message:\\n32\";\n        return keccak256(prefix, digest);\n    }\n\n    /** Hashlocks and Merkle Trees **/\n\n    function toHashlock(bytes32 channelId, bytes32 preimage, int256 amount) public view returns (bytes32) {\n        return keccak256(chainId, channelId, preimage, amount);\n    }\n\n    function checkProof(bytes proof, bytes32 merkleRoot, bytes32 hashlock) public pure returns (bool) {\n        bytes32 proofElement;\n        bytes32 cursor = hashlock;\n\n        for (uint256 i = 32; i <= proof.length; i += 32) {\n            assembly { proofElement := mload(add(proof, i)) }\n\n            if (cursor < proofElement) {\n                cursor = keccak256(cursor, proofElement);\n            } else {\n                cursor = keccak256(proofElement, cursor);\n            }\n        }\n\n        return cursor == merkleRoot;\n    }\n\n    /** Channel State **/\n    function isPresent(bytes32 channelId) public view returns(bool) {\n        var channel = channels[channelId];\n        return channel.sender != 0;\n    }\n\n    function isSettling(bytes32 channelId) public view returns(bool) {\n        var channel = channels[channelId];\n        return channel.settlingUntil != 0;\n    }\n\n    function isSettled(bytes32 channelId) public view returns(bool) {\n        var channel = channels[channelId];\n        return block.number >= channel.settlingUntil;\n    }\n\n    function isOpen(bytes32 channelId) public view returns(bool) {\n        return isPresent(channelId) && !isSettling(channelId);\n    }\n}\n",
  "sourcePath": "/Users/ukstv/Documents/Pro/Machinomy/machinomy-contracts/contracts/BBroker.sol",
  "compiler": {
    "name": "solc",
    "version": "0.4.18+commit.9cf6e910.Emscripten.clang"
  },
  "schemaVersion": "1.0.1",
  "updatedAt": "2017-12-28T00:36:25.979Z"
}