{
  "contractName": "BBroker",
  "abi": [
    {
      "constant": true,
      "inputs": [
        {
          "name": "channelId",
          "type": "bytes32"
        }
      ],
      "name": "isPresent",
      "outputs": [
        {
          "name": "",
          "type": "bool"
        }
      ],
      "payable": false,
      "stateMutability": "view",
      "type": "function"
    },
    {
      "constant": false,
      "inputs": [
        {
          "name": "channelId",
          "type": "bytes32"
        },
        {
          "name": "proof",
          "type": "bytes"
        },
        {
          "name": "preimage",
          "type": "bytes32"
        },
        {
          "name": "amount",
          "type": "int256"
        }
      ],
      "name": "withdraw",
      "outputs": [],
      "payable": false,
      "stateMutability": "nonpayable",
      "type": "function"
    },
    {
      "constant": true,
      "inputs": [
        {
          "name": "channelId",
          "type": "bytes32"
        },
        {
          "name": "preimage",
          "type": "bytes32"
        },
        {
          "name": "amount",
          "type": "int256"
        }
      ],
      "name": "toHashlock",
      "outputs": [
        {
          "name": "",
          "type": "bytes32"
        }
      ],
      "payable": false,
      "stateMutability": "view",
      "type": "function"
    },
    {
      "constant": true,
      "inputs": [
        {
          "name": "",
          "type": "bytes32"
        }
      ],
      "name": "channels",
      "outputs": [
        {
          "name": "sender",
          "type": "address"
        },
        {
          "name": "receiver",
          "type": "address"
        },
        {
          "name": "value",
          "type": "uint256"
        },
        {
          "name": "root",
          "type": "bytes32"
        }
      ],
      "payable": false,
      "stateMutability": "view",
      "type": "function"
    },
    {
      "constant": false,
      "inputs": [],
      "name": "destroy",
      "outputs": [],
      "payable": false,
      "stateMutability": "nonpayable",
      "type": "function"
    },
    {
      "constant": true,
      "inputs": [],
      "name": "owner",
      "outputs": [
        {
          "name": "",
          "type": "address"
        }
      ],
      "payable": false,
      "stateMutability": "view",
      "type": "function"
    },
    {
      "constant": true,
      "inputs": [],
      "name": "chainId",
      "outputs": [
        {
          "name": "",
          "type": "uint32"
        }
      ],
      "payable": false,
      "stateMutability": "view",
      "type": "function"
    },
    {
      "constant": false,
      "inputs": [
        {
          "name": "channelId",
          "type": "bytes32"
        },
        {
          "name": "root",
          "type": "bytes32"
        },
        {
          "name": "senderSig",
          "type": "bytes"
        },
        {
          "name": "receiverSig",
          "type": "bytes"
        }
      ],
      "name": "startSettling",
      "outputs": [],
      "payable": false,
      "stateMutability": "nonpayable",
      "type": "function"
    },
    {
      "constant": false,
      "inputs": [
        {
          "name": "receiver",
          "type": "address"
        }
      ],
      "name": "open",
      "outputs": [],
      "payable": true,
      "stateMutability": "payable",
      "type": "function"
    },
    {
      "constant": true,
      "inputs": [
        {
          "name": "proof",
          "type": "bytes"
        },
        {
          "name": "root",
          "type": "bytes32"
        },
        {
          "name": "hashlock",
          "type": "bytes32"
        }
      ],
      "name": "checkProof",
      "outputs": [
        {
          "name": "",
          "type": "bool"
        }
      ],
      "payable": false,
      "stateMutability": "pure",
      "type": "function"
    },
    {
      "constant": false,
      "inputs": [
        {
          "name": "newOwner",
          "type": "address"
        }
      ],
      "name": "transferOwnership",
      "outputs": [],
      "payable": false,
      "stateMutability": "nonpayable",
      "type": "function"
    },
    {
      "constant": false,
      "inputs": [
        {
          "name": "_recipient",
          "type": "address"
        }
      ],
      "name": "destroyAndSend",
      "outputs": [],
      "payable": false,
      "stateMutability": "nonpayable",
      "type": "function"
    },
    {
      "inputs": [
        {
          "name": "_chainId",
          "type": "uint32"
        }
      ],
      "payable": false,
      "stateMutability": "nonpayable",
      "type": "constructor"
    },
    {
      "anonymous": false,
      "inputs": [
        {
          "indexed": true,
          "name": "channelId",
          "type": "bytes32"
        }
      ],
      "name": "DidOpen",
      "type": "event"
    },
    {
      "anonymous": false,
      "inputs": [
        {
          "indexed": true,
          "name": "channelId",
          "type": "bytes32"
        }
      ],
      "name": "DidStartSettling",
      "type": "event"
    },
    {
      "anonymous": false,
      "inputs": [
        {
          "indexed": true,
          "name": "channelId",
          "type": "bytes32"
        },
        {
          "indexed": false,
          "name": "amount",
          "type": "int256"
        }
      ],
      "name": "DidWithdraw",
      "type": "event"
    },
    {
      "anonymous": false,
      "inputs": [
        {
          "indexed": true,
          "name": "channelId",
          "type": "bytes32"
        }
      ],
      "name": "DidClose",
      "type": "event"
    },
    {
      "anonymous": false,
      "inputs": [
        {
          "indexed": true,
          "name": "previousOwner",
          "type": "address"
        },
        {
          "indexed": true,
          "name": "newOwner",
          "type": "address"
        }
      ],
      "name": "OwnershipTransferred",
      "type": "event"
    }
  ],
  "bytecode": "0x6060604052341561000f57600080fd5b604051602080610e1e83398101604052808051906020019091905050336000806101000a81548173ffffffffffffffffffffffffffffffffffffffff021916908373ffffffffffffffffffffffffffffffffffffffff16021790555080600260006101000a81548163ffffffff021916908363ffffffff160217905550600060038190555050610d7a806100a46000396000f3006060604052600436106100b9576000357c0100000000000000000000000000000000000000000000000000000000900463ffffffff168062f31e76146100be57806309a777af146100fd5780633f3bd9ef1461017d5780637a7ebd7b146101d657806383197ef0146102865780638da5cb5b1461029b5780639a8a0592146102f0578063a406c67014610325578063b95460f8146103df578063bf0af1ba1461040d578063f2fde38b1461049c578063f5074f41146104d5575b600080fd5b34156100c957600080fd5b6100e360048080356000191690602001909190505061050e565b604051808215151515815260200191505060405180910390f35b341561010857600080fd5b61017b60048080356000191690602001909190803590602001908201803590602001908080601f0160208091040260200160405190810160405280939291908181526020018383808284378201915050505050509190803560001916906020019091908035906020019091905050610575565b005b341561018857600080fd5b6101b860048080356000191690602001909190803560001916906020019091908035906020019091905050610728565b60405180826000191660001916815260200191505060405180910390f35b34156101e157600080fd5b6101fb6004808035600019169060200190919050506107ae565b604051808573ffffffffffffffffffffffffffffffffffffffff1673ffffffffffffffffffffffffffffffffffffffff1681526020018473ffffffffffffffffffffffffffffffffffffffff1673ffffffffffffffffffffffffffffffffffffffff168152602001838152602001826000191660001916815260200194505050505060405180910390f35b341561029157600080fd5b61029961081e565b005b34156102a657600080fd5b6102ae6108b3565b604051808273ffffffffffffffffffffffffffffffffffffffff1673ffffffffffffffffffffffffffffffffffffffff16815260200191505060405180910390f35b34156102fb57600080fd5b6103036108d8565b604051808263ffffffff1663ffffffff16815260200191505060405180910390f35b341561033057600080fd5b6103dd6004808035600019169060200190919080356000191690602001909190803590602001908201803590602001908080601f0160208091040260200160405190810160405280939291908181526020018383808284378201915050505050509190803590602001908201803590602001908080601f016020809104026020016040519081016040528093929190818152602001838380828437820191505050505050919050506108ee565b005b61040b600480803573ffffffffffffffffffffffffffffffffffffffff16906020019091905050610952565b005b341561041857600080fd5b610482600480803590602001908201803590602001908080601f016020809104026020016040519081016040528093929190818152602001838380828437820191505050505050919080356000191690602001909190803560001916906020019091905050610acf565b604051808215151515815260200191505060405180910390f35b34156104a757600080fd5b6104d3600480803573ffffffffffffffffffffffffffffffffffffffff16906020019091905050610b85565b005b34156104e057600080fd5b61050c600480803573ffffffffffffffffffffffffffffffffffffffff16906020019091905050610cda565b005b600080600160008460001916600019168152602001908152602001600020905060008160000160009054906101000a900473ffffffffffffffffffffffffffffffffffffffff1673ffffffffffffffffffffffffffffffffffffffff161415915050919050565b600080600060016000886000191660001916815260200190815260200160002092506105a2878686610728565b9150600084121515610628578390508083600201600082825403925050819055508260010160009054906101000a900473ffffffffffffffffffffffffffffffffffffffff1673ffffffffffffffffffffffffffffffffffffffff166108fc829081150290604051600060405180830381858888f19350505050151561062757600080fd5b5b86600019167f9b97616c860c1e16c461695f07750b3ad7cdadc607e0d047ca72cf08a85aea05856040518082815260200191505060405180910390a260008360020154141561071f57600160008860001916600019168152602001908152602001600020600080820160006101000a81549073ffffffffffffffffffffffffffffffffffffffff02191690556001820160006101000a81549073ffffffffffffffffffffffffffffffffffffffff021916905560028201600090556003820160009055505086600019167f6c1b199e41928e006b6cd4e44a0f2ddf85df1e69545eebb0ddbcb3a970ca853c60405160405180910390a25b50505050505050565b6000600260009054906101000a900463ffffffff16848484604051808563ffffffff1663ffffffff167c010000000000000000000000000000000000000000000000000000000002815260040184600019166000191681526020018360001916600019168152602001828152602001945050505050604051809103902090509392505050565b60016020528060005260406000206000915090508060000160009054906101000a900473ffffffffffffffffffffffffffffffffffffffff16908060010160009054906101000a900473ffffffffffffffffffffffffffffffffffffffff16908060020154908060030154905084565b6000809054906101000a900473ffffffffffffffffffffffffffffffffffffffff1673ffffffffffffffffffffffffffffffffffffffff163373ffffffffffffffffffffffffffffffffffffffff1614151561087957600080fd5b6000809054906101000a900473ffffffffffffffffffffffffffffffffffffffff1673ffffffffffffffffffffffffffffffffffffffff16ff5b6000809054906101000a900473ffffffffffffffffffffffffffffffffffffffff1681565b600260009054906101000a900463ffffffff1681565b600060016000866000191660001916815260200190815260200160002090508381600301816000191690555084600019167fd6461a3a92fd600fe23f236b2e25c2fd0c197a66b2f990989f0b210d578f461760405160405180910390a25050505050565b60006003600081548092919060010191905055430160405180828152602001915050604051809103902090506080604051908101604052803373ffffffffffffffffffffffffffffffffffffffff1681526020018373ffffffffffffffffffffffffffffffffffffffff16815260200134815260200160006001026000191681525060016000836000191660001916815260200190815260200160002060008201518160000160006101000a81548173ffffffffffffffffffffffffffffffffffffffff021916908373ffffffffffffffffffffffffffffffffffffffff16021790555060208201518160010160006101000a81548173ffffffffffffffffffffffffffffffffffffffff021916908373ffffffffffffffffffffffffffffffffffffffff160217905550604082015181600201556060820151816003019060001916905590505080600019167f3acaf6c81b0902ff892efc6d8b28af3c95b986755aeddf843449789733f92c5360405160405180910390a25050565b600080600080849150602090505b865181111515610b6e57808701519250826000191682600019161015610b3257818360405180836000191660001916815260200182600019166000191681526020019250505060405180910390209150610b63565b8282604051808360001916600019168152602001826000191660001916815260200192505050604051809103902091505b602081019050610add565b856000191682600019161493505050509392505050565b6000809054906101000a900473ffffffffffffffffffffffffffffffffffffffff1673ffffffffffffffffffffffffffffffffffffffff163373ffffffffffffffffffffffffffffffffffffffff16141515610be057600080fd5b600073ffffffffffffffffffffffffffffffffffffffff168173ffffffffffffffffffffffffffffffffffffffff1614151515610c1c57600080fd5b8073ffffffffffffffffffffffffffffffffffffffff166000809054906101000a900473ffffffffffffffffffffffffffffffffffffffff1673ffffffffffffffffffffffffffffffffffffffff167f8be0079c531659141344cd1fd0a4f28419497f9722a3daafe3b4186f6b6457e060405160405180910390a3806000806101000a81548173ffffffffffffffffffffffffffffffffffffffff021916908373ffffffffffffffffffffffffffffffffffffffff16021790555050565b6000809054906101000a900473ffffffffffffffffffffffffffffffffffffffff1673ffffffffffffffffffffffffffffffffffffffff163373ffffffffffffffffffffffffffffffffffffffff16141515610d3557600080fd5b8073ffffffffffffffffffffffffffffffffffffffff16ff00a165627a7a7230582004de6233aa49628edcb27b870b443c576e83672ebbc35227096db45e1bc028610029",
  "source": "pragma solidity ^0.4.18;\n\nimport \"zeppelin-solidity/contracts/lifecycle/Destructible.sol\";\nimport \"zeppelin-solidity/contracts/math/SafeMath.sol\";\nimport \"zeppelin-solidity/contracts/ECRecovery.sol\";\n\n\ncontract BBroker is Destructible {\n    using SafeMath for uint256;\n\n    struct PaymentChannel {\n        address sender;\n        address receiver;\n        uint256 value;\n\n        bytes32 root;\n    }\n\n    mapping (bytes32 => PaymentChannel) public channels;\n\n    uint32 public chainId;\n    uint256 id;\n\n    event DidOpen(bytes32 indexed channelId);\n    event DidStartSettling(bytes32 indexed channelId);\n    event DidWithdraw(bytes32 indexed channelId, int256 amount);\n    event DidClose(bytes32 indexed channelId);\n\n    function BBroker(uint32 _chainId) public {\n        chainId = _chainId;\n        id = 0;\n    }\n\n    function open(address receiver) public payable {\n        var channelId = keccak256(block.number + id++);\n        channels[channelId] = PaymentChannel(\n            msg.sender,\n            receiver,\n            msg.value,\n            0\n        );\n        DidOpen(channelId);\n    }\n\n    function startSettling(bytes32 channelId, bytes32 root, bytes senderSig, bytes receiverSig) public {\n        var channel = channels[channelId];\n        channel.root = root;\n        DidStartSettling(channelId);\n    }\n\n    function withdraw(bytes32 channelId, bytes proof, bytes32 preimage, int256 amount) public {\n        var channel = channels[channelId];\n        var hashlock = toHashlock(channelId, preimage, amount);\n        //var isOk = checkProof(proof, channel.root, hashlock);\n        if (amount >= 0) {\n            var payment = uint256(amount);\n            channel.value -= payment;\n            require(channel.receiver.send(payment));\n        }\n\n        DidWithdraw(channelId, amount);\n\n        if (channel.value == 0) {\n            delete channels[channelId];\n            DidClose(channelId);\n        }\n    }\n\n    /** Hashlocks and Merkle Trees **/\n\n    function toHashlock(bytes32 channelId, bytes32 preimage, int256 amount) public view returns (bytes32) {\n        return keccak256(chainId, channelId, preimage, amount);\n    }\n\n    function checkProof(bytes proof, bytes32 root, bytes32 hashlock) public pure returns (bool) {\n        bytes32 proofElement;\n        bytes32 cursor = hashlock;\n\n        for (uint256 i = 32; i <= proof.length; i += 32) {\n            assembly { proofElement := mload(add(proof, i)) }\n\n            if (cursor < proofElement) {\n                cursor = keccak256(cursor, proofElement);\n            } else {\n                cursor = keccak256(proofElement, cursor);\n            }\n        }\n\n        return cursor == root;\n    }\n\n    /** Channel State **/\n    function isPresent(bytes32 channelId) public view returns(bool) {\n        var channel = channels[channelId];\n        return channel.sender != 0;\n    }\n}\n",
  "sourcePath": "/Users/ukstv/Documents/Pro/Machinomy/machinomy-contracts/contracts/BBroker.sol",
  "compiler": {
    "name": "solc",
    "version": "0.4.18+commit.9cf6e910.Emscripten.clang"
  },
  "schemaVersion": "1.0.1",
  "updatedAt": "2017-12-27T10:20:33.476Z"
}