{
  "contractName": "BidiBroker",
  "abi": [
    {
      "constant": true,
      "inputs": [
        {
          "name": "",
          "type": "bytes32"
        }
      ],
      "name": "settlements",
      "outputs": [
        {
          "name": "channelId",
          "type": "bytes32"
        },
        {
          "name": "paymentId",
          "type": "uint64"
        },
        {
          "name": "toSender",
          "type": "uint256"
        },
        {
          "name": "toReceiver",
          "type": "uint256"
        }
      ],
      "payable": false,
      "stateMutability": "view",
      "type": "function"
    },
    {
      "constant": false,
      "inputs": [
        {
          "name": "_chainId",
          "type": "uint32"
        }
      ],
      "name": "Broker",
      "outputs": [],
      "payable": false,
      "stateMutability": "nonpayable",
      "type": "function"
    },
    {
      "constant": true,
      "inputs": [
        {
          "name": "",
          "type": "bytes32"
        }
      ],
      "name": "channels",
      "outputs": [
        {
          "name": "sender",
          "type": "address"
        },
        {
          "name": "receiver",
          "type": "address"
        },
        {
          "name": "senderDeposit",
          "type": "uint256"
        },
        {
          "name": "receiverDeposit",
          "type": "uint256"
        },
        {
          "name": "settlementPeriod",
          "type": "uint256"
        },
        {
          "name": "validUntil",
          "type": "uint256"
        },
        {
          "name": "state",
          "type": "uint8"
        }
      ],
      "payable": false,
      "stateMutability": "view",
      "type": "function"
    },
    {
      "constant": false,
      "inputs": [],
      "name": "destroy",
      "outputs": [],
      "payable": false,
      "stateMutability": "nonpayable",
      "type": "function"
    },
    {
      "constant": true,
      "inputs": [],
      "name": "owner",
      "outputs": [
        {
          "name": "",
          "type": "address"
        }
      ],
      "payable": false,
      "stateMutability": "view",
      "type": "function"
    },
    {
      "constant": false,
      "inputs": [
        {
          "name": "newOwner",
          "type": "address"
        }
      ],
      "name": "transferOwnership",
      "outputs": [],
      "payable": false,
      "stateMutability": "nonpayable",
      "type": "function"
    },
    {
      "constant": false,
      "inputs": [
        {
          "name": "_recipient",
          "type": "address"
        }
      ],
      "name": "destroyAndSend",
      "outputs": [],
      "payable": false,
      "stateMutability": "nonpayable",
      "type": "function"
    },
    {
      "anonymous": false,
      "inputs": [
        {
          "indexed": false,
          "name": "channelId",
          "type": "bytes32"
        }
      ],
      "name": "DidCreateChannel",
      "type": "event"
    }
  ],
  "bytecode": "0x6060604052336000806101000a81548173ffffffffffffffffffffffffffffffffffffffff021916908373ffffffffffffffffffffffffffffffffffffffff1602179055506105f2806100536000396000f300606060405260043610610083576000357c0100000000000000000000000000000000000000000000000000000000900463ffffffff16806301bc95e2146100885780637a3fc6dc146100f45780637a7ebd7b1461011d57806383197ef0146101e85780638da5cb5b146101fd578063f2fde38b14610252578063f5074f411461028b575b600080fd5b341561009357600080fd5b6100ad6004808035600019169060200190919050506102c4565b6040518085600019166000191681526020018467ffffffffffffffff1667ffffffffffffffff16815260200183815260200182815260200194505050505060405180910390f35b34156100ff57600080fd5b61011b600480803563ffffffff16906020019091905050610308565b005b341561012857600080fd5b610142600480803560001916906020019091905050610334565b604051808873ffffffffffffffffffffffffffffffffffffffff1673ffffffffffffffffffffffffffffffffffffffff1681526020018773ffffffffffffffffffffffffffffffffffffffff1673ffffffffffffffffffffffffffffffffffffffff1681526020018681526020018581526020018481526020018381526020018260028111156101ce57fe5b60ff16815260200197505050505050505060405180910390f35b34156101f357600080fd5b6101fb6103c3565b005b341561020857600080fd5b610210610458565b604051808273ffffffffffffffffffffffffffffffffffffffff1673ffffffffffffffffffffffffffffffffffffffff16815260200191505060405180910390f35b341561025d57600080fd5b610289600480803573ffffffffffffffffffffffffffffffffffffffff1690602001909190505061047d565b005b341561029657600080fd5b6102c2600480803573ffffffffffffffffffffffffffffffffffffffff16906020019091905050610552565b005b60026020528060005260406000206000915090508060000154908060010160009054906101000a900467ffffffffffffffff16908060020154908060030154905084565b80600360006101000a81548163ffffffff021916908363ffffffff160217905550600060048190555050565b60016020528060005260406000206000915090508060000160009054906101000a900473ffffffffffffffffffffffffffffffffffffffff16908060010160009054906101000a900473ffffffffffffffffffffffffffffffffffffffff16908060020154908060030154908060040154908060050154908060060160009054906101000a900460ff16905087565b6000809054906101000a900473ffffffffffffffffffffffffffffffffffffffff1673ffffffffffffffffffffffffffffffffffffffff163373ffffffffffffffffffffffffffffffffffffffff1614151561041e57600080fd5b6000809054906101000a900473ffffffffffffffffffffffffffffffffffffffff1673ffffffffffffffffffffffffffffffffffffffff16ff5b6000809054906101000a900473ffffffffffffffffffffffffffffffffffffffff1681565b6000809054906101000a900473ffffffffffffffffffffffffffffffffffffffff1673ffffffffffffffffffffffffffffffffffffffff163373ffffffffffffffffffffffffffffffffffffffff161415156104d857600080fd5b600073ffffffffffffffffffffffffffffffffffffffff168173ffffffffffffffffffffffffffffffffffffffff1614151561054f57806000806101000a81548173ffffffffffffffffffffffffffffffffffffffff021916908373ffffffffffffffffffffffffffffffffffffffff1602179055505b50565b6000809054906101000a900473ffffffffffffffffffffffffffffffffffffffff1673ffffffffffffffffffffffffffffffffffffffff163373ffffffffffffffffffffffffffffffffffffffff161415156105ad57600080fd5b8073ffffffffffffffffffffffffffffffffffffffff16ff00a165627a7a723058205cf181ccfc0abc66cf7d0744276b1cda1770645a104806008d832d5ce77a36fa0029",
  "source": "pragma solidity ^0.4.11;\n\nimport \"zeppelin-solidity/contracts/lifecycle/Destructible.sol\";\n\n\ncontract BidiBroker is Destructible {\n    enum ChannelState { Open, Settling, Settled }\n\n    struct Settlement {\n        bytes32 channelId;\n        uint64 paymentId;\n        uint256 toSender;\n        uint256 toReceiver;\n    }\n\n    struct PaymentChannel {\n        address sender;\n        address receiver;\n        uint256 senderDeposit;\n        uint256 receiverDeposit;\n\n        uint256 settlementPeriod;\n        uint256 validUntil;\n\n        ChannelState state;\n    }\n\n    mapping(bytes32 => PaymentChannel) public channels;\n    mapping(bytes32 => Settlement) public settlements;\n\n    uint32 chainId;\n    uint256 id;\n\n    event DidCreateChannel(bytes32 channelId);\n\n    function Broker(uint32 _chainId) public {\n        chainId = _chainId;\n        id = 0;\n    }\n}\n",
  "sourcePath": "/Users/ukstv/Documents/Pro/Machinomy/machinomy-contracts/contracts/BidiBroker.sol",
  "compiler": {
    "name": "solc",
    "version": "0.4.18+commit.9cf6e910.Emscripten.clang"
  },
  "schemaVersion": "1.0.1",
  "updatedAt": "2017-12-18T13:36:04.639Z"
}