{
  "contractName": "BidiBroker",
  "abi": [
    {
      "constant": true,
      "inputs": [
        {
          "name": "",
          "type": "bytes32"
        }
      ],
      "name": "settlements",
      "outputs": [
        {
          "name": "channelId",
          "type": "bytes32"
        },
        {
          "name": "paymentId",
          "type": "uint64"
        },
        {
          "name": "toSender",
          "type": "uint256"
        },
        {
          "name": "toReceiver",
          "type": "uint256"
        }
      ],
      "payable": false,
      "stateMutability": "view",
      "type": "function"
    },
    {
      "constant": true,
      "inputs": [
        {
          "name": "",
          "type": "bytes32"
        }
      ],
      "name": "channels",
      "outputs": [
        {
          "name": "sender",
          "type": "address"
        },
        {
          "name": "receiver",
          "type": "address"
        },
        {
          "name": "senderDeposit",
          "type": "uint256"
        },
        {
          "name": "receiverDeposit",
          "type": "uint256"
        },
        {
          "name": "settlementPeriod",
          "type": "uint256"
        },
        {
          "name": "validUntil",
          "type": "uint256"
        },
        {
          "name": "state",
          "type": "uint8"
        }
      ],
      "payable": false,
      "stateMutability": "view",
      "type": "function"
    },
    {
      "constant": false,
      "inputs": [],
      "name": "destroy",
      "outputs": [],
      "payable": false,
      "stateMutability": "nonpayable",
      "type": "function"
    },
    {
      "constant": true,
      "inputs": [],
      "name": "owner",
      "outputs": [
        {
          "name": "",
          "type": "address"
        }
      ],
      "payable": false,
      "stateMutability": "view",
      "type": "function"
    },
    {
      "constant": false,
      "inputs": [
        {
          "name": "receiver",
          "type": "address"
        },
        {
          "name": "duration",
          "type": "uint32"
        },
        {
          "name": "settlementPeriod",
          "type": "uint32"
        }
      ],
      "name": "createChannel",
      "outputs": [
        {
          "name": "",
          "type": "bytes32"
        }
      ],
      "payable": true,
      "stateMutability": "payable",
      "type": "function"
    },
    {
      "constant": false,
      "inputs": [
        {
          "name": "channelId",
          "type": "bytes32"
        }
      ],
      "name": "deposit",
      "outputs": [],
      "payable": true,
      "stateMutability": "payable",
      "type": "function"
    },
    {
      "constant": true,
      "inputs": [
        {
          "name": "sender",
          "type": "address"
        },
        {
          "name": "channelId",
          "type": "bytes32"
        }
      ],
      "name": "canDeposit",
      "outputs": [
        {
          "name": "",
          "type": "bool"
        }
      ],
      "payable": false,
      "stateMutability": "view",
      "type": "function"
    },
    {
      "constant": false,
      "inputs": [
        {
          "name": "newOwner",
          "type": "address"
        }
      ],
      "name": "transferOwnership",
      "outputs": [],
      "payable": false,
      "stateMutability": "nonpayable",
      "type": "function"
    },
    {
      "constant": false,
      "inputs": [
        {
          "name": "_recipient",
          "type": "address"
        }
      ],
      "name": "destroyAndSend",
      "outputs": [],
      "payable": false,
      "stateMutability": "nonpayable",
      "type": "function"
    },
    {
      "inputs": [
        {
          "name": "_chainId",
          "type": "uint32"
        }
      ],
      "payable": false,
      "stateMutability": "nonpayable",
      "type": "constructor"
    },
    {
      "anonymous": false,
      "inputs": [
        {
          "indexed": true,
          "name": "channelId",
          "type": "bytes32"
        }
      ],
      "name": "DidCreateChannel",
      "type": "event"
    },
    {
      "anonymous": false,
      "inputs": [
        {
          "indexed": true,
          "name": "channelId",
          "type": "bytes32"
        }
      ],
      "name": "DidDeposit",
      "type": "event"
    }
  ],
  "bytecode": "0x6060604052341561000f57600080fd5b604051602080610b6d83398101604052808051906020019091905050336000806101000a81548173ffffffffffffffffffffffffffffffffffffffff021916908373ffffffffffffffffffffffffffffffffffffffff16021790555080600360006101000a81548163ffffffff021916908363ffffffff160217905550600060048190555050610ac9806100a46000396000f300606060405260043610610099576000357c0100000000000000000000000000000000000000000000000000000000900463ffffffff16806301bc95e21461009e5780637a7ebd7b1461010a57806383197ef0146101d55780638da5cb5b146101ea578063a4b5e0c91461023f578063b214faa5146102a7578063e20bff5c146102c3578063f2fde38b14610321578063f5074f411461035a575b600080fd5b34156100a957600080fd5b6100c3600480803560001916906020019091905050610393565b6040518085600019166000191681526020018467ffffffffffffffff1667ffffffffffffffff16815260200183815260200182815260200194505050505060405180910390f35b341561011557600080fd5b61012f6004808035600019169060200190919050506103d7565b604051808873ffffffffffffffffffffffffffffffffffffffff1673ffffffffffffffffffffffffffffffffffffffff1681526020018773ffffffffffffffffffffffffffffffffffffffff1673ffffffffffffffffffffffffffffffffffffffff1681526020018681526020018581526020018481526020018381526020018260028111156101bb57fe5b60ff16815260200197505050505050505060405180910390f35b34156101e057600080fd5b6101e8610466565b005b34156101f557600080fd5b6101fd6104fb565b604051808273ffffffffffffffffffffffffffffffffffffffff1673ffffffffffffffffffffffffffffffffffffffff16815260200191505060405180910390f35b610289600480803573ffffffffffffffffffffffffffffffffffffffff1690602001909190803563ffffffff1690602001909190803563ffffffff16906020019091905050610520565b60405180826000191660001916815260200191505060405180910390f35b6102c1600480803560001916906020019091905050610707565b005b34156102ce57600080fd5b610307600480803573ffffffffffffffffffffffffffffffffffffffff169060200190919080356000191690602001909190505061084b565b604051808215151515815260200191505060405180910390f35b341561032c57600080fd5b610358600480803573ffffffffffffffffffffffffffffffffffffffff16906020019091905050610954565b005b341561036557600080fd5b610391600480803573ffffffffffffffffffffffffffffffffffffffff16906020019091905050610a29565b005b60026020528060005260406000206000915090508060000154908060010160009054906101000a900467ffffffffffffffff16908060020154908060030154905084565b60016020528060005260406000206000915090508060000160009054906101000a900473ffffffffffffffffffffffffffffffffffffffff16908060010160009054906101000a900473ffffffffffffffffffffffffffffffffffffffff16908060020154908060030154908060040154908060050154908060060160009054906101000a900460ff16905087565b6000809054906101000a900473ffffffffffffffffffffffffffffffffffffffff1673ffffffffffffffffffffffffffffffffffffffff163373ffffffffffffffffffffffffffffffffffffffff161415156104c157600080fd5b6000809054906101000a900473ffffffffffffffffffffffffffffffffffffffff1673ffffffffffffffffffffffffffffffffffffffff16ff5b6000809054906101000a900473ffffffffffffffffffffffffffffffffffffffff1681565b600080600060046000815480929190600101919050554301604051808281526020019150506040518091039020915033905060e0604051908101604052808273ffffffffffffffffffffffffffffffffffffffff1681526020018773ffffffffffffffffffffffffffffffffffffffff168152602001348152602001600081526020018563ffffffff1681526020018663ffffffff1642018152602001600060028111156105ca57fe5b81525060016000846000191660001916815260200190815260200160002060008201518160000160006101000a81548173ffffffffffffffffffffffffffffffffffffffff021916908373ffffffffffffffffffffffffffffffffffffffff16021790555060208201518160010160006101000a81548173ffffffffffffffffffffffffffffffffffffffff021916908373ffffffffffffffffffffffffffffffffffffffff16021790555060408201518160020155606082015181600301556080820151816004015560a0820151816005015560c08201518160060160006101000a81548160ff021916908360028111156106c257fe5b021790555090505081600019167f091a892cf9ab0e7ebfda38713ce99ca73688bc7e956d7eed3d607c499051efea60405160405180910390a281925050509392505050565b6000610713338361084b565b151561071e57600080fd5b60016000836000191660001916815260200190815260200160002090503373ffffffffffffffffffffffffffffffffffffffff168160000160009054906101000a900473ffffffffffffffffffffffffffffffffffffffff1673ffffffffffffffffffffffffffffffffffffffff1614156107aa57348160020160008282540192505081905550610816565b3373ffffffffffffffffffffffffffffffffffffffff168160010160009054906101000a900473ffffffffffffffffffffffffffffffffffffffff1673ffffffffffffffffffffffffffffffffffffffff161415610815573481600301600082825401925050819055505b5b81600019167f10c816afbc7739effeca84484944281b5f1d2db052625db0de2e516e896517e760405160405180910390a25050565b60008060016000846000191660001916815260200190815260200160002090506000600281111561087857fe5b8160060160009054906101000a900460ff16600281111561089557fe5b14801561094b57508373ffffffffffffffffffffffffffffffffffffffff168160000160009054906101000a900473ffffffffffffffffffffffffffffffffffffffff1673ffffffffffffffffffffffffffffffffffffffff16148061094a57508373ffffffffffffffffffffffffffffffffffffffff168160010160009054906101000a900473ffffffffffffffffffffffffffffffffffffffff1673ffffffffffffffffffffffffffffffffffffffff16145b5b91505092915050565b6000809054906101000a900473ffffffffffffffffffffffffffffffffffffffff1673ffffffffffffffffffffffffffffffffffffffff163373ffffffffffffffffffffffffffffffffffffffff161415156109af57600080fd5b600073ffffffffffffffffffffffffffffffffffffffff168173ffffffffffffffffffffffffffffffffffffffff16141515610a2657806000806101000a81548173ffffffffffffffffffffffffffffffffffffffff021916908373ffffffffffffffffffffffffffffffffffffffff1602179055505b50565b6000809054906101000a900473ffffffffffffffffffffffffffffffffffffffff1673ffffffffffffffffffffffffffffffffffffffff163373ffffffffffffffffffffffffffffffffffffffff16141515610a8457600080fd5b8073ffffffffffffffffffffffffffffffffffffffff16ff00a165627a7a72305820bbce5bc22d19081dc670590ab60eea8a52dce7dc66ac824d086a07644c759f2c0029",
  "source": "pragma solidity ^0.4.11;\n\nimport \"zeppelin-solidity/contracts/lifecycle/Destructible.sol\";\n\n\ncontract BidiBroker is Destructible {\n    enum ChannelState { Open, Settling, Settled }\n\n    struct Settlement {\n        bytes32 channelId;\n        uint64 paymentId;\n        uint256 toSender;\n        uint256 toReceiver;\n    }\n\n    struct PaymentChannel {\n        address sender;\n        address receiver;\n        uint256 senderDeposit;\n        uint256 receiverDeposit;\n\n        uint256 settlementPeriod;\n        uint256 validUntil;\n\n        ChannelState state;\n    }\n\n    mapping(bytes32 => PaymentChannel) public channels;\n    mapping(bytes32 => Settlement) public settlements;\n\n    uint32 chainId;\n    uint256 id;\n\n    event DidCreateChannel(bytes32 indexed channelId);\n    event DidDeposit(bytes32 indexed channelId);\n\n    function BidiBroker(uint32 _chainId) public {\n        chainId = _chainId;\n        id = 0;\n    }\n\n    function createChannel(address receiver, uint32 duration, uint32 settlementPeriod) public payable returns(bytes32) {\n        var channelId = keccak256(block.number + id++);\n        var sender = msg.sender;\n        channels[channelId] = PaymentChannel(\n            sender,\n            receiver,\n            msg.value,\n            0,\n            settlementPeriod,\n            now + duration,\n            ChannelState.Open);\n\n        DidCreateChannel(channelId);\n\n        return channelId;\n    }\n\n    function deposit(bytes32 channelId) public payable {\n        require(canDeposit(msg.sender, channelId));\n\n        var channel = channels[channelId];\n        if (channel.sender == msg.sender) {\n            channel.senderDeposit += msg.value;\n        } else if (channel.receiver == msg.sender) {\n            channel.receiverDeposit += msg.value;\n        }\n\n        DidDeposit(channelId);\n    }\n\n    function canDeposit(address sender, bytes32 channelId) public constant returns(bool) {\n        var channel = channels[channelId];\n        return channel.state == ChannelState.Open && (channel.sender == sender || channel.receiver == sender);\n    }\n}\n",
  "sourcePath": "/Users/ukstv/Documents/Pro/Machinomy/machinomy-contracts/contracts/BidiBroker.sol",
  "compiler": {
    "name": "solc",
    "version": "0.4.18+commit.9cf6e910.Emscripten.clang"
  },
  "schemaVersion": "1.0.1",
  "updatedAt": "2017-12-18T14:30:16.639Z"
}