{
  "contractName": "BidiBroker",
  "abi": [
    {
      "constant": true,
      "inputs": [
        {
          "name": "",
          "type": "bytes32"
        }
      ],
      "name": "settlements",
      "outputs": [
        {
          "name": "paymentId",
          "type": "uint32"
        },
        {
          "name": "toSender",
          "type": "uint256"
        },
        {
          "name": "toReceiver",
          "type": "uint256"
        }
      ],
      "payable": false,
      "stateMutability": "view",
      "type": "function"
    },
    {
      "constant": true,
      "inputs": [
        {
          "name": "channelId",
          "type": "bytes32"
        },
        {
          "name": "paymentId",
          "type": "uint32"
        },
        {
          "name": "payment",
          "type": "uint256"
        },
        {
          "name": "v",
          "type": "uint8"
        },
        {
          "name": "r",
          "type": "bytes32"
        },
        {
          "name": "s",
          "type": "bytes32"
        }
      ],
      "name": "recoverSignor",
      "outputs": [
        {
          "name": "",
          "type": "address"
        }
      ],
      "payable": false,
      "stateMutability": "view",
      "type": "function"
    },
    {
      "constant": false,
      "inputs": [
        {
          "name": "channelId",
          "type": "bytes32"
        },
        {
          "name": "paymentId",
          "type": "uint32"
        },
        {
          "name": "payment",
          "type": "uint256"
        },
        {
          "name": "v",
          "type": "uint8"
        },
        {
          "name": "r",
          "type": "bytes32"
        },
        {
          "name": "s",
          "type": "bytes32"
        }
      ],
      "name": "claim",
      "outputs": [],
      "payable": false,
      "stateMutability": "nonpayable",
      "type": "function"
    },
    {
      "constant": true,
      "inputs": [
        {
          "name": "",
          "type": "bytes32"
        }
      ],
      "name": "channels",
      "outputs": [
        {
          "name": "sender",
          "type": "address"
        },
        {
          "name": "receiver",
          "type": "address"
        },
        {
          "name": "senderDeposit",
          "type": "uint256"
        },
        {
          "name": "receiverDeposit",
          "type": "uint256"
        },
        {
          "name": "settlementPeriod",
          "type": "uint256"
        },
        {
          "name": "validUntil",
          "type": "uint256"
        },
        {
          "name": "state",
          "type": "uint8"
        }
      ],
      "payable": false,
      "stateMutability": "view",
      "type": "function"
    },
    {
      "constant": false,
      "inputs": [],
      "name": "destroy",
      "outputs": [],
      "payable": false,
      "stateMutability": "nonpayable",
      "type": "function"
    },
    {
      "constant": true,
      "inputs": [],
      "name": "owner",
      "outputs": [
        {
          "name": "",
          "type": "address"
        }
      ],
      "payable": false,
      "stateMutability": "view",
      "type": "function"
    },
    {
      "constant": false,
      "inputs": [
        {
          "name": "receiver",
          "type": "address"
        },
        {
          "name": "duration",
          "type": "uint32"
        },
        {
          "name": "settlementPeriod",
          "type": "uint32"
        }
      ],
      "name": "createChannel",
      "outputs": [
        {
          "name": "",
          "type": "bytes32"
        }
      ],
      "payable": true,
      "stateMutability": "payable",
      "type": "function"
    },
    {
      "constant": true,
      "inputs": [
        {
          "name": "channelId",
          "type": "bytes32"
        },
        {
          "name": "signor",
          "type": "address"
        }
      ],
      "name": "canClaim",
      "outputs": [
        {
          "name": "",
          "type": "bool"
        }
      ],
      "payable": false,
      "stateMutability": "view",
      "type": "function"
    },
    {
      "constant": false,
      "inputs": [
        {
          "name": "channelId",
          "type": "bytes32"
        }
      ],
      "name": "deposit",
      "outputs": [],
      "payable": true,
      "stateMutability": "payable",
      "type": "function"
    },
    {
      "constant": true,
      "inputs": [
        {
          "name": "sender",
          "type": "address"
        },
        {
          "name": "channelId",
          "type": "bytes32"
        }
      ],
      "name": "canDeposit",
      "outputs": [
        {
          "name": "",
          "type": "bool"
        }
      ],
      "payable": false,
      "stateMutability": "view",
      "type": "function"
    },
    {
      "constant": false,
      "inputs": [
        {
          "name": "newOwner",
          "type": "address"
        }
      ],
      "name": "transferOwnership",
      "outputs": [],
      "payable": false,
      "stateMutability": "nonpayable",
      "type": "function"
    },
    {
      "constant": false,
      "inputs": [
        {
          "name": "_recipient",
          "type": "address"
        }
      ],
      "name": "destroyAndSend",
      "outputs": [],
      "payable": false,
      "stateMutability": "nonpayable",
      "type": "function"
    },
    {
      "inputs": [
        {
          "name": "_chainId",
          "type": "uint32"
        }
      ],
      "payable": false,
      "stateMutability": "nonpayable",
      "type": "constructor"
    },
    {
      "anonymous": false,
      "inputs": [
        {
          "indexed": true,
          "name": "channelId",
          "type": "bytes32"
        }
      ],
      "name": "DidCreateChannel",
      "type": "event"
    },
    {
      "anonymous": false,
      "inputs": [
        {
          "indexed": true,
          "name": "channelId",
          "type": "bytes32"
        }
      ],
      "name": "DidDeposit",
      "type": "event"
    }
  ],
  "bytecode": "0x6060604052341561000f57600080fd5b60405160208061165b83398101604052808051906020019091905050336000806101000a81548173ffffffffffffffffffffffffffffffffffffffff021916908373ffffffffffffffffffffffffffffffffffffffff16021790555080600360006101000a81548163ffffffff021916908363ffffffff1602179055506000600481905550506115b7806100a46000396000f3006060604052600436106100ba576000357c0100000000000000000000000000000000000000000000000000000000900463ffffffff16806301bc95e2146100bf57806323a7e252146101145780633a794d7c146101b95780637a7ebd7b1461021e57806383197ef0146102e95780638da5cb5b146102fe578063a4b5e0c914610353578063aa9641ab146103bb578063b214faa514610419578063e20bff5c14610435578063f2fde38b14610493578063f5074f41146104cc575b600080fd5b34156100ca57600080fd5b6100e4600480803560001916906020019091905050610505565b604051808463ffffffff1663ffffffff168152602001838152602001828152602001935050505060405180910390f35b341561011f57600080fd5b61017760048080356000191690602001909190803563ffffffff1690602001909190803590602001909190803560ff16906020019091908035600019169060200190919080356000191690602001909190505061053f565b604051808273ffffffffffffffffffffffffffffffffffffffff1673ffffffffffffffffffffffffffffffffffffffff16815260200191505060405180910390f35b34156101c457600080fd5b61021c60048080356000191690602001909190803563ffffffff1690602001909190803590602001909190803560ff169060200190919080356000191690602001909190803560001916906020019091905050610759565b005b341561022957600080fd5b610243600480803560001916906020019091905050610d25565b604051808873ffffffffffffffffffffffffffffffffffffffff1673ffffffffffffffffffffffffffffffffffffffff1681526020018773ffffffffffffffffffffffffffffffffffffffff1673ffffffffffffffffffffffffffffffffffffffff1681526020018681526020018581526020018481526020018381526020018260028111156102cf57fe5b60ff16815260200197505050505050505060405180910390f35b34156102f457600080fd5b6102fc610db4565b005b341561030957600080fd5b610311610e49565b604051808273ffffffffffffffffffffffffffffffffffffffff1673ffffffffffffffffffffffffffffffffffffffff16815260200191505060405180910390f35b61039d600480803573ffffffffffffffffffffffffffffffffffffffff1690602001909190803563ffffffff1690602001909190803563ffffffff16906020019091905050610e6e565b60405180826000191660001916815260200191505060405180910390f35b34156103c657600080fd5b6103ff60048080356000191690602001909190803573ffffffffffffffffffffffffffffffffffffffff16906020019091905050611055565b604051808215151515815260200191505060405180910390f35b610433600480803560001916906020019091905050611190565b005b341561044057600080fd5b610479600480803573ffffffffffffffffffffffffffffffffffffffff16906020019091908035600019169060200190919050506112ee565b604051808215151515815260200191505060405180910390f35b341561049e57600080fd5b6104ca600480803573ffffffffffffffffffffffffffffffffffffffff169060200190919050506113f7565b005b34156104d757600080fd5b610503600480803573ffffffffffffffffffffffffffffffffffffffff169060200190919050506114cc565b005b60026020528060005260406000206000915090508060000160009054906101000a900463ffffffff16908060010154908060020154905083565b60008061054a611577565b6000600160008b6000191660001916815260200190815260200160002092506040805190810160405280601c81526020017f19457468657265756d205369676e6564204d6573736167653a0a3332000000008152509150818a8930600360009054906101000a900463ffffffff166040518085600019166000191681526020018481526020018373ffffffffffffffffffffffffffffffffffffffff1673ffffffffffffffffffffffffffffffffffffffff166c010000000000000000000000000281526014018263ffffffff1663ffffffff167c010000000000000000000000000000000000000000000000000000000002815260040194505050505060405180910390206040518083805190602001908083835b6020831015156106855780518252602082019150602081019050602083039250610660565b6001836020036101000a03801982511681845116808217855250505050505090500182600019166000191681526020019250505060405180910390209050600181888888604051600081526020016040526000604051602001526040518085600019166000191681526020018460ff1660ff16815260200183600019166000191681526020018260001916600019168152602001945050505050602060405160208103908084039060008661646e5a03f1151561074157600080fd5b50506020604051035193505050509695505050505050565b60008060008061076d8a8a8a8a8a8a61053f565b93506107798a85611055565b151561078457600080fd5b600160008b600019166000191681526020019081526020016000209250600060028111156107ae57fe5b8360060160009054906101000a900460ff1660028111156107cb57fe5b14156109ab578373ffffffffffffffffffffffffffffffffffffffff168360000160009054906101000a900473ffffffffffffffffffffffffffffffffffffffff1673ffffffffffffffffffffffffffffffffffffffff1614156108aa576060604051908101604052808a63ffffffff1681526020016000815260200189815250600260008c6000191660001916815260200190815260200160002060008201518160000160006101000a81548163ffffffff021916908363ffffffff1602179055506020820151816001015560408201518160020155905050610980565b8373ffffffffffffffffffffffffffffffffffffffff168360010160009054906101000a900473ffffffffffffffffffffffffffffffffffffffff1673ffffffffffffffffffffffffffffffffffffffff16141561097f576060604051908101604052808a63ffffffff1681526020018981526020016000815250600260008c6000191660001916815260200190815260200160002060008201518160000160006101000a81548163ffffffff021916908363ffffffff16021790555060208201518160010155604082015181600201559050505b5b60018360060160006101000a81548160ff021916908360028111156109a157fe5b0217905550610d19565b600160028111156109b857fe5b8360060160009054906101000a900460ff1660028111156109d557fe5b1415610d1857600260008b6000191660001916815260200190815260200160002091508160000160009054906101000a900463ffffffff1663ffffffff168963ffffffff16111515610a2657600080fd5b610a418360030154846002015461154090919063ffffffff16565b90508260000160009054906101000a900473ffffffffffffffffffffffffffffffffffffffff1673ffffffffffffffffffffffffffffffffffffffff168473ffffffffffffffffffffffffffffffffffffffff16148015610aa6575060008260020154145b15610ad457878260020181905550610ac7888261155e90919063ffffffff16565b8260010181905550610b62565b8260010160009054906101000a900473ffffffffffffffffffffffffffffffffffffffff1673ffffffffffffffffffffffffffffffffffffffff168473ffffffffffffffffffffffffffffffffffffffff16148015610b37575060008260010154145b15610b6157878260010181905550610b58888261155e90919063ffffffff16565b82600201819055505b5b8260010160009054906101000a900473ffffffffffffffffffffffffffffffffffffffff1673ffffffffffffffffffffffffffffffffffffffff166108fc83600201549081150290604051600060405180830381858888f193505050501515610bca57600080fd5b8260000160009054906101000a900473ffffffffffffffffffffffffffffffffffffffff1673ffffffffffffffffffffffffffffffffffffffff166108fc83600101549081150290604051600060405180830381858888f193505050501515610c3257600080fd5b600160008b60001916600019168152602001908152602001600020600080820160006101000a81549073ffffffffffffffffffffffffffffffffffffffff02191690556001820160006101000a81549073ffffffffffffffffffffffffffffffffffffffff021916905560028201600090556003820160009055600482016000905560058201600090556006820160006101000a81549060ff02191690555050600260008b60001916600019168152602001908152602001600020600080820160006101000a81549063ffffffff02191690556001820160009055600282016000905550505b5b50505050505050505050565b60016020528060005260406000206000915090508060000160009054906101000a900473ffffffffffffffffffffffffffffffffffffffff16908060010160009054906101000a900473ffffffffffffffffffffffffffffffffffffffff16908060020154908060030154908060040154908060050154908060060160009054906101000a900460ff16905087565b6000809054906101000a900473ffffffffffffffffffffffffffffffffffffffff1673ffffffffffffffffffffffffffffffffffffffff163373ffffffffffffffffffffffffffffffffffffffff16141515610e0f57600080fd5b6000809054906101000a900473ffffffffffffffffffffffffffffffffffffffff1673ffffffffffffffffffffffffffffffffffffffff16ff5b6000809054906101000a900473ffffffffffffffffffffffffffffffffffffffff1681565b600080600060046000815480929190600101919050554301604051808281526020019150506040518091039020915033905060e0604051908101604052808273ffffffffffffffffffffffffffffffffffffffff1681526020018773ffffffffffffffffffffffffffffffffffffffff168152602001348152602001600081526020018563ffffffff1681526020018663ffffffff164201815260200160006002811115610f1857fe5b81525060016000846000191660001916815260200190815260200160002060008201518160000160006101000a81548173ffffffffffffffffffffffffffffffffffffffff021916908373ffffffffffffffffffffffffffffffffffffffff16021790555060208201518160010160006101000a81548173ffffffffffffffffffffffffffffffffffffffff021916908373ffffffffffffffffffffffffffffffffffffffff16021790555060408201518160020155606082015181600301556080820151816004015560a0820151816005015560c08201518160060160006101000a81548160ff0219169083600281111561101057fe5b021790555090505081600019167f091a892cf9ab0e7ebfda38713ce99ca73688bc7e956d7eed3d607c499051efea60405160405180910390a281925050509392505050565b60008060016000856000191660001916815260200190815260200160002090506000600281111561108257fe5b8160060160009054906101000a900460ff16600281111561109f57fe5b14806110d25750600160028111156110b357fe5b8160060160009054906101000a900460ff1660028111156110d057fe5b145b801561118757508273ffffffffffffffffffffffffffffffffffffffff168160000160009054906101000a900473ffffffffffffffffffffffffffffffffffffffff1673ffffffffffffffffffffffffffffffffffffffff16148061118657508273ffffffffffffffffffffffffffffffffffffffff168160010160009054906101000a900473ffffffffffffffffffffffffffffffffffffffff1673ffffffffffffffffffffffffffffffffffffffff16145b5b91505092915050565b600061119c33836112ee565b15156111a757600080fd5b60016000836000191660001916815260200190815260200160002090503373ffffffffffffffffffffffffffffffffffffffff168160000160009054906101000a900473ffffffffffffffffffffffffffffffffffffffff1673ffffffffffffffffffffffffffffffffffffffff1614156112405761123334826002015461154090919063ffffffff16565b81600201819055506112b9565b3373ffffffffffffffffffffffffffffffffffffffff168160010160009054906101000a900473ffffffffffffffffffffffffffffffffffffffff1673ffffffffffffffffffffffffffffffffffffffff1614156112b8576112af34826003015461154090919063ffffffff16565b81600301819055505b5b81600019167f10c816afbc7739effeca84484944281b5f1d2db052625db0de2e516e896517e760405160405180910390a25050565b60008060016000846000191660001916815260200190815260200160002090506000600281111561131b57fe5b8160060160009054906101000a900460ff16600281111561133857fe5b1480156113ee57508373ffffffffffffffffffffffffffffffffffffffff168160000160009054906101000a900473ffffffffffffffffffffffffffffffffffffffff1673ffffffffffffffffffffffffffffffffffffffff1614806113ed57508373ffffffffffffffffffffffffffffffffffffffff168160010160009054906101000a900473ffffffffffffffffffffffffffffffffffffffff1673ffffffffffffffffffffffffffffffffffffffff16145b5b91505092915050565b6000809054906101000a900473ffffffffffffffffffffffffffffffffffffffff1673ffffffffffffffffffffffffffffffffffffffff163373ffffffffffffffffffffffffffffffffffffffff1614151561145257600080fd5b600073ffffffffffffffffffffffffffffffffffffffff168173ffffffffffffffffffffffffffffffffffffffff161415156114c957806000806101000a81548173ffffffffffffffffffffffffffffffffffffffff021916908373ffffffffffffffffffffffffffffffffffffffff1602179055505b50565b6000809054906101000a900473ffffffffffffffffffffffffffffffffffffffff1673ffffffffffffffffffffffffffffffffffffffff163373ffffffffffffffffffffffffffffffffffffffff1614151561152757600080fd5b8073ffffffffffffffffffffffffffffffffffffffff16ff5b600080828401905083811015151561155457fe5b8091505092915050565b600082821115151561156c57fe5b818303905092915050565b6020604051908101604052806000815250905600a165627a7a723058204bfe0fa181d198832fa7172ab892b7607fe835d7bf99c885b942ae5119209cff0029",
  "source": "pragma solidity ^0.4.11;\n\nimport \"zeppelin-solidity/contracts/lifecycle/Destructible.sol\";\nimport \"zeppelin-solidity/contracts/math/SafeMath.sol\";\n\n\ncontract BidiBroker is Destructible {\n    using SafeMath for uint256;\n\n    enum ChannelState { Open, Settling, Settled }\n\n    struct Settlement {\n        uint32 paymentId;\n        uint256 toSender;\n        uint256 toReceiver;\n    }\n\n    struct PaymentChannel {\n        address sender;\n        address receiver;\n        uint256 senderDeposit;\n        uint256 receiverDeposit;\n\n        uint256 settlementPeriod;\n        uint256 validUntil;\n\n        ChannelState state;\n    }\n\n    mapping(bytes32 => PaymentChannel) public channels;\n    mapping(bytes32 => Settlement) public settlements;\n\n    uint32 chainId;\n    uint256 id;\n\n    event DidCreateChannel(bytes32 indexed channelId);\n    event DidDeposit(bytes32 indexed channelId);\n\n    function BidiBroker(uint32 _chainId) public {\n        chainId = _chainId;\n        id = 0;\n    }\n\n    function createChannel(address receiver, uint32 duration, uint32 settlementPeriod) public payable returns(bytes32) {\n        var channelId = keccak256(block.number + id++);\n        var sender = msg.sender;\n        channels[channelId] = PaymentChannel(\n            sender,\n            receiver,\n            msg.value,\n            0,\n            settlementPeriod,\n            now + duration,\n            ChannelState.Open);\n\n        DidCreateChannel(channelId);\n\n        return channelId;\n    }\n\n    function deposit(bytes32 channelId) public payable {\n        require(canDeposit(msg.sender, channelId));\n\n        var channel = channels[channelId];\n        if (channel.sender == msg.sender) {\n            channel.senderDeposit = channel.senderDeposit.add(msg.value);\n        } else if (channel.receiver == msg.sender) {\n            channel.receiverDeposit = channel.receiverDeposit.add(msg.value);\n        }\n\n        DidDeposit(channelId);\n    }\n\n    function canDeposit(address sender, bytes32 channelId) public constant returns(bool) {\n        var channel = channels[channelId];\n        return channel.state == ChannelState.Open && (channel.sender == sender || channel.receiver == sender);\n    }\n\n    function canClaim(bytes32 channelId, address signor) public constant returns(bool) {\n        var channel = channels[channelId];\n        return (channel.state == ChannelState.Open || channel.state == ChannelState.Settling) &&\n            (channel.sender == signor || channel.receiver == signor);\n    }\n\n    function recoverSignor(bytes32 channelId, uint32 paymentId, uint256 payment, uint8 v, bytes32 r, bytes32 s) public constant returns(address) {\n        var channel = channels[channelId];\n        bytes memory prefix = \"\\x19Ethereum Signed Message:\\n32\";\n        bytes32 prefixedHash = keccak256(prefix, keccak256(channelId, payment, address(this), chainId));\n        return ecrecover(prefixedHash, v, r, s);\n    }\n\n    function claim(bytes32 channelId, uint32 paymentId, uint256 payment, uint8 v, bytes32 r, bytes32 s) public {\n        var signor = recoverSignor(channelId, paymentId, payment, v, r, s);\n        require(canClaim(channelId, signor));\n        var channel = channels[channelId];\n        if (channel.state == ChannelState.Open) {\n            if (channel.sender == signor) {\n                settlements[channelId] = Settlement(paymentId, 0, payment);\n            } else if (channel.receiver == signor) {\n                settlements[channelId] = Settlement(paymentId, payment, 0);\n            }\n            channel.state = ChannelState.Settling;\n        } else if (channel.state == ChannelState.Settling) {\n            var settlement = settlements[channelId];\n            require(paymentId > settlement.paymentId);\n            var total = channel.senderDeposit.add(channel.receiverDeposit);\n            if (signor == channel.sender && settlement.toReceiver == 0) {\n                settlement.toReceiver = payment;\n                settlement.toSender = total.sub(payment);\n            } else if (signor == channel.receiver && settlement.toSender == 0) {\n                settlement.toSender = payment;\n                settlement.toReceiver = total.sub(payment);\n            }\n            require(channel.receiver.send(settlement.toReceiver));\n            require(channel.sender.send(settlement.toSender));\n            delete channels[channelId];\n            delete settlements[channelId];\n        }\n    }\n}\n",
  "sourcePath": "/Users/ukstv/Documents/Pro/Machinomy/machinomy-contracts/contracts/BidiBroker.sol",
  "compiler": {
    "name": "solc",
    "version": "0.4.18+commit.9cf6e910.Emscripten.clang"
  },
  "schemaVersion": "1.0.1",
  "updatedAt": "2017-12-18T16:33:16.315Z"
}