{
  "contractName": "Broker",
  "abi": [
    {
      "constant": true,
      "inputs": [
        {
          "name": "channelId",
          "type": "bytes32"
        }
      ],
      "name": "getState",
      "outputs": [
        {
          "name": "",
          "type": "uint8"
        }
      ],
      "payable": false,
      "stateMutability": "view",
      "type": "function"
    },
    {
      "constant": false,
      "inputs": [
        {
          "name": "channelId",
          "type": "bytes32"
        },
        {
          "name": "payment",
          "type": "uint256"
        },
        {
          "name": "v",
          "type": "uint8"
        },
        {
          "name": "r",
          "type": "bytes32"
        },
        {
          "name": "s",
          "type": "bytes32"
        }
      ],
      "name": "claim",
      "outputs": [],
      "payable": false,
      "stateMutability": "nonpayable",
      "type": "function"
    },
    {
      "constant": false,
      "inputs": [
        {
          "name": "channelId",
          "type": "bytes32"
        }
      ],
      "name": "close",
      "outputs": [],
      "payable": false,
      "stateMutability": "nonpayable",
      "type": "function"
    },
    {
      "constant": true,
      "inputs": [
        {
          "name": "sender",
          "type": "address"
        },
        {
          "name": "channelId",
          "type": "bytes32"
        }
      ],
      "name": "canFinishSettle",
      "outputs": [
        {
          "name": "",
          "type": "bool"
        }
      ],
      "payable": false,
      "stateMutability": "view",
      "type": "function"
    },
    {
      "constant": false,
      "inputs": [
        {
          "name": "receiver",
          "type": "address"
        },
        {
          "name": "duration",
          "type": "uint256"
        },
        {
          "name": "settlementPeriod",
          "type": "uint256"
        }
      ],
      "name": "createChannel",
      "outputs": [
        {
          "name": "",
          "type": "bytes32"
        }
      ],
      "payable": true,
      "stateMutability": "payable",
      "type": "function"
    },
    {
      "constant": true,
      "inputs": [
        {
          "name": "sender",
          "type": "address"
        },
        {
          "name": "channelId",
          "type": "bytes32"
        }
      ],
      "name": "canStartSettle",
      "outputs": [
        {
          "name": "",
          "type": "bool"
        }
      ],
      "payable": false,
      "stateMutability": "view",
      "type": "function"
    },
    {
      "constant": false,
      "inputs": [
        {
          "name": "channelId",
          "type": "bytes32"
        }
      ],
      "name": "finishSettle",
      "outputs": [],
      "payable": false,
      "stateMutability": "nonpayable",
      "type": "function"
    },
    {
      "constant": false,
      "inputs": [
        {
          "name": "channelId",
          "type": "bytes32"
        },
        {
          "name": "payment",
          "type": "uint256"
        }
      ],
      "name": "settle",
      "outputs": [],
      "payable": false,
      "stateMutability": "nonpayable",
      "type": "function"
    },
    {
      "constant": false,
      "inputs": [],
      "name": "destroy",
      "outputs": [],
      "payable": false,
      "stateMutability": "nonpayable",
      "type": "function"
    },
    {
      "constant": true,
      "inputs": [],
      "name": "owner",
      "outputs": [
        {
          "name": "",
          "type": "address"
        }
      ],
      "payable": false,
      "stateMutability": "view",
      "type": "function"
    },
    {
      "constant": true,
      "inputs": [],
      "name": "chainId",
      "outputs": [
        {
          "name": "",
          "type": "uint32"
        }
      ],
      "payable": false,
      "stateMutability": "view",
      "type": "function"
    },
    {
      "constant": false,
      "inputs": [
        {
          "name": "channelId",
          "type": "bytes32"
        },
        {
          "name": "payment",
          "type": "uint256"
        }
      ],
      "name": "startSettle",
      "outputs": [],
      "payable": false,
      "stateMutability": "nonpayable",
      "type": "function"
    },
    {
      "constant": false,
      "inputs": [
        {
          "name": "channelId",
          "type": "bytes32"
        }
      ],
      "name": "deposit",
      "outputs": [],
      "payable": true,
      "stateMutability": "payable",
      "type": "function"
    },
    {
      "constant": true,
      "inputs": [
        {
          "name": "channelId",
          "type": "bytes32"
        },
        {
          "name": "value",
          "type": "uint256"
        },
        {
          "name": "v",
          "type": "uint8"
        },
        {
          "name": "r",
          "type": "bytes32"
        },
        {
          "name": "s",
          "type": "bytes32"
        }
      ],
      "name": "canClaim",
      "outputs": [
        {
          "name": "",
          "type": "bool"
        }
      ],
      "payable": false,
      "stateMutability": "view",
      "type": "function"
    },
    {
      "constant": true,
      "inputs": [
        {
          "name": "channelId",
          "type": "bytes32"
        }
      ],
      "name": "isOpenChannel",
      "outputs": [
        {
          "name": "",
          "type": "bool"
        }
      ],
      "payable": false,
      "stateMutability": "view",
      "type": "function"
    },
    {
      "constant": true,
      "inputs": [
        {
          "name": "sender",
          "type": "address"
        },
        {
          "name": "channelId",
          "type": "bytes32"
        }
      ],
      "name": "canDeposit",
      "outputs": [
        {
          "name": "",
          "type": "bool"
        }
      ],
      "payable": false,
      "stateMutability": "view",
      "type": "function"
    },
    {
      "constant": true,
      "inputs": [
        {
          "name": "channelId",
          "type": "bytes32"
        }
      ],
      "name": "getPayment",
      "outputs": [
        {
          "name": "",
          "type": "uint256"
        }
      ],
      "payable": false,
      "stateMutability": "view",
      "type": "function"
    },
    {
      "constant": true,
      "inputs": [
        {
          "name": "channelId",
          "type": "bytes32"
        }
      ],
      "name": "getUntil",
      "outputs": [
        {
          "name": "",
          "type": "uint256"
        }
      ],
      "payable": false,
      "stateMutability": "view",
      "type": "function"
    },
    {
      "constant": false,
      "inputs": [
        {
          "name": "newOwner",
          "type": "address"
        }
      ],
      "name": "transferOwnership",
      "outputs": [],
      "payable": false,
      "stateMutability": "nonpayable",
      "type": "function"
    },
    {
      "constant": false,
      "inputs": [
        {
          "name": "_recipient",
          "type": "address"
        }
      ],
      "name": "destroyAndSend",
      "outputs": [],
      "payable": false,
      "stateMutability": "nonpayable",
      "type": "function"
    },
    {
      "inputs": [
        {
          "name": "_chainId",
          "type": "uint32"
        }
      ],
      "payable": false,
      "stateMutability": "nonpayable",
      "type": "constructor"
    },
    {
      "anonymous": false,
      "inputs": [
        {
          "indexed": false,
          "name": "channelId",
          "type": "bytes32"
        },
        {
          "indexed": true,
          "name": "sender",
          "type": "address"
        },
        {
          "indexed": true,
          "name": "receiver",
          "type": "address"
        },
        {
          "indexed": false,
          "name": "value",
          "type": "uint256"
        },
        {
          "indexed": false,
          "name": "settlementPeriod",
          "type": "uint256"
        },
        {
          "indexed": false,
          "name": "until",
          "type": "uint256"
        }
      ],
      "name": "DidCreateChannel",
      "type": "event"
    },
    {
      "anonymous": false,
      "inputs": [
        {
          "indexed": true,
          "name": "channelId",
          "type": "bytes32"
        },
        {
          "indexed": false,
          "name": "value",
          "type": "uint256"
        }
      ],
      "name": "DidDeposit",
      "type": "event"
    },
    {
      "anonymous": false,
      "inputs": [
        {
          "indexed": true,
          "name": "channelId",
          "type": "bytes32"
        },
        {
          "indexed": false,
          "name": "payment",
          "type": "uint256"
        }
      ],
      "name": "DidStartSettle",
      "type": "event"
    },
    {
      "anonymous": false,
      "inputs": [
        {
          "indexed": true,
          "name": "channelId",
          "type": "bytes32"
        },
        {
          "indexed": false,
          "name": "payment",
          "type": "uint256"
        },
        {
          "indexed": false,
          "name": "oddValue",
          "type": "uint256"
        }
      ],
      "name": "DidSettle",
      "type": "event"
    },
    {
      "anonymous": false,
      "inputs": [
        {
          "indexed": true,
          "name": "previousOwner",
          "type": "address"
        },
        {
          "indexed": true,
          "name": "newOwner",
          "type": "address"
        }
      ],
      "name": "OwnershipTransferred",
      "type": "event"
    }
  ],
  "bytecode": "0x6060604052341561000f57600080fd5b60405160208061190283398101604052808051906020019091905050336000806101000a81548173ffffffffffffffffffffffffffffffffffffffff021916908373ffffffffffffffffffffffffffffffffffffffff16021790555080600260006101000a81548163ffffffff021916908363ffffffff1602179055506000600260046101000a81548163ffffffff021916908363ffffffff16021790555050611844806100be6000396000f300606060405260043610610112576000357c0100000000000000000000000000000000000000000000000000000000900463ffffffff16806309648a9d14610117578063129217581461016057806339c79e0c146101b65780633c46f72f146101dd578063513d144b1461023b57806368b45a2c1461029757806375f99680146102f557806379f48d4c1461031c57806383197ef01461034c5780638da5cb5b146103615780639a8a0592146103b6578063ab40428e146103eb578063b214faa51461041b578063baa7774614610437578063d0fa96ba146104a5578063e20bff5c146104e4578063e66eefc814610542578063f03cd5ca1461057d578063f2fde38b146105b8578063f5074f41146105f1575b600080fd5b341561012257600080fd5b61013c60048080356000191690602001909190505061062a565b6040518082600281111561014c57fe5b60ff16815260200191505060405180910390f35b341561016b57600080fd5b6101b460048080356000191690602001909190803590602001909190803560ff16906020019091908035600019169060200190919080356000191690602001909190505061065f565b005b34156101c157600080fd5b6101db600480803560001916906020019091905050610710565b005b34156101e857600080fd5b610221600480803573ffffffffffffffffffffffffffffffffffffffff1690602001909190803560001916906020019091905050610985565b604051808215151515815260200191505060405180910390f35b610279600480803573ffffffffffffffffffffffffffffffffffffffff16906020019091908035906020019091908035906020019091905050610a9b565b60405180826000191660001916815260200191505060405180910390f35b34156102a257600080fd5b6102db600480803573ffffffffffffffffffffffffffffffffffffffff1690602001909190803560001916906020019091905050610d00565b604051808215151515815260200191505060405180910390f35b341561030057600080fd5b61031a600480803560001916906020019091905050610daf565b005b341561032757600080fd5b61034a600480803560001916906020019091908035906020019091905050610def565b005b341561035757600080fd5b61035f610ffb565b005b341561036c57600080fd5b610374611090565b604051808273ffffffffffffffffffffffffffffffffffffffff1673ffffffffffffffffffffffffffffffffffffffff16815260200191505060405180910390f35b34156103c157600080fd5b6103c96110b5565b604051808263ffffffff1663ffffffff16815260200191505060405180910390f35b34156103f657600080fd5b6104196004808035600019169060200190919080359060200190919050506110cb565b005b61043560048080356000191690602001909190505061117e565b005b341561044257600080fd5b61048b60048080356000191690602001909190803590602001909190803560ff169060200190919080356000191690602001909190803560001916906020019091905050611204565b604051808215151515815260200191505060405180910390f35b34156104b057600080fd5b6104ca6004808035600019169060200190919050506114d9565b604051808215151515815260200191505060405180910390f35b34156104ef57600080fd5b610528600480803573ffffffffffffffffffffffffffffffffffffffff169060200190919080356000191690602001909190505061153c565b604051808215151515815260200191505060405180910390f35b341561054d57600080fd5b6105676004808035600019169060200190919050506115eb565b6040518082815260200191505060405180910390f35b341561058857600080fd5b6105a2600480803560001916906020019091905050611613565b6040518082815260200191505060405180910390f35b34156105c357600080fd5b6105ef600480803573ffffffffffffffffffffffffffffffffffffffff1690602001909190505061163b565b005b34156105fc57600080fd5b610628600480803573ffffffffffffffffffffffffffffffffffffffff16906020019091905050611790565b005b600060016000836000191660001916815260200190815260200160002060040160009054906101000a900460ff169050919050565b61066c8585858585611204565b151561067757600080fd5b3073ffffffffffffffffffffffffffffffffffffffff166379f48d4c86866040518363ffffffff167c010000000000000000000000000000000000000000000000000000000002815260040180836000191660001916815260200182815260200192505050600060405180830381600087803b15156106f557600080fd5b6102c65a03f1151561070657600080fd5b5050505050505050565b6000600160008360001916600019168152602001908152602001600020905060028081111561073b57fe5b8160040160009054906101000a900460ff16600281111561075857fe5b14801561086557506000809054906101000a900473ffffffffffffffffffffffffffffffffffffffff1673ffffffffffffffffffffffffffffffffffffffff163373ffffffffffffffffffffffffffffffffffffffff16148061080a57508060000160009054906101000a900473ffffffffffffffffffffffffffffffffffffffff1673ffffffffffffffffffffffffffffffffffffffff163373ffffffffffffffffffffffffffffffffffffffff16145b8061086457508060010160009054906101000a900473ffffffffffffffffffffffffffffffffffffffff1673ffffffffffffffffffffffffffffffffffffffff163373ffffffffffffffffffffffffffffffffffffffff16145b5b15610981576000816002015411156108e0578060000160009054906101000a900473ffffffffffffffffffffffffffffffffffffffff1673ffffffffffffffffffffffffffffffffffffffff166108fc82600201549081150290604051600060405180830381858888f1935050505015156108df57600080fd5b5b600160008360001916600019168152602001908152602001600020600080820160006101000a81549073ffffffffffffffffffffffffffffffffffffffff02191690556001820160006101000a81549073ffffffffffffffffffffffffffffffffffffffff0219169055600282016000905560038201600090556004820160006101000a81549060ff02191690556005820160009055600682016000905550505b5050565b6000806001600084600019166000191681526020019081526020016000209050600160028111156109b257fe5b8160040160009054906101000a900460ff1660028111156109cf57fe5b148015610a8257508060000160009054906101000a900473ffffffffffffffffffffffffffffffffffffffff1673ffffffffffffffffffffffffffffffffffffffff168473ffffffffffffffffffffffffffffffffffffffff161480610a8157506000809054906101000a900473ffffffffffffffffffffffffffffffffffffffff1673ffffffffffffffffffffffffffffffffffffffff168473ffffffffffffffffffffffffffffffffffffffff16145b5b8015610a92575042816005015411155b91505092915050565b6000806000806002600481819054906101000a900463ffffffff168092919060010191906101000a81548163ffffffff021916908363ffffffff16021790555063ffffffff164201604051808281526020019150506040518091039020925033915034905060e0604051908101604052808373ffffffffffffffffffffffffffffffffffffffff1681526020018873ffffffffffffffffffffffffffffffffffffffff16815260200182815260200186815260200160006002811115610b5d57fe5b81526020018742018152602001600081525060016000856000191660001916815260200190815260200160002060008201518160000160006101000a81548173ffffffffffffffffffffffffffffffffffffffff021916908373ffffffffffffffffffffffffffffffffffffffff16021790555060208201518160010160006101000a81548173ffffffffffffffffffffffffffffffffffffffff021916908373ffffffffffffffffffffffffffffffffffffffff160217905550604082015181600201556060820151816003015560808201518160040160006101000a81548160ff02191690836002811115610c5057fe5b021790555060a0820151816005015560c082015181600601559050508673ffffffffffffffffffffffffffffffffffffffff168273ffffffffffffffffffffffffffffffffffffffff167f2168a0a10cb12f43941acf9cdef54ba002be7269f2b8b38d4ee9e54eb48a46628584898b420160405180856000191660001916815260200184815260200183815260200182815260200194505050505060405180910390a38293505050509392505050565b600080600160008460001916600019168152602001908152602001600020905060006002811115610d2d57fe5b8160040160009054906101000a900460ff166002811115610d4a57fe5b148015610da657508373ffffffffffffffffffffffffffffffffffffffff168160000160009054906101000a900473ffffffffffffffffffffffffffffffffffffffff1673ffffffffffffffffffffffffffffffffffffffff16145b91505092915050565b610db93382610985565b1515610dc457600080fd5b610dec8160016000846000191660001916815260200190815260200160002060060154610def565b50565b60008060006001600086600019166000191681526020019081526020016000209250839150600090508260020154841115610e9457826002015491508260010160009054906101000a900473ffffffffffffffffffffffffffffffffffffffff1673ffffffffffffffffffffffffffffffffffffffff166108fc839081150290604051600060405180830381858888f193505050501515610e8f57600080fd5b610f70565b8260010160009054906101000a900473ffffffffffffffffffffffffffffffffffffffff1673ffffffffffffffffffffffffffffffffffffffff166108fc839081150290604051600060405180830381858888f193505050501515610ef857600080fd5b8183600201540390508260000160009054906101000a900473ffffffffffffffffffffffffffffffffffffffff1673ffffffffffffffffffffffffffffffffffffffff166108fc829081150290604051600060405180830381858888f193505050501515610f6557600080fd5b600083600201819055505b600260016000876000191660001916815260200190815260200160002060040160006101000a81548160ff02191690836002811115610fab57fe5b021790555084600019167fabfecb41642f4ef37a31c1721c2da0a771e03d530ea99bf54d900d29130f51258583604051808381526020018281526020019250505060405180910390a25050505050565b6000809054906101000a900473ffffffffffffffffffffffffffffffffffffffff1673ffffffffffffffffffffffffffffffffffffffff163373ffffffffffffffffffffffffffffffffffffffff1614151561105657600080fd5b6000809054906101000a900473ffffffffffffffffffffffffffffffffffffffff1673ffffffffffffffffffffffffffffffffffffffff16ff5b6000809054906101000a900473ffffffffffffffffffffffffffffffffffffffff1681565b600260009054906101000a900463ffffffff1681565b60006110d73384610d00565b15156110e257600080fd5b600160008460001916600019168152602001908152602001600020905060018160040160006101000a81548160ff0219169083600281111561112057fe5b021790555080600301544201816005018190555081816006018190555082600019167f673a31efff5b18f60225e513fd4f0f53c708661f184c1898f5c52e85bd95d500836040518082815260200191505060405180910390a2505050565b600061118a338361153c565b151561119557600080fd5b600160008360001916600019168152602001908152602001600020905034816002016000828254019250508190555081600019167f6f850cda6d6b2f5cca622bc2d4739e4ed917c12d29f9a92b9e6c127abe398424346040518082815260200191505060405180910390a25050565b60008061120f611804565b600080600160008b6000191660001916815260200190815260200160002093506040805190810160405280601c81526020017f19457468657265756d205369676e6564204d6573736167653a0a3332000000008152509250898930600260009054906101000a900463ffffffff166040518085600019166000191681526020018481526020018373ffffffffffffffffffffffffffffffffffffffff1673ffffffffffffffffffffffffffffffffffffffff166c010000000000000000000000000281526014018263ffffffff1663ffffffff167c01000000000000000000000000000000000000000000000000000000000281526004019450505050506040518091039020915082826040518083805190602001908083835b60208310151561134e5780518252602082019150602081019050602083039250611329565b6001836020036101000a038019825116818451168082178552505050505050905001826000191660001916815260200192505050604051809103902090506000600281111561139957fe5b8460040160009054906101000a900460ff1660028111156113b657fe5b14806113e95750600160028111156113ca57fe5b8460040160009054906101000a900460ff1660028111156113e757fe5b145b80156114ca5750600181898989604051600081526020016040526000604051602001526040518085600019166000191681526020018460ff1660ff16815260200183600019166000191681526020018260001916600019168152602001945050505050602060405160208103908084039060008661646e5a03f1151561146e57600080fd5b50506020604051035173ffffffffffffffffffffffffffffffffffffffff168460000160009054906101000a900473ffffffffffffffffffffffffffffffffffffffff1673ffffffffffffffffffffffffffffffffffffffff16145b94505050505095945050505050565b60008060016000846000191660001916815260200190815260200160002090506000600281111561150657fe5b8160040160009054906101000a900460ff16600281111561152357fe5b148015611534575042816005015410155b915050919050565b60008060016000846000191660001916815260200190815260200160002090506000600281111561156957fe5b8160040160009054906101000a900460ff16600281111561158657fe5b1480156115e257508373ffffffffffffffffffffffffffffffffffffffff168160000160009054906101000a900473ffffffffffffffffffffffffffffffffffffffff1673ffffffffffffffffffffffffffffffffffffffff16145b91505092915050565b6000600160008360001916600019168152602001908152602001600020600601549050919050565b6000600160008360001916600019168152602001908152602001600020600501549050919050565b6000809054906101000a900473ffffffffffffffffffffffffffffffffffffffff1673ffffffffffffffffffffffffffffffffffffffff163373ffffffffffffffffffffffffffffffffffffffff1614151561169657600080fd5b600073ffffffffffffffffffffffffffffffffffffffff168173ffffffffffffffffffffffffffffffffffffffff16141515156116d257600080fd5b8073ffffffffffffffffffffffffffffffffffffffff166000809054906101000a900473ffffffffffffffffffffffffffffffffffffffff1673ffffffffffffffffffffffffffffffffffffffff167f8be0079c531659141344cd1fd0a4f28419497f9722a3daafe3b4186f6b6457e060405160405180910390a3806000806101000a81548173ffffffffffffffffffffffffffffffffffffffff021916908373ffffffffffffffffffffffffffffffffffffffff16021790555050565b6000809054906101000a900473ffffffffffffffffffffffffffffffffffffffff1673ffffffffffffffffffffffffffffffffffffffff163373ffffffffffffffffffffffffffffffffffffffff161415156117eb57600080fd5b8073ffffffffffffffffffffffffffffffffffffffff16ff5b6020604051908101604052806000815250905600a165627a7a72305820231acb7b52ec3551668a151875980f8f17173767730d26e23b548d0e6f96cd010029",
  "source": "pragma solidity ^0.4.11;\n\nimport \"zeppelin-solidity/contracts/lifecycle/Destructible.sol\";\n\n\ncontract Broker is Destructible {\n    enum ChannelState { Open, Settling, Settled }\n\n    struct PaymentChannel {\n        address sender;\n        address receiver;\n        uint256 value;\n\n        uint settlementPeriod;\n\n        ChannelState state;\n        /* until state is invalid */\n        uint until;\n\n        uint256 payment;\n    }\n\n    mapping(bytes32 => PaymentChannel) channels;\n    uint32 public chainId;\n    uint32 id;\n\n    event DidCreateChannel(bytes32 channelId, address indexed sender, address indexed receiver, uint256 value, uint settlementPeriod, uint until);\n    event DidDeposit(bytes32 indexed channelId, uint256 value);\n    event DidStartSettle(bytes32 indexed channelId, uint256 payment);\n    event DidSettle(bytes32 indexed channelId, uint256 payment, uint256 oddValue);\n\n    function Broker(uint32 _chainId) public {\n        chainId = _chainId;\n        id = 0;\n    }\n\n    /******** ACTIONS ********/\n\n    /* Create payment channel */\n    function createChannel(address receiver, uint duration, uint settlementPeriod) public payable returns(bytes32) {\n        var channelId = keccak256(now + id++); // solium-disable-line\n        var sender = msg.sender;\n        var value = msg.value;\n        channels[channelId] = PaymentChannel(\n            sender, receiver, value, settlementPeriod, ChannelState.Open, block.timestamp + duration, 0); // solium-disable-line\n\n        DidCreateChannel(channelId, sender, receiver, value, settlementPeriod, block.timestamp + duration); // solium-disable-line\n\n        return channelId;\n    }\n\n    /* Add funds to the channel */\n    function deposit(bytes32 channelId) public payable {\n        require(canDeposit(msg.sender, channelId));\n\n        var channel = channels[channelId];\n        channel.value += msg.value;\n\n        DidDeposit(channelId, msg.value);\n    }\n\n    function claim(bytes32 channelId, uint256 payment, uint8 v, bytes32 r, bytes32 s) public {\n        require(canClaim(channelId, payment, v, r, s));\n\n        this.settle(channelId, payment);\n    }\n\n    /* Sender starts settling */\n    function startSettle(bytes32 channelId, uint256 payment) public {\n        require(canStartSettle(msg.sender, channelId));\n\n        var channel = channels[channelId];\n        channel.state = ChannelState.Settling;\n        channel.until = now + channel.settlementPeriod; // solium-disable-line\n        channel.payment = payment;\n        DidStartSettle(channelId, payment);\n    }\n\n    /* Sender settles the channel, if receiver have not done that */\n    function finishSettle(bytes32 channelId) public {\n        require(canFinishSettle(msg.sender, channelId));\n        settle(channelId, channels[channelId].payment);\n    }\n\n    function close(bytes32 channelId) public {\n        var channel = channels[channelId];\n        if (channel.state == ChannelState.Settled && (msg.sender == owner || msg.sender == channel.sender || msg.sender == channel.receiver)) {\n            if (channel.value > 0) {\n                require(channel.sender.send(channel.value));\n            }\n            delete channels[channelId];\n        }\n    }\n\n    /******** BEHIND THE SCENES ********/\n\n    function settle(bytes32 channelId, uint256 payment)  public {\n        var channel = channels[channelId];\n        uint256 paid = payment;\n        uint256 change = 0;\n\n        if (payment > channel.value) {\n            paid = channel.value;\n            require(channel.receiver.send(paid));\n        } else {\n            require(channel.receiver.send(paid));\n            change = channel.value - paid;\n            require(channel.sender.send(change));\n            channel.value = 0;\n        }\n\n        channels[channelId].state = ChannelState.Settled;\n        DidSettle(channelId, payment, change);\n    }\n\n    /******** CAN CHECKS ********/\n\n    function canDeposit(address sender, bytes32 channelId) public constant returns(bool) {\n        var channel = channels[channelId];\n        // DW: Do we really need to check that only the sender is allowed to\n        //     deposit?\n        return channel.state == ChannelState.Open &&\n            channel.sender == sender;\n    }\n\n    function canClaim(bytes32 channelId, uint256 value, uint8 v, bytes32 r, bytes32 s) public constant returns(bool) {\n        var channel = channels[channelId];\n        bytes memory prefix = \"\\x19Ethereum Signed Message:\\n32\";\n        bytes32 hh = keccak256(channelId, value, address(this), chainId);\n        bytes32 prefixedHash = keccak256(prefix, hh);\n        return (channel.state == ChannelState.Open || channel.state == ChannelState.Settling) &&\n            channel.sender == ecrecover(prefixedHash, v, r, s);\n    }\n\n    function canStartSettle(address sender, bytes32 channelId) public constant returns(bool) {\n        var channel = channels[channelId];\n        return channel.state == ChannelState.Open &&\n            channel.sender == sender;\n    }\n\n    function canFinishSettle(address sender, bytes32 channelId) public constant returns(bool) {\n        var channel = channels[channelId];\n        return channel.state == ChannelState.Settling && (sender == channel.sender || sender == owner) && channel.until <= now; // solium-disable-line\n    }\n\n    /******** READERS ********/\n\n    function getState(bytes32 channelId) public constant returns(ChannelState) {\n        return channels[channelId].state;\n    }\n\n    function getUntil(bytes32 channelId) public constant returns(uint) {\n        return channels[channelId].until;\n    }\n\n    function getPayment(bytes32 channelId) public constant returns(uint) {\n        return channels[channelId].payment;\n    }\n\n    function isOpenChannel(bytes32 channelId) public constant returns(bool) {\n        var channel = channels[channelId];\n        return channel.state == ChannelState.Open && channel.until >= now; // solium-disable-line\n    }\n}\n",
  "sourcePath": "/Users/ukstv/Documents/Pro/Machinomy/machinomy-contracts/contracts/Broker.sol",
  "compiler": {
    "name": "solc",
    "version": "0.4.18+commit.9cf6e910.Emscripten.clang"
  },
  "schemaVersion": "1.0.1",
  "updatedAt": "2017-12-29T12:18:52.986Z"
}