{
  "contractName": "Broker",
  "abi": [
    {
      "constant": true,
      "inputs": [
        {
          "name": "channelId",
          "type": "bytes32"
        }
      ],
      "name": "isPresent",
      "outputs": [
        {
          "name": "",
          "type": "bool"
        }
      ],
      "payable": false,
      "stateMutability": "view",
      "type": "function"
    },
    {
      "constant": false,
      "inputs": [
        {
          "name": "channelId",
          "type": "bytes32"
        },
        {
          "name": "proof",
          "type": "bytes"
        },
        {
          "name": "preimage",
          "type": "bytes32"
        },
        {
          "name": "amount",
          "type": "int256"
        }
      ],
      "name": "withdraw",
      "outputs": [],
      "payable": false,
      "stateMutability": "nonpayable",
      "type": "function"
    },
    {
      "constant": false,
      "inputs": [
        {
          "name": "_proof",
          "type": "bytes"
        },
        {
          "name": "_root",
          "type": "bytes32"
        },
        {
          "name": "_leaf",
          "type": "bytes32"
        }
      ],
      "name": "verifyProof",
      "outputs": [
        {
          "name": "",
          "type": "bool"
        }
      ],
      "payable": false,
      "stateMutability": "nonpayable",
      "type": "function"
    },
    {
      "constant": true,
      "inputs": [
        {
          "name": "channelId",
          "type": "bytes32"
        },
        {
          "name": "nonce",
          "type": "uint32"
        },
        {
          "name": "merkleRoot",
          "type": "bytes32"
        },
        {
          "name": "senderSig",
          "type": "bytes"
        },
        {
          "name": "receiverSig",
          "type": "bytes"
        }
      ],
      "name": "canSettle",
      "outputs": [
        {
          "name": "",
          "type": "bool"
        }
      ],
      "payable": false,
      "stateMutability": "view",
      "type": "function"
    },
    {
      "constant": true,
      "inputs": [
        {
          "name": "channelId",
          "type": "bytes32"
        },
        {
          "name": "merkleRoot",
          "type": "bytes32"
        }
      ],
      "name": "paymentDigest",
      "outputs": [
        {
          "name": "",
          "type": "bytes32"
        }
      ],
      "payable": false,
      "stateMutability": "view",
      "type": "function"
    },
    {
      "constant": false,
      "inputs": [
        {
          "name": "receiver",
          "type": "address"
        },
        {
          "name": "settlingPeriod",
          "type": "uint32"
        }
      ],
      "name": "open",
      "outputs": [],
      "payable": true,
      "stateMutability": "payable",
      "type": "function"
    },
    {
      "constant": true,
      "inputs": [
        {
          "name": "channelId",
          "type": "bytes32"
        },
        {
          "name": "preimage",
          "type": "bytes32"
        },
        {
          "name": "amount",
          "type": "int256"
        }
      ],
      "name": "toHashlock",
      "outputs": [
        {
          "name": "",
          "type": "bytes32"
        }
      ],
      "payable": false,
      "stateMutability": "view",
      "type": "function"
    },
    {
      "constant": true,
      "inputs": [
        {
          "name": "channelId",
          "type": "bytes32"
        },
        {
          "name": "origin",
          "type": "address"
        }
      ],
      "name": "canStartSettling",
      "outputs": [
        {
          "name": "",
          "type": "bool"
        }
      ],
      "payable": false,
      "stateMutability": "view",
      "type": "function"
    },
    {
      "constant": false,
      "inputs": [
        {
          "name": "channelId",
          "type": "bytes32"
        },
        {
          "name": "nonce",
          "type": "uint32"
        },
        {
          "name": "merkleRoot",
          "type": "bytes32"
        },
        {
          "name": "senderSig",
          "type": "bytes"
        },
        {
          "name": "receiverSig",
          "type": "bytes"
        }
      ],
      "name": "settle",
      "outputs": [],
      "payable": false,
      "stateMutability": "nonpayable",
      "type": "function"
    },
    {
      "constant": false,
      "inputs": [
        {
          "name": "channelId",
          "type": "bytes32"
        },
        {
          "name": "nonce",
          "type": "uint32"
        },
        {
          "name": "merkleRoot",
          "type": "bytes32"
        },
        {
          "name": "senderSig",
          "type": "bytes"
        },
        {
          "name": "receiverSig",
          "type": "bytes"
        }
      ],
      "name": "update",
      "outputs": [],
      "payable": false,
      "stateMutability": "nonpayable",
      "type": "function"
    },
    {
      "constant": true,
      "inputs": [
        {
          "name": "channelId",
          "type": "bytes32"
        },
        {
          "name": "proof",
          "type": "bytes"
        },
        {
          "name": "hashlock",
          "type": "bytes32"
        },
        {
          "name": "origin",
          "type": "address"
        }
      ],
      "name": "canWithdraw",
      "outputs": [
        {
          "name": "",
          "type": "bool"
        }
      ],
      "payable": false,
      "stateMutability": "view",
      "type": "function"
    },
    {
      "constant": true,
      "inputs": [
        {
          "name": "channelId",
          "type": "bytes32"
        }
      ],
      "name": "isSettling",
      "outputs": [
        {
          "name": "",
          "type": "bool"
        }
      ],
      "payable": false,
      "stateMutability": "view",
      "type": "function"
    },
    {
      "constant": true,
      "inputs": [
        {
          "name": "",
          "type": "bytes32"
        }
      ],
      "name": "channels",
      "outputs": [
        {
          "name": "sender",
          "type": "address"
        },
        {
          "name": "receiver",
          "type": "address"
        },
        {
          "name": "value",
          "type": "uint256"
        },
        {
          "name": "merkleRoot",
          "type": "bytes32"
        },
        {
          "name": "settlingPeriod",
          "type": "uint32"
        },
        {
          "name": "settlingUntil",
          "type": "uint256"
        },
        {
          "name": "nonce",
          "type": "uint32"
        }
      ],
      "payable": false,
      "stateMutability": "view",
      "type": "function"
    },
    {
      "constant": true,
      "inputs": [
        {
          "name": "channelId",
          "type": "bytes32"
        }
      ],
      "name": "isOpen",
      "outputs": [
        {
          "name": "",
          "type": "bool"
        }
      ],
      "payable": false,
      "stateMutability": "view",
      "type": "function"
    },
    {
      "constant": false,
      "inputs": [
        {
          "name": "channelId",
          "type": "bytes32"
        },
        {
          "name": "withdrawal",
          "type": "bytes"
        }
      ],
      "name": "withdrawFast",
      "outputs": [],
      "payable": false,
      "stateMutability": "nonpayable",
      "type": "function"
    },
    {
      "constant": true,
      "inputs": [
        {
          "name": "channelId",
          "type": "bytes32"
        }
      ],
      "name": "isSettled",
      "outputs": [
        {
          "name": "",
          "type": "bool"
        }
      ],
      "payable": false,
      "stateMutability": "view",
      "type": "function"
    },
    {
      "constant": true,
      "inputs": [
        {
          "name": "channelId",
          "type": "bytes32"
        },
        {
          "name": "nonce",
          "type": "uint32"
        },
        {
          "name": "merkleRoot",
          "type": "bytes32"
        }
      ],
      "name": "settleFingerprint",
      "outputs": [
        {
          "name": "",
          "type": "bytes32"
        }
      ],
      "payable": false,
      "stateMutability": "view",
      "type": "function"
    },
    {
      "constant": true,
      "inputs": [
        {
          "name": "channelId",
          "type": "bytes32"
        },
        {
          "name": "nonce",
          "type": "uint32"
        },
        {
          "name": "merkleRoot",
          "type": "bytes32"
        },
        {
          "name": "senderSig",
          "type": "bytes"
        },
        {
          "name": "receiverSig",
          "type": "bytes"
        }
      ],
      "name": "canUpdate",
      "outputs": [
        {
          "name": "",
          "type": "bool"
        }
      ],
      "payable": false,
      "stateMutability": "view",
      "type": "function"
    },
    {
      "constant": true,
      "inputs": [
        {
          "name": "digest",
          "type": "bytes32"
        }
      ],
      "name": "signatureDigest",
      "outputs": [
        {
          "name": "",
          "type": "bytes32"
        }
      ],
      "payable": false,
      "stateMutability": "pure",
      "type": "function"
    },
    {
      "constant": true,
      "inputs": [
        {
          "name": "channelId",
          "type": "bytes32"
        },
        {
          "name": "nonce",
          "type": "uint32"
        },
        {
          "name": "merkleRoot",
          "type": "bytes32"
        }
      ],
      "name": "updateFingerprint",
      "outputs": [
        {
          "name": "",
          "type": "bytes32"
        }
      ],
      "payable": false,
      "stateMutability": "view",
      "type": "function"
    },
    {
      "constant": false,
      "inputs": [
        {
          "name": "channelId",
          "type": "bytes32"
        }
      ],
      "name": "startSettling",
      "outputs": [],
      "payable": false,
      "stateMutability": "nonpayable",
      "type": "function"
    },
    {
      "constant": true,
      "inputs": [
        {
          "name": "channelId",
          "type": "bytes32"
        },
        {
          "name": "merkleRoot",
          "type": "bytes32"
        },
        {
          "name": "senderSig",
          "type": "bytes"
        },
        {
          "name": "receiverSig",
          "type": "bytes"
        }
      ],
      "name": "isSignedPayment",
      "outputs": [
        {
          "name": "",
          "type": "bool"
        }
      ],
      "payable": false,
      "stateMutability": "view",
      "type": "function"
    },
    {
      "inputs": [],
      "payable": false,
      "stateMutability": "nonpayable",
      "type": "constructor"
    },
    {
      "anonymous": false,
      "inputs": [
        {
          "indexed": true,
          "name": "channelId",
          "type": "bytes32"
        }
      ],
      "name": "DidOpen",
      "type": "event"
    },
    {
      "anonymous": false,
      "inputs": [
        {
          "indexed": true,
          "name": "channelId",
          "type": "bytes32"
        },
        {
          "indexed": false,
          "name": "merkleRoot",
          "type": "bytes32"
        }
      ],
      "name": "DidUpdate",
      "type": "event"
    },
    {
      "anonymous": false,
      "inputs": [
        {
          "indexed": true,
          "name": "channelId",
          "type": "bytes32"
        }
      ],
      "name": "DidStartSettling",
      "type": "event"
    },
    {
      "anonymous": false,
      "inputs": [
        {
          "indexed": true,
          "name": "channelId",
          "type": "bytes32"
        }
      ],
      "name": "DidSettle",
      "type": "event"
    },
    {
      "anonymous": false,
      "inputs": [
        {
          "indexed": true,
          "name": "channelId",
          "type": "bytes32"
        },
        {
          "indexed": false,
          "name": "destination",
          "type": "address"
        },
        {
          "indexed": true,
          "name": "hashlock",
          "type": "bytes32"
        },
        {
          "indexed": true,
          "name": "preimage",
          "type": "bytes32"
        },
        {
          "indexed": false,
          "name": "amount",
          "type": "uint256"
        }
      ],
      "name": "DidWithdraw",
      "type": "event"
    },
    {
      "anonymous": false,
      "inputs": [
        {
          "indexed": true,
          "name": "channelId",
          "type": "bytes32"
        }
      ],
      "name": "DidClose",
      "type": "event"
    },
    {
      "anonymous": false,
      "inputs": [
        {
          "indexed": false,
          "name": "element",
          "type": "bytes32"
        }
      ],
      "name": "PTRace",
      "type": "event"
    },
    {
      "anonymous": false,
      "inputs": [
        {
          "indexed": false,
          "name": "amount",
          "type": "int256"
        },
        {
          "indexed": false,
          "name": "preimage",
          "type": "bytes32"
        },
        {
          "indexed": false,
          "name": "proof",
          "type": "bytes"
        },
        {
          "indexed": false,
          "name": "withdrawal",
          "type": "bytes"
        },
        {
          "indexed": false,
          "name": "canW",
          "type": "bool"
        }
      ],
      "name": "Trace",
      "type": "event"
    }
  ],
  "bytecode": "0x6060604052341561000f57600080fd5b60006001819055506127db806100266000396000f300606060405260043610610127576000357c0100000000000000000000000000000000000000000000000000000000900463ffffffff168062f31e761461012c57806309a777af1461016b578063101f13e2146101eb57806318ccba301461027a578063285a4e661461035b57806336ad73bb146103ab5780633f3bd9ef146103e85780634722361c1461044157806351980c051461049f578063524643911461056857806354734cf5146106315780636683f9ae146106df5780637a7ebd7b1461071e5780637c35be7a146107fb578063b31effb71461083a578063bd07f3c9146108a4578063ca6c3067146108e3578063cf5d68b914610942578063d9cd29b214610a23578063dd12c25814610a66578063e62eea4714610ac5578063f7f3c6e514610aec575b600080fd5b341561013757600080fd5b610151600480803560001916906020019091905050610bbe565b604051808215151515815260200191505060405180910390f35b341561017657600080fd5b6101e960048080356000191690602001909190803590602001908201803590602001908080601f0160208091040260200160405190810160405280939291908181526020018383808284378201915050505050509190803560001916906020019091908035906020019091905050610c24565b005b34156101f657600080fd5b610260600480803590602001908201803590602001908080601f016020809104026020016040519081016040528093929190818152602001838380828437820191505050505050919080356000191690602001909190803560001916906020019091905050610e97565b604051808215151515815260200191505060405180910390f35b341561028557600080fd5b61034160048080356000191690602001909190803563ffffffff169060200190919080356000191690602001909190803590602001908201803590602001908080601f0160208091040260200160405190810160405280939291908181526020018383808284378201915050505050509190803590602001908201803590602001908080601f01602080910402602001604051908101604052809392919081815260200183838082843782019150505050505091905050610fad565b604051808215151515815260200191505060405180910390f35b341561036657600080fd5b61038d600480803560001916906020019091908035600019169060200190919050506112ef565b60405180826000191660001916815260200191505060405180910390f35b6103e6600480803573ffffffffffffffffffffffffffffffffffffffff1690602001909190803563ffffffff1690602001909190505061136a565b005b34156103f357600080fd5b6104236004808035600019169060200190919080356000191690602001909190803590602001909190505061156b565b60405180826000191660001916815260200191505060405180910390f35b341561044c57600080fd5b61048560048080356000191690602001909190803573ffffffffffffffffffffffffffffffffffffffff169060200190919050506115ef565b604051808215151515815260200191505060405180910390f35b34156104aa57600080fd5b61056660048080356000191690602001909190803563ffffffff169060200190919080356000191690602001909190803590602001908201803590602001908080601f0160208091040260200160405190810160405280939291908181526020018383808284378201915050505050509190803590602001908201803590602001908080601f016020809104026020016040519081016040528093929190818152602001838380828437820191505050505050919050506116db565b005b341561057357600080fd5b61062f60048080356000191690602001909190803563ffffffff169060200190919080356000191690602001909190803590602001908201803590602001908080601f0160208091040260200160405190810160405280939291908181526020018383808284378201915050505050509190803590602001908201803590602001908080601f01602080910402602001604051908101604052809392919081815260200183838082843782019150505050505091905050611783565b005b341561063c57600080fd5b6106c560048080356000191690602001909190803590602001908201803590602001908080601f016020809104026020016040519081016040528093929190818152602001838380828437820191505050505050919080356000191690602001909190803573ffffffffffffffffffffffffffffffffffffffff16906020019091905050611835565b604051808215151515815260200191505060405180910390f35b34156106ea57600080fd5b610704600480803560001916906020019091905050611a47565b604051808215151515815260200191505060405180910390f35b341561072957600080fd5b610743600480803560001916906020019091905050611a75565b604051808873ffffffffffffffffffffffffffffffffffffffff1673ffffffffffffffffffffffffffffffffffffffff1681526020018773ffffffffffffffffffffffffffffffffffffffff1673ffffffffffffffffffffffffffffffffffffffff16815260200186815260200185600019166000191681526020018463ffffffff1663ffffffff1681526020018381526020018263ffffffff1663ffffffff16815260200197505050505050505060405180910390f35b341561080657600080fd5b610820600480803560001916906020019091905050611b17565b604051808215151515815260200191505060405180910390f35b341561084557600080fd5b6108a260048080356000191690602001909190803590602001908201803590602001908080601f01602080910402602001604051908101604052809392919081815260200183838082843782019150505050505091905050611b8d565b005b34156108af57600080fd5b6108c9600480803560001916906020019091905050611e24565b604051808215151515815260200191505060405180910390f35b34156108ee57600080fd5b61092460048080356000191690602001909190803563ffffffff1690602001909190803560001916906020019091905050611e63565b60405180826000191660001916815260200191505060405180910390f35b341561094d57600080fd5b610a0960048080356000191690602001909190803563ffffffff169060200190919080356000191690602001909190803590602001908201803590602001908080601f0160208091040260200160405190810160405280939291908181526020018383808284378201915050505050509190803590602001908201803590602001908080601f01602080910402602001604051908101604052809392919081815260200183838082843782019150505050505091905050611f3a565b604051808215151515815260200191505060405180910390f35b3415610a2e57600080fd5b610a4860048080356000191690602001909190505061227c565b60405180826000191660001916815260200191505060405180910390f35b3415610a7157600080fd5b610aa760048080356000191690602001909190803563ffffffff1690602001909190803560001916906020019091905050612339565b60405180826000191660001916815260200191505060405180910390f35b3415610ad057600080fd5b610aea600480803560001916906020019091905050612410565b005b3415610af757600080fd5b610ba46004808035600019169060200190919080356000191690602001909190803590602001908201803590602001908080601f0160208091040260200160405190810160405280939291908181526020018383808284378201915050505050509190803590602001908201803590602001908080601f0160208091040260200160405190810160405280939291908181526020018383808284378201915050505050509190505061249d565b604051808215151515815260200191505060405180910390f35b6000806000808460001916600019168152602001908152602001600020905060008160000160009054906101000a900473ffffffffffffffffffffffffffffffffffffffff1673ffffffffffffffffffffffffffffffffffffffff161415915050919050565b600080600080610c3588878761156b565b9350610c4388888633611835565b1515610c4e57600080fd5b60008089600019166000191681526020019081526020016000209250600085121515610ca3578491508260010160009054906101000a900473ffffffffffffffffffffffffffffffffffffffff169050610cd1565b8460000391508260000160009054906101000a900473ffffffffffffffffffffffffffffffffffffffff1690505b8183600201600082825403925050819055508073ffffffffffffffffffffffffffffffffffffffff166108fc839081150290604051600060405180830381858888f193505050501515610d2357600080fd5b8560001916846000191689600019167f3c9b78aea9fae726f1be34bb3d41855ce65f8891b2a69cab73c45b6075c22a1c8486604051808373ffffffffffffffffffffffffffffffffffffffff1673ffffffffffffffffffffffffffffffffffffffff1681526020018281526020019250505060405180910390a4600083600201541415610e8d576000808960001916600019168152602001908152602001600020600080820160006101000a81549073ffffffffffffffffffffffffffffffffffffffff02191690556001820160006101000a81549073ffffffffffffffffffffffffffffffffffffffff0219169055600282016000905560038201600090556004820160006101000a81549063ffffffff021916905560058201600090556006820160006101000a81549063ffffffff0219169055505087600019167f6c1b199e41928e006b6cd4e44a0f2ddf85df1e69545eebb0ddbcb3a970ca853c60405160405180910390a25b5050505050505050565b600080600080600060208851811515610eac57fe5b06141515610ebd5760009350610fa3565b849150602090505b865181111515610f95578087015192507f749f0f668af7bca277addefda800740fce2549e7954517f1a4569962651a01608360405180826000191660001916815260200191505060405180910390a1826000191682600019161015610f5957818360405180836000191660001916815260200182600019166000191681526020019250505060405180910390209150610f8a565b8282604051808360001916600019168152602001826000191660001916815260200192505050604051809103902091505b602081019050610ec5565b856000191682600019161493505b5050509392505050565b6000806000806000806000808c600019166000191681526020019081526020016000209450610fe5610fe08c8c8c611e63565b61227c565b935073__ECRecovery____________________________6319045a25858a6000604051602001526040518363ffffffff167c010000000000000000000000000000000000000000000000000000000002815260040180836000191660001916815260200180602001828103825283818151815260200191508051906020019080838360005b8381101561108557808201518184015260208101905061106a565b50505050905090810190601f1680156110b25780820380516001836020036101000a031916815260200191505b50935050505060206040518083038186803b15156110cf57600080fd5b6102c65a03f415156110e057600080fd5b5050506040518051905073ffffffffffffffffffffffffffffffffffffffff168560000160009054906101000a900473ffffffffffffffffffffffffffffffffffffffff1673ffffffffffffffffffffffffffffffffffffffff1614925073__ECRecovery____________________________6319045a2585896000604051602001526040518363ffffffff167c010000000000000000000000000000000000000000000000000000000002815260040180836000191660001916815260200180602001828103825283818151815260200191508051906020019080838360005b838110156111dc5780820151818401526020810190506111c1565b50505050905090810190601f1680156112095780820380516001836020036101000a031916815260200191505b50935050505060206040518083038186803b151561122657600080fd5b6102c65a03f4151561123757600080fd5b5050506040518051905073ffffffffffffffffffffffffffffffffffffffff168560010160009054906101000a900473ffffffffffffffffffffffffffffffffffffffff1673ffffffffffffffffffffffffffffffffffffffff161491508460060160009054906101000a900463ffffffff1663ffffffff168a63ffffffff161190506112c38b611e24565b1580156112cd5750805b80156112d65750825b80156112df5750815b9550505050505095945050505050565b6000308383604051808473ffffffffffffffffffffffffffffffffffffffff1673ffffffffffffffffffffffffffffffffffffffff166c010000000000000000000000000281526014018360001916600019168152602001826000191660001916815260200193505050506040518091039020905092915050565b600080600080600160008154809291906001019190505543016040518082815260200191505060405180910390209350600060010292506000915060e0604051908101604052803373ffffffffffffffffffffffffffffffffffffffff1681526020018773ffffffffffffffffffffffffffffffffffffffff168152602001348152602001846000191681526020018663ffffffff1681526020018381526020018263ffffffff16815250600080866000191660001916815260200190815260200160002060008201518160000160006101000a81548173ffffffffffffffffffffffffffffffffffffffff021916908373ffffffffffffffffffffffffffffffffffffffff16021790555060208201518160010160006101000a81548173ffffffffffffffffffffffffffffffffffffffff021916908373ffffffffffffffffffffffffffffffffffffffff160217905550604082015181600201556060820151816003019060001916905560808201518160040160006101000a81548163ffffffff021916908363ffffffff16021790555060a0820151816005015560c08201518160060160006101000a81548163ffffffff021916908363ffffffff16021790555090505083600019167f3acaf6c81b0902ff892efc6d8b28af3c95b986755aeddf843449789733f92c5360405160405180910390a2505050505050565b600030848484604051808573ffffffffffffffffffffffffffffffffffffffff1673ffffffffffffffffffffffffffffffffffffffff166c0100000000000000000000000002815260140184600019166000191681526020018360001916600019168152602001828152602001945050505050604051809103902090509392505050565b6000806000806000866000191660001916815260200190815260200160002091508373ffffffffffffffffffffffffffffffffffffffff168260000160009054906101000a900473ffffffffffffffffffffffffffffffffffffffff1673ffffffffffffffffffffffffffffffffffffffff1614806116bd57508373ffffffffffffffffffffffffffffffffffffffff168260010160009054906101000a900473ffffffffffffffffffffffffffffffffffffffff1673ffffffffffffffffffffffffffffffffffffffff16145b90506116c885611b17565b80156116d15750805b9250505092915050565b60006116ea8686868686610fad565b15156116f557600080fd5b6000808760001916600019168152602001908152602001600020905083816003018160001916905550848160060160006101000a81548163ffffffff021916908363ffffffff16021790555043816005018190555085600019167f74fb75c3de2cff5e8a78cf9b1f49a5bea60126b42ed45bb4b2b25b7da03e4d1b60405160405180910390a2505050505050565b60006117928686868686611f3a565b151561179d57600080fd5b6000808760001916600019168152602001908152602001600020905083816003018160001916905550848160060160006101000a81548163ffffffff021916908363ffffffff16021790555085600019167f13eeea23baf03cd1562c1bfec13cfc1e7351e5722dcd9080cf2cad346c81521d8560405180826000191660001916815260200191505060405180910390a2505050505050565b6000806000806000808960001916600019168152602001908152602001600020925073__MerkleProof___________________________63101f13e2888560030154896000604051602001526040518463ffffffff167c0100000000000000000000000000000000000000000000000000000000028152600401808060200184600019166000191681526020018360001916600019168152602001828103825285818151815260200191508051906020019080838360005b838110156119085780820151818401526020810190506118ed565b50505050905090810190601f1680156119355780820380516001836020036101000a031916815260200191505b5094505050505060206040518083038186803b151561195357600080fd5b6102c65a03f4151561196457600080fd5b5050506040518051905091508473ffffffffffffffffffffffffffffffffffffffff168360000160009054906101000a900473ffffffffffffffffffffffffffffffffffffffff1673ffffffffffffffffffffffffffffffffffffffff161480611a1d57508473ffffffffffffffffffffffffffffffffffffffff168360010160009054906101000a900473ffffffffffffffffffffffffffffffffffffffff1673ffffffffffffffffffffffffffffffffffffffff16145b9050611a2888611e24565b8015611a315750815b8015611a3a5750805b9350505050949350505050565b6000806000808460001916600019168152602001908152602001600020905080600501544310915050919050565b60006020528060005260406000206000915090508060000160009054906101000a900473ffffffffffffffffffffffffffffffffffffffff16908060010160009054906101000a900473ffffffffffffffffffffffffffffffffffffffff16908060020154908060030154908060040160009054906101000a900463ffffffff16908060050154908060060160009054906101000a900463ffffffff16905087565b6000806000808460001916600019168152602001908152602001600020905060008160000160009054906101000a900473ffffffffffffffffffffffffffffffffffffffff1673ffffffffffffffffffffffffffffffffffffffff1614158015611b85575060008160050154145b915050919050565b600080600080611b9b61279b565b600080600080600098505b8951891015611e1757602089018a01519750604089018a01519650606089018a0151955085604051805910611bd85750595b9080825280601f01601f19166020018201604052509450600093505b85841015611ca3578960608a860101815181101515611c0f57fe5b9060200101517f010000000000000000000000000000000000000000000000000000000000000090047f0100000000000000000000000000000000000000000000000000000000000000028585815181101515611c6857fe5b9060200101907effffffffffffffffffffffffffffffffffffffffffffffffffffffffffffff1916908160001a905350600184019350611bf4565b611cae8b888a61156b565b92506000808c600019166000191681526020019081526020016000209150611cdb85836003015485610e97565b90507f05971c33471d45c438a99772365b00ee6753cc33541e7beab69f61035f3148ec8888878d85604051808681526020018560001916600019168152602001806020018060200184151515158152602001838103835286818151815260200191508051906020019080838360005b83811015611d65578082015181840152602081019050611d4a565b50505050905090810190601f168015611d925780820380516001836020036101000a031916815260200191505b50838103825285818151815260200191508051906020019080838360005b83811015611dcb578082015181840152602081019050611db0565b50505050905090810190601f168015611df85780820380516001836020036101000a031916815260200191505b5097505050505050505060405180910390a18560600189019850611ba6565b5050505050505050505050565b6000806000808460001916600019168152602001908152602001600020905080600501546000108015611e5b575043816005015411155b915050919050565b60003084848460405180807f73000000000000000000000000000000000000000000000000000000000000008152506001018573ffffffffffffffffffffffffffffffffffffffff1673ffffffffffffffffffffffffffffffffffffffff166c0100000000000000000000000002815260140184600019166000191681526020018363ffffffff1663ffffffff167c01000000000000000000000000000000000000000000000000000000000281526004018260001916600019168152602001945050505050604051809103902090509392505050565b6000806000806000806000808c600019166000191681526020019081526020016000209450611f72611f6d8c8c8c612339565b61227c565b935073__ECRecovery____________________________6319045a25858a6000604051602001526040518363ffffffff167c010000000000000000000000000000000000000000000000000000000002815260040180836000191660001916815260200180602001828103825283818151815260200191508051906020019080838360005b83811015612012578082015181840152602081019050611ff7565b50505050905090810190601f16801561203f5780820380516001836020036101000a031916815260200191505b50935050505060206040518083038186803b151561205c57600080fd5b6102c65a03f4151561206d57600080fd5b5050506040518051905073ffffffffffffffffffffffffffffffffffffffff168560000160009054906101000a900473ffffffffffffffffffffffffffffffffffffffff1673ffffffffffffffffffffffffffffffffffffffff1614925073__ECRecovery____________________________6319045a2585896000604051602001526040518363ffffffff167c010000000000000000000000000000000000000000000000000000000002815260040180836000191660001916815260200180602001828103825283818151815260200191508051906020019080838360005b8381101561216957808201518184015260208101905061214e565b50505050905090810190601f1680156121965780820380516001836020036101000a031916815260200191505b50935050505060206040518083038186803b15156121b357600080fd5b6102c65a03f415156121c457600080fd5b5050506040518051905073ffffffffffffffffffffffffffffffffffffffff168560010160009054906101000a900473ffffffffffffffffffffffffffffffffffffffff1673ffffffffffffffffffffffffffffffffffffffff161491508460060160009054906101000a900463ffffffff1663ffffffff168a63ffffffff161190506122508b611e24565b15801561225a5750805b80156122635750825b801561226c5750815b9550505050505095945050505050565b600061228661279b565b6040805190810160405280601c81526020017f19457468657265756d205369676e6564204d6573736167653a0a333200000000815250905080836040518083805190602001908083835b6020831015156122f557805182526020820191506020810190506020830392506122d0565b6001836020036101000a0380198251168184511680821785525050505050509050018260001916600019168152602001925050506040518091039020915050919050565b60003084848460405180807f75000000000000000000000000000000000000000000000000000000000000008152506001018573ffffffffffffffffffffffffffffffffffffffff1673ffffffffffffffffffffffffffffffffffffffff166c0100000000000000000000000002815260140184600019166000191681526020018363ffffffff1663ffffffff167c01000000000000000000000000000000000000000000000000000000000281526004018260001916600019168152602001945050505050604051809103902090509392505050565b600061241c82336115ef565b151561242757600080fd5b600080836000191660001916815260200190815260200160002090508060040160009054906101000a900463ffffffff1663ffffffff164301816005018190555081600019167fd6461a3a92fd600fe23f236b2e25c2fd0c197a66b2f990989f0b210d578f461760405160405180910390a25050565b60008060008060008060008a6000191660001916815260200190815260200160002093506124d36124ce8a8a6112ef565b61227c565b925073__ECRecovery____________________________6319045a2584896000604051602001526040518363ffffffff167c010000000000000000000000000000000000000000000000000000000002815260040180836000191660001916815260200180602001828103825283818151815260200191508051906020019080838360005b83811015612573578082015181840152602081019050612558565b50505050905090810190601f1680156125a05780820380516001836020036101000a031916815260200191505b50935050505060206040518083038186803b15156125bd57600080fd5b6102c65a03f415156125ce57600080fd5b5050506040518051905073ffffffffffffffffffffffffffffffffffffffff168460000160009054906101000a900473ffffffffffffffffffffffffffffffffffffffff1673ffffffffffffffffffffffffffffffffffffffff1614915073__ECRecovery____________________________6319045a2584886000604051602001526040518363ffffffff167c010000000000000000000000000000000000000000000000000000000002815260040180836000191660001916815260200180602001828103825283818151815260200191508051906020019080838360005b838110156126ca5780820151818401526020810190506126af565b50505050905090810190601f1680156126f75780820380516001836020036101000a031916815260200191505b50935050505060206040518083038186803b151561271457600080fd5b6102c65a03f4151561272557600080fd5b5050506040518051905073ffffffffffffffffffffffffffffffffffffffff168460010160009054906101000a900473ffffffffffffffffffffffffffffffffffffffff1673ffffffffffffffffffffffffffffffffffffffff1614905081801561278d5750805b945050505050949350505050565b6020604051908101604052806000815250905600a165627a7a723058202c3fb368200deb5ebd95011ce397a2ba478f2d3bad5f6bfd22cac4ebacf2e1670029",
  "source": "pragma solidity ^0.4.18;\n\nimport \"zeppelin-solidity/contracts/math/SafeMath.sol\";\nimport \"zeppelin-solidity/contracts/ECRecovery.sol\";\nimport \"zeppelin-solidity/contracts/MerkleProof.sol\";\n\n\n/**\n * @title Payment Channels Broker\n * @author Sergey Ukustov <sergey.ukustov@machinomy.com>\n */\n\ncontract Broker {\n    using SafeMath for uint256;\n\n    struct PaymentChannel {\n        address sender;\n        address receiver;\n        uint256 value;\n\n        bytes32 merkleRoot;\n\n        uint32 settlingPeriod;\n        uint256 settlingUntil;\n\n        uint32 nonce;\n    }\n\n    mapping (bytes32 => PaymentChannel) public channels;\n\n    uint256 id;\n\n    event DidOpen(bytes32 indexed channelId);\n    event DidUpdate(bytes32 indexed channelId, bytes32 merkleRoot);\n    event DidStartSettling(bytes32 indexed channelId);\n    event DidSettle(bytes32 indexed channelId);\n    event DidWithdraw(bytes32 indexed channelId, address destination, bytes32 indexed hashlock, bytes32 indexed preimage, uint256 amount);\n    event DidClose(bytes32 indexed channelId);\n\n    function Broker() public {\n        id = 0;\n    }\n\n    function open(address receiver, uint32 settlingPeriod) public payable {\n        bytes32 channelId = keccak256(block.number + id++);\n        bytes32 merkleRoot = 0;\n        uint256 settlingUntil = 0;\n        uint32 nonce;\n        channels[channelId] = PaymentChannel(\n            msg.sender,\n            receiver,\n            msg.value,\n            merkleRoot,\n            settlingPeriod,\n            settlingUntil,\n            nonce\n        );\n        DidOpen(channelId);\n    }\n\n    function canStartSettling(bytes32 channelId, address origin) public view returns(bool) {\n        var channel = channels[channelId];\n        bool isParty = (channel.sender == origin) || (channel.receiver == origin);\n        return isOpen(channelId) && isParty;\n    }\n\n    function startSettling(bytes32 channelId) public {\n        require(canStartSettling(channelId, msg.sender));\n\n        var channel = channels[channelId];\n        channel.settlingUntil = block.number + channel.settlingPeriod;\n\n        DidStartSettling(channelId);\n    }\n\n    function settleFingerprint(bytes32 channelId, uint32  nonce, bytes32 merkleRoot) public view returns(bytes32) {\n        return keccak256(\"s\", address(this), channelId, nonce, merkleRoot);\n    }\n\n    function canSettle(bytes32 channelId, uint32 nonce, bytes32 merkleRoot, bytes senderSig, bytes receiverSig) public view returns(bool) {\n        var channel = channels[channelId];\n        var digest = signatureDigest(settleFingerprint(channelId, nonce, merkleRoot));\n        bool isSignedBySender = channel.sender == ECRecovery.recover(digest, senderSig);\n        bool isSignedByReceiver = channel.receiver == ECRecovery.recover(digest, receiverSig);\n        bool isHigherNonce = nonce > channel.nonce;\n        return !isSettled(channelId) && isHigherNonce && isSignedBySender && isSignedByReceiver;\n    }\n\n    function settle(bytes32 channelId, uint32 nonce, bytes32 merkleRoot, bytes senderSig, bytes receiverSig) public {\n        require(canSettle(channelId, nonce, merkleRoot, senderSig, receiverSig));\n\n        var channel = channels[channelId];\n        channel.merkleRoot = merkleRoot;\n        channel.nonce = nonce;\n        channel.settlingUntil = block.number;\n\n        DidSettle(channelId);\n    }\n\n    function updateFingerprint(bytes32 channelId, uint32 nonce, bytes32 merkleRoot) public view returns(bytes32) {\n        return keccak256(\"u\", address(this), channelId, nonce, merkleRoot);\n    }\n\n    function canUpdate(bytes32 channelId, uint32 nonce, bytes32 merkleRoot, bytes senderSig, bytes receiverSig) public view returns(bool) {\n        var channel = channels[channelId];\n        var digest = signatureDigest(updateFingerprint(channelId, nonce, merkleRoot));\n        bool isSignedBySender = channel.sender == ECRecovery.recover(digest, senderSig);\n        bool isSignedByReceiver = channel.receiver == ECRecovery.recover(digest, receiverSig);\n        bool isHigherNonce = nonce > channel.nonce;\n        return !isSettled(channelId) && isHigherNonce && isSignedBySender && isSignedByReceiver;\n    }\n\n    function update(bytes32 channelId, uint32 nonce, bytes32 merkleRoot, bytes senderSig, bytes receiverSig) public {\n        require(canUpdate(channelId, nonce, merkleRoot, senderSig, receiverSig));\n\n        var channel = channels[channelId];\n        channel.merkleRoot = merkleRoot;\n        channel.nonce = nonce;\n\n        DidUpdate(channelId, merkleRoot);\n    }\n\n    event PTRace(bytes32 element);\n    function verifyProof(bytes _proof, bytes32 _root, bytes32 _leaf) public returns (bool) {\n        if (_proof.length % 32 != 0) {\n            return false;\n        }\n\n        bytes32 proofElement;\n        bytes32 computedHash = _leaf;\n\n        for (uint256 i = 32; i <= _proof.length; i += 32) {\n            assembly {\n            // Load the current element of the proof\n                proofElement := mload(add(_proof, i))\n            }\n            PTRace(proofElement);\n            if (computedHash < proofElement) {\n                // Hash(current computed hash + current element of the proof)\n                computedHash = keccak256(computedHash, proofElement);\n            } else {\n                // Hash(current element of the proof + current computed hash)\n                computedHash = keccak256(proofElement, computedHash);\n            }\n        }\n\n        // Check if the computed hash (root) is equal to the provided root\n        return computedHash == _root;\n    }\n\n    event Trace(int256 amount, bytes32 preimage, bytes proof, bytes withdrawal, bool canW);\n    function withdrawFast(bytes32 channelId, bytes withdrawal) public {\n        uint256 offset = 0;\n        while (offset < withdrawal.length) {\n            int256 amount;\n            bytes32 preimage;\n            uint256 proofLength;\n            assembly {\n                amount := mload(add(withdrawal, add(offset, 32)))\n                preimage := mload(add(withdrawal, add(offset, 64)))\n                proofLength := mload(add(withdrawal, add(offset, 96)))\n            }\n            bytes memory proof = new bytes(proofLength);\n            for (uint256 i = 0; i < proofLength; i += 1) {\n                proof[i] = withdrawal[i + offset + 96];\n            }\n            var hashlock = toHashlock(channelId, preimage, amount);\n            var channel = channels[channelId];\n            var isProof = verifyProof(proof, channel.merkleRoot, hashlock);\n            Trace(amount, preimage, proof, withdrawal, isProof);\n            offset += 96 + proofLength;\n        }\n    }\n\n    function canWithdraw(bytes32 channelId, bytes proof, bytes32 hashlock, address origin) public view returns(bool) {\n        var channel = channels[channelId];\n        var isProof = MerkleProof.verifyProof(proof, channel.merkleRoot, hashlock);\n        bool isParty = (channel.sender == origin) || (channel.receiver == origin);\n        return isSettled(channelId) && isProof && isParty;\n    }\n\n    function withdraw(bytes32 channelId, bytes proof, bytes32 preimage, int256 amount) public {\n        var hashlock = toHashlock(channelId, preimage, amount);\n        require(canWithdraw(channelId, proof, hashlock, msg.sender));\n\n        var channel = channels[channelId];\n        uint256 payment;\n        address destination;\n\n        if (amount >= 0) {\n            payment = uint256(amount);\n            destination = channel.receiver;\n        } else {\n            payment = uint256(-amount);\n            destination = channel.sender;\n        }\n\n        channel.value -= payment;\n        require(destination.send(payment));\n        DidWithdraw(channelId, destination, hashlock, preimage, payment);\n\n        if (channel.value == 0) {\n            delete channels[channelId];\n            DidClose(channelId);\n        }\n    }\n\n    /** Digest **/\n    function isSignedPayment(bytes32 channelId, bytes32 merkleRoot, bytes senderSig, bytes receiverSig) public view returns(bool) {\n        var channel = channels[channelId];\n        var digest = signatureDigest(paymentDigest(channelId, merkleRoot));\n        bool isSignedBySender = channel.sender == ECRecovery.recover(digest, senderSig);\n        bool isSignedByReceiver = channel.receiver == ECRecovery.recover(digest, receiverSig);\n        return isSignedBySender && isSignedByReceiver;\n    }\n\n    function paymentDigest(bytes32 channelId, bytes32 merkleRoot) public view returns(bytes32) {\n        return keccak256(address(this), channelId, merkleRoot);\n    }\n\n    function signatureDigest(bytes32 digest) public pure returns(bytes32) {\n        bytes memory prefix = \"\\x19Ethereum Signed Message:\\n32\";\n        return keccak256(prefix, digest);\n    }\n\n    /** Hashlocks and Merkle Trees **/\n\n    function toHashlock(bytes32 channelId, bytes32 preimage, int256 amount) public view returns (bytes32) {\n        return keccak256(address(this), channelId, preimage, amount);\n    }\n\n    /** Channel State **/\n    function isPresent(bytes32 channelId) public view returns(bool) {\n        var channel = channels[channelId];\n        return channel.sender != 0;\n    }\n\n    function isOpen(bytes32 channelId) public view returns(bool) {\n        var channel = channels[channelId];\n        return channel.sender != 0 && channel.settlingUntil == 0;\n    }\n\n    function isSettling(bytes32 channelId) public view returns(bool) {\n        var channel = channels[channelId];\n        return block.number < channel.settlingUntil;\n    }\n\n    function isSettled(bytes32 channelId) public view returns(bool) {\n        var channel = channels[channelId];\n        return 0 < channel.settlingUntil && channel.settlingUntil <= block.number;\n    }\n}\n",
  "sourcePath": "/Users/ukstv/Documents/Pro/Machinomy/machinomy-contracts/contracts/Broker.sol",
  "compiler": {
    "name": "solc",
    "version": "0.4.18+commit.9cf6e910.Emscripten.clang"
  },
  "schemaVersion": "1.0.1",
  "updatedAt": "2018-01-02T23:01:23.910Z"
}