{
  "contractName": "Broker",
  "abi": [
    {
      "constant": true,
      "inputs": [
        {
          "name": "channelId",
          "type": "bytes32"
        }
      ],
      "name": "getState",
      "outputs": [
        {
          "name": "",
          "type": "uint8"
        }
      ],
      "payable": false,
      "stateMutability": "view",
      "type": "function"
    },
    {
      "constant": false,
      "inputs": [
        {
          "name": "channelId",
          "type": "bytes32"
        },
        {
          "name": "payment",
          "type": "uint256"
        },
        {
          "name": "v",
          "type": "uint8"
        },
        {
          "name": "r",
          "type": "bytes32"
        },
        {
          "name": "s",
          "type": "bytes32"
        }
      ],
      "name": "claim",
      "outputs": [],
      "payable": false,
      "stateMutability": "nonpayable",
      "type": "function"
    },
    {
      "constant": false,
      "inputs": [
        {
          "name": "channelId",
          "type": "bytes32"
        }
      ],
      "name": "close",
      "outputs": [],
      "payable": false,
      "stateMutability": "nonpayable",
      "type": "function"
    },
    {
      "constant": true,
      "inputs": [
        {
          "name": "sender",
          "type": "address"
        },
        {
          "name": "channelId",
          "type": "bytes32"
        }
      ],
      "name": "canFinishSettle",
      "outputs": [
        {
          "name": "",
          "type": "bool"
        }
      ],
      "payable": false,
      "stateMutability": "view",
      "type": "function"
    },
    {
      "constant": false,
      "inputs": [
        {
          "name": "receiver",
          "type": "address"
        },
        {
          "name": "duration",
          "type": "uint256"
        },
        {
          "name": "settlementPeriod",
          "type": "uint256"
        }
      ],
      "name": "createChannel",
      "outputs": [
        {
          "name": "",
          "type": "bytes32"
        }
      ],
      "payable": true,
      "stateMutability": "payable",
      "type": "function"
    },
    {
      "constant": true,
      "inputs": [
        {
          "name": "sender",
          "type": "address"
        },
        {
          "name": "channelId",
          "type": "bytes32"
        }
      ],
      "name": "canStartSettle",
      "outputs": [
        {
          "name": "",
          "type": "bool"
        }
      ],
      "payable": false,
      "stateMutability": "view",
      "type": "function"
    },
    {
      "constant": false,
      "inputs": [
        {
          "name": "channelId",
          "type": "bytes32"
        }
      ],
      "name": "finishSettle",
      "outputs": [],
      "payable": false,
      "stateMutability": "nonpayable",
      "type": "function"
    },
    {
      "constant": false,
      "inputs": [
        {
          "name": "channelId",
          "type": "bytes32"
        },
        {
          "name": "payment",
          "type": "uint256"
        }
      ],
      "name": "settle",
      "outputs": [],
      "payable": false,
      "stateMutability": "nonpayable",
      "type": "function"
    },
    {
      "constant": false,
      "inputs": [],
      "name": "destroy",
      "outputs": [],
      "payable": false,
      "stateMutability": "nonpayable",
      "type": "function"
    },
    {
      "constant": true,
      "inputs": [],
      "name": "owner",
      "outputs": [
        {
          "name": "",
          "type": "address"
        }
      ],
      "payable": false,
      "stateMutability": "view",
      "type": "function"
    },
    {
      "constant": false,
      "inputs": [
        {
          "name": "channelId",
          "type": "bytes32"
        },
        {
          "name": "payment",
          "type": "uint256"
        }
      ],
      "name": "startSettle",
      "outputs": [],
      "payable": false,
      "stateMutability": "nonpayable",
      "type": "function"
    },
    {
      "constant": false,
      "inputs": [
        {
          "name": "channelId",
          "type": "bytes32"
        }
      ],
      "name": "deposit",
      "outputs": [],
      "payable": true,
      "stateMutability": "payable",
      "type": "function"
    },
    {
      "constant": true,
      "inputs": [
        {
          "name": "channelId",
          "type": "bytes32"
        },
        {
          "name": "value",
          "type": "uint256"
        },
        {
          "name": "v",
          "type": "uint8"
        },
        {
          "name": "r",
          "type": "bytes32"
        },
        {
          "name": "s",
          "type": "bytes32"
        }
      ],
      "name": "canClaim",
      "outputs": [
        {
          "name": "",
          "type": "bool"
        }
      ],
      "payable": false,
      "stateMutability": "view",
      "type": "function"
    },
    {
      "constant": true,
      "inputs": [
        {
          "name": "channelId",
          "type": "bytes32"
        }
      ],
      "name": "isOpenChannel",
      "outputs": [
        {
          "name": "",
          "type": "bool"
        }
      ],
      "payable": false,
      "stateMutability": "view",
      "type": "function"
    },
    {
      "constant": true,
      "inputs": [
        {
          "name": "sender",
          "type": "address"
        },
        {
          "name": "channelId",
          "type": "bytes32"
        }
      ],
      "name": "canDeposit",
      "outputs": [
        {
          "name": "",
          "type": "bool"
        }
      ],
      "payable": false,
      "stateMutability": "view",
      "type": "function"
    },
    {
      "constant": true,
      "inputs": [
        {
          "name": "channelId",
          "type": "bytes32"
        }
      ],
      "name": "getPayment",
      "outputs": [
        {
          "name": "",
          "type": "uint256"
        }
      ],
      "payable": false,
      "stateMutability": "view",
      "type": "function"
    },
    {
      "constant": true,
      "inputs": [
        {
          "name": "channelId",
          "type": "bytes32"
        }
      ],
      "name": "getUntil",
      "outputs": [
        {
          "name": "",
          "type": "uint256"
        }
      ],
      "payable": false,
      "stateMutability": "view",
      "type": "function"
    },
    {
      "constant": false,
      "inputs": [
        {
          "name": "newOwner",
          "type": "address"
        }
      ],
      "name": "transferOwnership",
      "outputs": [],
      "payable": false,
      "stateMutability": "nonpayable",
      "type": "function"
    },
    {
      "constant": false,
      "inputs": [
        {
          "name": "_recipient",
          "type": "address"
        }
      ],
      "name": "destroyAndSend",
      "outputs": [],
      "payable": false,
      "stateMutability": "nonpayable",
      "type": "function"
    },
    {
      "inputs": [
        {
          "name": "_chainId",
          "type": "uint32"
        }
      ],
      "payable": false,
      "stateMutability": "nonpayable",
      "type": "constructor"
    },
    {
      "anonymous": false,
      "inputs": [
        {
          "indexed": false,
          "name": "channelId",
          "type": "bytes32"
        },
        {
          "indexed": true,
          "name": "sender",
          "type": "address"
        },
        {
          "indexed": true,
          "name": "receiver",
          "type": "address"
        },
        {
          "indexed": false,
          "name": "value",
          "type": "uint256"
        },
        {
          "indexed": false,
          "name": "settlementPeriod",
          "type": "uint256"
        },
        {
          "indexed": false,
          "name": "until",
          "type": "uint256"
        }
      ],
      "name": "DidCreateChannel",
      "type": "event"
    },
    {
      "anonymous": false,
      "inputs": [
        {
          "indexed": true,
          "name": "channelId",
          "type": "bytes32"
        },
        {
          "indexed": false,
          "name": "value",
          "type": "uint256"
        }
      ],
      "name": "DidDeposit",
      "type": "event"
    },
    {
      "anonymous": false,
      "inputs": [
        {
          "indexed": true,
          "name": "channelId",
          "type": "bytes32"
        },
        {
          "indexed": false,
          "name": "payment",
          "type": "uint256"
        }
      ],
      "name": "DidStartSettle",
      "type": "event"
    },
    {
      "anonymous": false,
      "inputs": [
        {
          "indexed": true,
          "name": "channelId",
          "type": "bytes32"
        },
        {
          "indexed": false,
          "name": "payment",
          "type": "uint256"
        },
        {
          "indexed": false,
          "name": "oddValue",
          "type": "uint256"
        }
      ],
      "name": "DidSettle",
      "type": "event"
    },
    {
      "anonymous": false,
      "inputs": [
        {
          "indexed": true,
          "name": "previousOwner",
          "type": "address"
        },
        {
          "indexed": true,
          "name": "newOwner",
          "type": "address"
        }
      ],
      "name": "OwnershipTransferred",
      "type": "event"
    }
  ],
  "bytecode": "0x6060604052341561000f57600080fd5b6040516020806118ac83398101604052808051906020019091905050336000806101000a81548173ffffffffffffffffffffffffffffffffffffffff021916908373ffffffffffffffffffffffffffffffffffffffff16021790555080600260006101000a81548163ffffffff021916908363ffffffff1602179055506000600260046101000a81548163ffffffff021916908363ffffffff160217905550506117ee806100be6000396000f300606060405260043610610107576000357c0100000000000000000000000000000000000000000000000000000000900463ffffffff16806309648a9d1461010c578063129217581461015557806339c79e0c146101ab5780633c46f72f146101d2578063513d144b1461023057806368b45a2c1461028c57806375f99680146102ea57806379f48d4c1461031157806383197ef0146103415780638da5cb5b14610356578063ab40428e146103ab578063b214faa5146103db578063baa77746146103f7578063d0fa96ba14610465578063e20bff5c146104a4578063e66eefc814610502578063f03cd5ca1461053d578063f2fde38b14610578578063f5074f41146105b1575b600080fd5b341561011757600080fd5b6101316004808035600019169060200190919050506105ea565b6040518082600281111561014157fe5b60ff16815260200191505060405180910390f35b341561016057600080fd5b6101a960048080356000191690602001909190803590602001909190803560ff16906020019091908035600019169060200190919080356000191690602001909190505061061f565b005b34156101b657600080fd5b6101d06004808035600019169060200190919050506106d0565b005b34156101dd57600080fd5b610216600480803573ffffffffffffffffffffffffffffffffffffffff1690602001909190803560001916906020019091905050610945565b604051808215151515815260200191505060405180910390f35b61026e600480803573ffffffffffffffffffffffffffffffffffffffff16906020019091908035906020019091908035906020019091905050610a5b565b60405180826000191660001916815260200191505060405180910390f35b341561029757600080fd5b6102d0600480803573ffffffffffffffffffffffffffffffffffffffff1690602001909190803560001916906020019091905050610cc0565b604051808215151515815260200191505060405180910390f35b34156102f557600080fd5b61030f600480803560001916906020019091905050610d6f565b005b341561031c57600080fd5b61033f600480803560001916906020019091908035906020019091905050610daf565b005b341561034c57600080fd5b610354610fbb565b005b341561036157600080fd5b610369611050565b604051808273ffffffffffffffffffffffffffffffffffffffff1673ffffffffffffffffffffffffffffffffffffffff16815260200191505060405180910390f35b34156103b657600080fd5b6103d9600480803560001916906020019091908035906020019091905050611075565b005b6103f5600480803560001916906020019091905050611128565b005b341561040257600080fd5b61044b60048080356000191690602001909190803590602001909190803560ff1690602001909190803560001916906020019091908035600019169060200190919050506111ae565b604051808215151515815260200191505060405180910390f35b341561047057600080fd5b61048a600480803560001916906020019091905050611483565b604051808215151515815260200191505060405180910390f35b34156104af57600080fd5b6104e8600480803573ffffffffffffffffffffffffffffffffffffffff16906020019091908035600019169060200190919050506114e6565b604051808215151515815260200191505060405180910390f35b341561050d57600080fd5b610527600480803560001916906020019091905050611595565b6040518082815260200191505060405180910390f35b341561054857600080fd5b6105626004808035600019169060200190919050506115bd565b6040518082815260200191505060405180910390f35b341561058357600080fd5b6105af600480803573ffffffffffffffffffffffffffffffffffffffff169060200190919050506115e5565b005b34156105bc57600080fd5b6105e8600480803573ffffffffffffffffffffffffffffffffffffffff1690602001909190505061173a565b005b600060016000836000191660001916815260200190815260200160002060040160009054906101000a900460ff169050919050565b61062c85858585856111ae565b151561063757600080fd5b3073ffffffffffffffffffffffffffffffffffffffff166379f48d4c86866040518363ffffffff167c010000000000000000000000000000000000000000000000000000000002815260040180836000191660001916815260200182815260200192505050600060405180830381600087803b15156106b557600080fd5b6102c65a03f115156106c657600080fd5b5050505050505050565b600060016000836000191660001916815260200190815260200160002090506002808111156106fb57fe5b8160040160009054906101000a900460ff16600281111561071857fe5b14801561082557506000809054906101000a900473ffffffffffffffffffffffffffffffffffffffff1673ffffffffffffffffffffffffffffffffffffffff163373ffffffffffffffffffffffffffffffffffffffff1614806107ca57508060000160009054906101000a900473ffffffffffffffffffffffffffffffffffffffff1673ffffffffffffffffffffffffffffffffffffffff163373ffffffffffffffffffffffffffffffffffffffff16145b8061082457508060010160009054906101000a900473ffffffffffffffffffffffffffffffffffffffff1673ffffffffffffffffffffffffffffffffffffffff163373ffffffffffffffffffffffffffffffffffffffff16145b5b15610941576000816002015411156108a0578060000160009054906101000a900473ffffffffffffffffffffffffffffffffffffffff1673ffffffffffffffffffffffffffffffffffffffff166108fc82600201549081150290604051600060405180830381858888f19350505050151561089f57600080fd5b5b600160008360001916600019168152602001908152602001600020600080820160006101000a81549073ffffffffffffffffffffffffffffffffffffffff02191690556001820160006101000a81549073ffffffffffffffffffffffffffffffffffffffff0219169055600282016000905560038201600090556004820160006101000a81549060ff02191690556005820160009055600682016000905550505b5050565b60008060016000846000191660001916815260200190815260200160002090506001600281111561097257fe5b8160040160009054906101000a900460ff16600281111561098f57fe5b148015610a4257508060000160009054906101000a900473ffffffffffffffffffffffffffffffffffffffff1673ffffffffffffffffffffffffffffffffffffffff168473ffffffffffffffffffffffffffffffffffffffff161480610a4157506000809054906101000a900473ffffffffffffffffffffffffffffffffffffffff1673ffffffffffffffffffffffffffffffffffffffff168473ffffffffffffffffffffffffffffffffffffffff16145b5b8015610a52575042816005015411155b91505092915050565b6000806000806002600481819054906101000a900463ffffffff168092919060010191906101000a81548163ffffffff021916908363ffffffff16021790555063ffffffff164201604051808281526020019150506040518091039020925033915034905060e0604051908101604052808373ffffffffffffffffffffffffffffffffffffffff1681526020018873ffffffffffffffffffffffffffffffffffffffff16815260200182815260200186815260200160006002811115610b1d57fe5b81526020018742018152602001600081525060016000856000191660001916815260200190815260200160002060008201518160000160006101000a81548173ffffffffffffffffffffffffffffffffffffffff021916908373ffffffffffffffffffffffffffffffffffffffff16021790555060208201518160010160006101000a81548173ffffffffffffffffffffffffffffffffffffffff021916908373ffffffffffffffffffffffffffffffffffffffff160217905550604082015181600201556060820151816003015560808201518160040160006101000a81548160ff02191690836002811115610c1057fe5b021790555060a0820151816005015560c082015181600601559050508673ffffffffffffffffffffffffffffffffffffffff168273ffffffffffffffffffffffffffffffffffffffff167f2168a0a10cb12f43941acf9cdef54ba002be7269f2b8b38d4ee9e54eb48a46628584898b420160405180856000191660001916815260200184815260200183815260200182815260200194505050505060405180910390a38293505050509392505050565b600080600160008460001916600019168152602001908152602001600020905060006002811115610ced57fe5b8160040160009054906101000a900460ff166002811115610d0a57fe5b148015610d6657508373ffffffffffffffffffffffffffffffffffffffff168160000160009054906101000a900473ffffffffffffffffffffffffffffffffffffffff1673ffffffffffffffffffffffffffffffffffffffff16145b91505092915050565b610d793382610945565b1515610d8457600080fd5b610dac8160016000846000191660001916815260200190815260200160002060060154610daf565b50565b60008060006001600086600019166000191681526020019081526020016000209250839150600090508260020154841115610e5457826002015491508260010160009054906101000a900473ffffffffffffffffffffffffffffffffffffffff1673ffffffffffffffffffffffffffffffffffffffff166108fc839081150290604051600060405180830381858888f193505050501515610e4f57600080fd5b610f30565b8260010160009054906101000a900473ffffffffffffffffffffffffffffffffffffffff1673ffffffffffffffffffffffffffffffffffffffff166108fc839081150290604051600060405180830381858888f193505050501515610eb857600080fd5b8183600201540390508260000160009054906101000a900473ffffffffffffffffffffffffffffffffffffffff1673ffffffffffffffffffffffffffffffffffffffff166108fc829081150290604051600060405180830381858888f193505050501515610f2557600080fd5b600083600201819055505b600260016000876000191660001916815260200190815260200160002060040160006101000a81548160ff02191690836002811115610f6b57fe5b021790555084600019167fabfecb41642f4ef37a31c1721c2da0a771e03d530ea99bf54d900d29130f51258583604051808381526020018281526020019250505060405180910390a25050505050565b6000809054906101000a900473ffffffffffffffffffffffffffffffffffffffff1673ffffffffffffffffffffffffffffffffffffffff163373ffffffffffffffffffffffffffffffffffffffff1614151561101657600080fd5b6000809054906101000a900473ffffffffffffffffffffffffffffffffffffffff1673ffffffffffffffffffffffffffffffffffffffff16ff5b6000809054906101000a900473ffffffffffffffffffffffffffffffffffffffff1681565b60006110813384610cc0565b151561108c57600080fd5b600160008460001916600019168152602001908152602001600020905060018160040160006101000a81548160ff021916908360028111156110ca57fe5b021790555080600301544201816005018190555081816006018190555082600019167f673a31efff5b18f60225e513fd4f0f53c708661f184c1898f5c52e85bd95d500836040518082815260200191505060405180910390a2505050565b600061113433836114e6565b151561113f57600080fd5b600160008360001916600019168152602001908152602001600020905034816002016000828254019250508190555081600019167f6f850cda6d6b2f5cca622bc2d4739e4ed917c12d29f9a92b9e6c127abe398424346040518082815260200191505060405180910390a25050565b6000806111b96117ae565b600080600160008b6000191660001916815260200190815260200160002093506040805190810160405280601c81526020017f19457468657265756d205369676e6564204d6573736167653a0a3332000000008152509250898930600260009054906101000a900463ffffffff166040518085600019166000191681526020018481526020018373ffffffffffffffffffffffffffffffffffffffff1673ffffffffffffffffffffffffffffffffffffffff166c010000000000000000000000000281526014018263ffffffff1663ffffffff167c01000000000000000000000000000000000000000000000000000000000281526004019450505050506040518091039020915082826040518083805190602001908083835b6020831015156112f857805182526020820191506020810190506020830392506112d3565b6001836020036101000a038019825116818451168082178552505050505050905001826000191660001916815260200192505050604051809103902090506000600281111561134357fe5b8460040160009054906101000a900460ff16600281111561136057fe5b148061139357506001600281111561137457fe5b8460040160009054906101000a900460ff16600281111561139157fe5b145b80156114745750600181898989604051600081526020016040526000604051602001526040518085600019166000191681526020018460ff1660ff16815260200183600019166000191681526020018260001916600019168152602001945050505050602060405160208103908084039060008661646e5a03f1151561141857600080fd5b50506020604051035173ffffffffffffffffffffffffffffffffffffffff168460000160009054906101000a900473ffffffffffffffffffffffffffffffffffffffff1673ffffffffffffffffffffffffffffffffffffffff16145b94505050505095945050505050565b6000806001600084600019166000191681526020019081526020016000209050600060028111156114b057fe5b8160040160009054906101000a900460ff1660028111156114cd57fe5b1480156114de575042816005015410155b915050919050565b60008060016000846000191660001916815260200190815260200160002090506000600281111561151357fe5b8160040160009054906101000a900460ff16600281111561153057fe5b14801561158c57508373ffffffffffffffffffffffffffffffffffffffff168160000160009054906101000a900473ffffffffffffffffffffffffffffffffffffffff1673ffffffffffffffffffffffffffffffffffffffff16145b91505092915050565b6000600160008360001916600019168152602001908152602001600020600601549050919050565b6000600160008360001916600019168152602001908152602001600020600501549050919050565b6000809054906101000a900473ffffffffffffffffffffffffffffffffffffffff1673ffffffffffffffffffffffffffffffffffffffff163373ffffffffffffffffffffffffffffffffffffffff1614151561164057600080fd5b600073ffffffffffffffffffffffffffffffffffffffff168173ffffffffffffffffffffffffffffffffffffffff161415151561167c57600080fd5b8073ffffffffffffffffffffffffffffffffffffffff166000809054906101000a900473ffffffffffffffffffffffffffffffffffffffff1673ffffffffffffffffffffffffffffffffffffffff167f8be0079c531659141344cd1fd0a4f28419497f9722a3daafe3b4186f6b6457e060405160405180910390a3806000806101000a81548173ffffffffffffffffffffffffffffffffffffffff021916908373ffffffffffffffffffffffffffffffffffffffff16021790555050565b6000809054906101000a900473ffffffffffffffffffffffffffffffffffffffff1673ffffffffffffffffffffffffffffffffffffffff163373ffffffffffffffffffffffffffffffffffffffff1614151561179557600080fd5b8073ffffffffffffffffffffffffffffffffffffffff16ff5b6020604051908101604052806000815250905600a165627a7a723058209bab7e723f0f88442d485b503461f4c78e1b2abba7f99a6afdb32875c9001efa0029",
  "source": "pragma solidity ^0.4.11;\n\nimport \"zeppelin-solidity/contracts/lifecycle/Destructible.sol\";\n\n\ncontract Broker is Destructible {\n    enum ChannelState { Open, Settling, Settled }\n\n    struct PaymentChannel {\n        address sender;\n        address receiver;\n        uint256 value;\n\n        uint settlementPeriod;\n\n        ChannelState state;\n        /* until state is invalid */\n        uint until;\n\n        uint256 payment;\n    }\n\n    mapping(bytes32 => PaymentChannel) channels;\n    uint32 chainId;\n    uint32 id;\n\n    event DidCreateChannel(bytes32 channelId, address indexed sender, address indexed receiver, uint256 value, uint settlementPeriod, uint until);\n    event DidDeposit(bytes32 indexed channelId, uint256 value);\n    event DidStartSettle(bytes32 indexed channelId, uint256 payment);\n    event DidSettle(bytes32 indexed channelId, uint256 payment, uint256 oddValue);\n\n    function Broker(uint32 _chainId) public {\n        chainId = _chainId;\n        id = 0;\n    }\n\n    /******** ACTIONS ********/\n\n    /* Create payment channel */\n    function createChannel(address receiver, uint duration, uint settlementPeriod) public payable returns(bytes32) {\n        var channelId = keccak256(now + id++); // solium-disable-line\n        var sender = msg.sender;\n        var value = msg.value;\n        channels[channelId] = PaymentChannel(\n            sender, receiver, value, settlementPeriod, ChannelState.Open, block.timestamp + duration, 0); // solium-disable-line\n\n        DidCreateChannel(channelId, sender, receiver, value, settlementPeriod, block.timestamp + duration); // solium-disable-line\n\n        return channelId;\n    }\n\n    /* Add funds to the channel */\n    function deposit(bytes32 channelId) public payable {\n        require(canDeposit(msg.sender, channelId));\n\n        var channel = channels[channelId];\n        channel.value += msg.value;\n\n        DidDeposit(channelId, msg.value);\n    }\n\n    function claim(bytes32 channelId, uint256 payment, uint8 v, bytes32 r, bytes32 s) public {\n        require(canClaim(channelId, payment, v, r, s));\n\n        this.settle(channelId, payment);\n    }\n\n    /* Sender starts settling */\n    function startSettle(bytes32 channelId, uint256 payment) public {\n        require(canStartSettle(msg.sender, channelId));\n\n        var channel = channels[channelId];\n        channel.state = ChannelState.Settling;\n        channel.until = now + channel.settlementPeriod; // solium-disable-line\n        channel.payment = payment;\n        DidStartSettle(channelId, payment);\n    }\n\n    /* Sender settles the channel, if receiver have not done that */\n    function finishSettle(bytes32 channelId) public {\n        require(canFinishSettle(msg.sender, channelId));\n        settle(channelId, channels[channelId].payment);\n    }\n\n    function close(bytes32 channelId) public {\n        var channel = channels[channelId];\n        if (channel.state == ChannelState.Settled && (msg.sender == owner || msg.sender == channel.sender || msg.sender == channel.receiver)) {\n            if (channel.value > 0) {\n                require(channel.sender.send(channel.value));\n            }\n            delete channels[channelId];\n        }\n    }\n\n    /******** BEHIND THE SCENES ********/\n\n    function settle(bytes32 channelId, uint256 payment)  public {\n        var channel = channels[channelId];\n        uint256 paid = payment;\n        uint256 change = 0;\n\n        if (payment > channel.value) {\n            paid = channel.value;\n            require(channel.receiver.send(paid));\n        } else {\n            require(channel.receiver.send(paid));\n            change = channel.value - paid;\n            require(channel.sender.send(change));\n            channel.value = 0;\n        }\n\n        channels[channelId].state = ChannelState.Settled;\n        DidSettle(channelId, payment, change);\n    }\n\n    /******** CAN CHECKS ********/\n\n    function canDeposit(address sender, bytes32 channelId) public constant returns(bool) {\n        var channel = channels[channelId];\n        // DW: Do we really need to check that only the sender is allowed to\n        //     deposit?\n        return channel.state == ChannelState.Open &&\n            channel.sender == sender;\n    }\n\n    function canClaim(bytes32 channelId, uint256 value, uint8 v, bytes32 r, bytes32 s) public constant returns(bool) {\n        var channel = channels[channelId];\n        bytes memory prefix = \"\\x19Ethereum Signed Message:\\n32\";\n        bytes32 hh = keccak256(channelId, value, address(this), chainId);\n        bytes32 prefixedHash = keccak256(prefix, hh);\n        return (channel.state == ChannelState.Open || channel.state == ChannelState.Settling) &&\n            channel.sender == ecrecover(prefixedHash, v, r, s);\n    }\n\n    function canStartSettle(address sender, bytes32 channelId) public constant returns(bool) {\n        var channel = channels[channelId];\n        return channel.state == ChannelState.Open &&\n            channel.sender == sender;\n    }\n\n    function canFinishSettle(address sender, bytes32 channelId) public constant returns(bool) {\n        var channel = channels[channelId];\n        return channel.state == ChannelState.Settling && (sender == channel.sender || sender == owner) && channel.until <= now; // solium-disable-line\n    }\n\n    /******** READERS ********/\n\n    function getState(bytes32 channelId) public constant returns(ChannelState) {\n        return channels[channelId].state;\n    }\n\n    function getUntil(bytes32 channelId) public constant returns(uint) {\n        return channels[channelId].until;\n    }\n\n    function getPayment(bytes32 channelId) public constant returns(uint) {\n        return channels[channelId].payment;\n    }\n\n    function isOpenChannel(bytes32 channelId) public constant returns(bool) {\n        var channel = channels[channelId];\n        return channel.state == ChannelState.Open && channel.until >= now; // solium-disable-line\n    }\n}\n",
  "sourcePath": "/Users/ukstv/Documents/Pro/Machinomy/machinomy-contracts/contracts/Broker.sol",
  "compiler": {
    "name": "solc",
    "version": "0.4.18+commit.9cf6e910.Emscripten.clang"
  },
  "schemaVersion": "1.0.1",
  "updatedAt": "2017-12-26T21:23:50.980Z"
}