{
  "contractName": "Destructible",
  "abi": [
    {
      "constant": false,
      "inputs": [],
      "name": "destroy",
      "outputs": [],
      "payable": false,
      "type": "function"
    },
    {
      "constant": true,
      "inputs": [],
      "name": "owner",
      "outputs": [
        {
          "name": "",
          "type": "address"
        }
      ],
      "payable": false,
      "type": "function"
    },
    {
      "constant": false,
      "inputs": [
        {
          "name": "newOwner",
          "type": "address"
        }
      ],
      "name": "transferOwnership",
      "outputs": [],
      "payable": false,
      "type": "function"
    },
    {
      "constant": false,
      "inputs": [
        {
          "name": "_recipient",
          "type": "address"
        }
      ],
      "name": "destroyAndSend",
      "outputs": [],
      "payable": false,
      "type": "function"
    },
    {
      "inputs": [],
      "payable": true,
      "type": "constructor"
    }
  ],
  "bytecode": "0x6060604052336000806101000a81548173ffffffffffffffffffffffffffffffffffffffff021916908373ffffffffffffffffffffffffffffffffffffffff160217905550610372806100536000396000f300606060405260043610610062576000357c0100000000000000000000000000000000000000000000000000000000900463ffffffff16806383197ef0146100675780638da5cb5b1461007c578063f2fde38b146100d1578063f5074f411461010a575b600080fd5b341561007257600080fd5b61007a610143565b005b341561008757600080fd5b61008f6101d8565b604051808273ffffffffffffffffffffffffffffffffffffffff1673ffffffffffffffffffffffffffffffffffffffff16815260200191505060405180910390f35b34156100dc57600080fd5b610108600480803573ffffffffffffffffffffffffffffffffffffffff169060200190919050506101fd565b005b341561011557600080fd5b610141600480803573ffffffffffffffffffffffffffffffffffffffff169060200190919050506102d2565b005b6000809054906101000a900473ffffffffffffffffffffffffffffffffffffffff1673ffffffffffffffffffffffffffffffffffffffff163373ffffffffffffffffffffffffffffffffffffffff1614151561019e57600080fd5b6000809054906101000a900473ffffffffffffffffffffffffffffffffffffffff1673ffffffffffffffffffffffffffffffffffffffff16ff5b6000809054906101000a900473ffffffffffffffffffffffffffffffffffffffff1681565b6000809054906101000a900473ffffffffffffffffffffffffffffffffffffffff1673ffffffffffffffffffffffffffffffffffffffff163373ffffffffffffffffffffffffffffffffffffffff1614151561025857600080fd5b600073ffffffffffffffffffffffffffffffffffffffff168173ffffffffffffffffffffffffffffffffffffffff161415156102cf57806000806101000a81548173ffffffffffffffffffffffffffffffffffffffff021916908373ffffffffffffffffffffffffffffffffffffffff1602179055505b50565b6000809054906101000a900473ffffffffffffffffffffffffffffffffffffffff1673ffffffffffffffffffffffffffffffffffffffff163373ffffffffffffffffffffffffffffffffffffffff1614151561032d57600080fd5b8073ffffffffffffffffffffffffffffffffffffffff16ff00a165627a7a72305820e3ff8b891be23135d0131a12eecac61c5476c0b8147da2d934bab37cae5d1ba80029",
  "source": "pragma solidity ^0.4.11;\n\n\nimport \"../ownership/Ownable.sol\";\n\n\n/**\n * @title Destructible\n * @dev Base contract that can be destroyed by owner. All funds in contract will be sent to the owner.\n */\ncontract Destructible is Ownable {\n\n  function Destructible() payable { } \n\n  /**\n   * @dev Transfers the current balance to the owner and terminates the contract. \n   */\n  function destroy() onlyOwner {\n    selfdestruct(owner);\n  }\n\n  function destroyAndSend(address _recipient) onlyOwner {\n    selfdestruct(_recipient);\n  }\n}\n",
  "sourcePath": "zeppelin-solidity/contracts/lifecycle/Destructible.sol",
  "compiler": {
    "name": "solc",
    "version": "0.4.18+commit.9cf6e910.Emscripten.clang"
  },
  "schemaVersion": "1.0.1",
  "updatedAt": "2017-12-18T16:33:16.319Z",
  "contract_name": "Destructible",
  "unlinked_binary": "0x60606040525b5b60008054600160a060020a03191633600160a060020a03161790555b5b5b6101ce806100336000396000f300606060405263ffffffff7c010000000000000000000000000000000000000000000000000000000060003504166383197ef0811461005e5780638da5cb5b14610073578063f2fde38b146100a2578063f5074f41146100c3575b600080fd5b341561006957600080fd5b6100716100e4565b005b341561007e57600080fd5b610086610110565b604051600160a060020a03909116815260200160405180910390f35b34156100ad57600080fd5b610071600160a060020a036004351661011f565b005b34156100ce57600080fd5b610071600160a060020a0360043516610177565b005b60005433600160a060020a039081169116146100ff57600080fd5b600054600160a060020a0316ff5b5b565b600054600160a060020a031681565b60005433600160a060020a0390811691161461013a57600080fd5b600160a060020a03811615610172576000805473ffffffffffffffffffffffffffffffffffffffff1916600160a060020a0383161790555b5b5b50565b60005433600160a060020a0390811691161461019257600080fd5b80600160a060020a0316ff5b5b505600a165627a7a72305820baae775745abc28e787f2eff79c964878b873bfcde8f97eceab74c7a3ff0fcb90029",
  "schema_version": "0.0.5",
  "updated_at": 1514202253963
}