{
  "contractName": "TokenBroker",
  "abi": [
    {
      "constant": true,
      "inputs": [
        {
          "name": "channelId",
          "type": "bytes32"
        }
      ],
      "name": "getState",
      "outputs": [
        {
          "name": "",
          "type": "uint8"
        }
      ],
      "payable": false,
      "stateMutability": "view",
      "type": "function"
    },
    {
      "constant": false,
      "inputs": [
        {
          "name": "channelId",
          "type": "bytes32"
        },
        {
          "name": "payment",
          "type": "uint256"
        },
        {
          "name": "v",
          "type": "uint8"
        },
        {
          "name": "r",
          "type": "bytes32"
        },
        {
          "name": "s",
          "type": "bytes32"
        }
      ],
      "name": "claim",
      "outputs": [],
      "payable": false,
      "stateMutability": "nonpayable",
      "type": "function"
    },
    {
      "constant": false,
      "inputs": [
        {
          "name": "channelId",
          "type": "bytes32"
        },
        {
          "name": "value",
          "type": "uint256"
        }
      ],
      "name": "deposit",
      "outputs": [],
      "payable": false,
      "stateMutability": "nonpayable",
      "type": "function"
    },
    {
      "constant": false,
      "inputs": [
        {
          "name": "erc20Contract",
          "type": "address"
        },
        {
          "name": "receiver",
          "type": "address"
        },
        {
          "name": "duration",
          "type": "uint256"
        },
        {
          "name": "settlementPeriod",
          "type": "uint256"
        },
        {
          "name": "value",
          "type": "uint256"
        }
      ],
      "name": "createChannel",
      "outputs": [
        {
          "name": "",
          "type": "bytes32"
        }
      ],
      "payable": false,
      "stateMutability": "nonpayable",
      "type": "function"
    },
    {
      "constant": false,
      "inputs": [
        {
          "name": "channelId",
          "type": "bytes32"
        }
      ],
      "name": "close",
      "outputs": [],
      "payable": false,
      "stateMutability": "nonpayable",
      "type": "function"
    },
    {
      "constant": true,
      "inputs": [
        {
          "name": "sender",
          "type": "address"
        },
        {
          "name": "channelId",
          "type": "bytes32"
        }
      ],
      "name": "canFinishSettle",
      "outputs": [
        {
          "name": "",
          "type": "bool"
        }
      ],
      "payable": false,
      "stateMutability": "view",
      "type": "function"
    },
    {
      "constant": true,
      "inputs": [
        {
          "name": "sender",
          "type": "address"
        },
        {
          "name": "channelId",
          "type": "bytes32"
        }
      ],
      "name": "canStartSettle",
      "outputs": [
        {
          "name": "",
          "type": "bool"
        }
      ],
      "payable": false,
      "stateMutability": "view",
      "type": "function"
    },
    {
      "constant": false,
      "inputs": [
        {
          "name": "channelId",
          "type": "bytes32"
        }
      ],
      "name": "finishSettle",
      "outputs": [],
      "payable": false,
      "stateMutability": "nonpayable",
      "type": "function"
    },
    {
      "constant": false,
      "inputs": [
        {
          "name": "channelId",
          "type": "bytes32"
        },
        {
          "name": "payment",
          "type": "uint256"
        }
      ],
      "name": "settle",
      "outputs": [],
      "payable": false,
      "stateMutability": "nonpayable",
      "type": "function"
    },
    {
      "constant": false,
      "inputs": [],
      "name": "destroy",
      "outputs": [],
      "payable": false,
      "stateMutability": "nonpayable",
      "type": "function"
    },
    {
      "constant": true,
      "inputs": [],
      "name": "owner",
      "outputs": [
        {
          "name": "",
          "type": "address"
        }
      ],
      "payable": false,
      "stateMutability": "view",
      "type": "function"
    },
    {
      "constant": false,
      "inputs": [
        {
          "name": "channelId",
          "type": "bytes32"
        },
        {
          "name": "payment",
          "type": "uint256"
        }
      ],
      "name": "startSettle",
      "outputs": [],
      "payable": false,
      "stateMutability": "nonpayable",
      "type": "function"
    },
    {
      "constant": true,
      "inputs": [
        {
          "name": "channelId",
          "type": "bytes32"
        },
        {
          "name": "value",
          "type": "uint256"
        },
        {
          "name": "v",
          "type": "uint8"
        },
        {
          "name": "r",
          "type": "bytes32"
        },
        {
          "name": "s",
          "type": "bytes32"
        }
      ],
      "name": "canClaim",
      "outputs": [
        {
          "name": "",
          "type": "bool"
        }
      ],
      "payable": false,
      "stateMutability": "view",
      "type": "function"
    },
    {
      "constant": true,
      "inputs": [
        {
          "name": "channelId",
          "type": "bytes32"
        }
      ],
      "name": "isOpenChannel",
      "outputs": [
        {
          "name": "",
          "type": "bool"
        }
      ],
      "payable": false,
      "stateMutability": "view",
      "type": "function"
    },
    {
      "constant": true,
      "inputs": [
        {
          "name": "sender",
          "type": "address"
        },
        {
          "name": "channelId",
          "type": "bytes32"
        }
      ],
      "name": "canDeposit",
      "outputs": [
        {
          "name": "",
          "type": "bool"
        }
      ],
      "payable": false,
      "stateMutability": "view",
      "type": "function"
    },
    {
      "constant": true,
      "inputs": [
        {
          "name": "channelId",
          "type": "bytes32"
        }
      ],
      "name": "getPayment",
      "outputs": [
        {
          "name": "",
          "type": "uint256"
        }
      ],
      "payable": false,
      "stateMutability": "view",
      "type": "function"
    },
    {
      "constant": true,
      "inputs": [
        {
          "name": "channelId",
          "type": "bytes32"
        }
      ],
      "name": "getUntil",
      "outputs": [
        {
          "name": "",
          "type": "uint256"
        }
      ],
      "payable": false,
      "stateMutability": "view",
      "type": "function"
    },
    {
      "constant": false,
      "inputs": [
        {
          "name": "newOwner",
          "type": "address"
        }
      ],
      "name": "transferOwnership",
      "outputs": [],
      "payable": false,
      "stateMutability": "nonpayable",
      "type": "function"
    },
    {
      "constant": false,
      "inputs": [
        {
          "name": "_recipient",
          "type": "address"
        }
      ],
      "name": "destroyAndSend",
      "outputs": [],
      "payable": false,
      "stateMutability": "nonpayable",
      "type": "function"
    },
    {
      "inputs": [
        {
          "name": "_chainId",
          "type": "uint32"
        }
      ],
      "payable": false,
      "stateMutability": "nonpayable",
      "type": "constructor"
    },
    {
      "anonymous": false,
      "inputs": [
        {
          "indexed": false,
          "name": "channelId",
          "type": "bytes32"
        },
        {
          "indexed": true,
          "name": "sender",
          "type": "address"
        },
        {
          "indexed": true,
          "name": "receiver",
          "type": "address"
        },
        {
          "indexed": false,
          "name": "value",
          "type": "uint256"
        },
        {
          "indexed": false,
          "name": "settlementPeriod",
          "type": "uint256"
        },
        {
          "indexed": false,
          "name": "until",
          "type": "uint256"
        }
      ],
      "name": "DidCreateChannel",
      "type": "event"
    },
    {
      "anonymous": false,
      "inputs": [
        {
          "indexed": true,
          "name": "channelId",
          "type": "bytes32"
        },
        {
          "indexed": false,
          "name": "value",
          "type": "uint256"
        }
      ],
      "name": "DidDeposit",
      "type": "event"
    },
    {
      "anonymous": false,
      "inputs": [
        {
          "indexed": true,
          "name": "channelId",
          "type": "bytes32"
        },
        {
          "indexed": false,
          "name": "payment",
          "type": "uint256"
        }
      ],
      "name": "DidStartSettle",
      "type": "event"
    },
    {
      "anonymous": false,
      "inputs": [
        {
          "indexed": true,
          "name": "channelId",
          "type": "bytes32"
        },
        {
          "indexed": false,
          "name": "payment",
          "type": "uint256"
        },
        {
          "indexed": false,
          "name": "oddValue",
          "type": "uint256"
        }
      ],
      "name": "DidSettle",
      "type": "event"
    },
    {
      "anonymous": false,
      "inputs": [
        {
          "indexed": true,
          "name": "previousOwner",
          "type": "address"
        },
        {
          "indexed": true,
          "name": "newOwner",
          "type": "address"
        }
      ],
      "name": "OwnershipTransferred",
      "type": "event"
    }
  ],
  "bytecode": "0x6060604052341561000f57600080fd5b604051602080611d2d83398101604052808051906020019091905050336000806101000a81548173ffffffffffffffffffffffffffffffffffffffff021916908373ffffffffffffffffffffffffffffffffffffffff16021790555080600260006101000a81548163ffffffff021916908363ffffffff1602179055506000600260046101000a81548163ffffffff021916908363ffffffff16021790555050611c6f806100be6000396000f300606060405260043610610107576000357c0100000000000000000000000000000000000000000000000000000000900463ffffffff16806309648a9d1461010c57806312921758146101555780631de26e16146101ab5780632b0109be146101db57806339c79e0c1461026a5780633c46f72f1461029157806368b45a2c146102ef57806375f996801461034d57806379f48d4c1461037457806383197ef0146103a45780638da5cb5b146103b9578063ab40428e1461040e578063baa777461461043e578063d0fa96ba146104ac578063e20bff5c146104eb578063e66eefc814610549578063f03cd5ca14610584578063f2fde38b146105bf578063f5074f41146105f8575b600080fd5b341561011757600080fd5b610131600480803560001916906020019091905050610631565b6040518082600281111561014157fe5b60ff16815260200191505060405180910390f35b341561016057600080fd5b6101a960048080356000191690602001909190803590602001909190803560ff169060200190919080356000191690602001909190803560001916906020019091905050610666565b005b34156101b657600080fd5b6101d9600480803560001916906020019091908035906020019091905050610690565b005b34156101e657600080fd5b61024c600480803573ffffffffffffffffffffffffffffffffffffffff1690602001909190803573ffffffffffffffffffffffffffffffffffffffff16906020019091908035906020019091908035906020019091908035906020019091905050610869565b60405180826000191660001916815260200191505060405180910390f35b341561027557600080fd5b61028f600480803560001916906020019091905050610c39565b005b341561029c57600080fd5b6102d5600480803573ffffffffffffffffffffffffffffffffffffffff1690602001909190803560001916906020019091905050610ed5565b604051808215151515815260200191505060405180910390f35b34156102fa57600080fd5b610333600480803573ffffffffffffffffffffffffffffffffffffffff1690602001909190803560001916906020019091905050610feb565b604051808215151515815260200191505060405180910390f35b341561035857600080fd5b61037260048080356000191690602001909190505061109a565b005b341561037f57600080fd5b6103a26004808035600019169060200190919080359060200190919050506110da565b005b34156103af57600080fd5b6103b76114c2565b005b34156103c457600080fd5b6103cc611557565b604051808273ffffffffffffffffffffffffffffffffffffffff1673ffffffffffffffffffffffffffffffffffffffff16815260200191505060405180910390f35b341561041957600080fd5b61043c60048080356000191690602001909190803590602001909190505061157c565b005b341561044957600080fd5b61049260048080356000191690602001909190803590602001909190803560ff16906020019091908035600019169060200190919080356000191690602001909190505061162f565b604051808215151515815260200191505060405180910390f35b34156104b757600080fd5b6104d1600480803560001916906020019091905050611904565b604051808215151515815260200191505060405180910390f35b34156104f657600080fd5b61052f600480803573ffffffffffffffffffffffffffffffffffffffff1690602001909190803560001916906020019091905050611967565b604051808215151515815260200191505060405180910390f35b341561055457600080fd5b61056e600480803560001916906020019091905050611a16565b6040518082815260200191505060405180910390f35b341561058f57600080fd5b6105a9600480803560001916906020019091905050611a3e565b6040518082815260200191505060405180910390f35b34156105ca57600080fd5b6105f6600480803573ffffffffffffffffffffffffffffffffffffffff16906020019091905050611a66565b005b341561060357600080fd5b61062f600480803573ffffffffffffffffffffffffffffffffffffffff16906020019091905050611bbb565b005b600060016000836000191660001916815260200190815260200160002060050160009054906101000a900460ff169050919050565b610673858585858561162f565b151561067e57610689565b61068885856110da565b5b5050505050565b60008061069d3385611967565b15156106a857600080fd5b60016000856000191660001916815260200190815260200160002091508160020160009054906101000a900473ffffffffffffffffffffffffffffffffffffffff1690508073ffffffffffffffffffffffffffffffffffffffff166323b872dd8360000160009054906101000a900473ffffffffffffffffffffffffffffffffffffffff1630866000604051602001526040518463ffffffff167c0100000000000000000000000000000000000000000000000000000000028152600401808473ffffffffffffffffffffffffffffffffffffffff1673ffffffffffffffffffffffffffffffffffffffff1681526020018373ffffffffffffffffffffffffffffffffffffffff1673ffffffffffffffffffffffffffffffffffffffff1681526020018281526020019350505050602060405180830381600087803b15156107ef57600080fd5b6102c65a03f1151561080057600080fd5b50505060405180519050151561081557600080fd5b82826003016000828254019250508190555083600019167f6f850cda6d6b2f5cca622bc2d4739e4ed917c12d29f9a92b9e6c127abe398424846040518082815260200191505060405180910390a250505050565b6000806000806002600481819054906101000a900463ffffffff168092919060010191906101000a81548163ffffffff021916908363ffffffff16021790555063ffffffff16420160405180828152602001915050604051809103902092503391508890508073ffffffffffffffffffffffffffffffffffffffff166323b872dd8330886000604051602001526040518463ffffffff167c0100000000000000000000000000000000000000000000000000000000028152600401808473ffffffffffffffffffffffffffffffffffffffff1673ffffffffffffffffffffffffffffffffffffffff1681526020018373ffffffffffffffffffffffffffffffffffffffff1673ffffffffffffffffffffffffffffffffffffffff1681526020018281526020019350505050602060405180830381600087803b15156109ad57600080fd5b6102c65a03f115156109be57600080fd5b5050506040518051905015156109d357600080fd5b610100604051908101604052808373ffffffffffffffffffffffffffffffffffffffff1681526020018973ffffffffffffffffffffffffffffffffffffffff1681526020018a73ffffffffffffffffffffffffffffffffffffffff16815260200186815260200187815260200160006002811115610a4d57fe5b81526020018842018152602001600081525060016000856000191660001916815260200190815260200160002060008201518160000160006101000a81548173ffffffffffffffffffffffffffffffffffffffff021916908373ffffffffffffffffffffffffffffffffffffffff16021790555060208201518160010160006101000a81548173ffffffffffffffffffffffffffffffffffffffff021916908373ffffffffffffffffffffffffffffffffffffffff16021790555060408201518160020160006101000a81548173ffffffffffffffffffffffffffffffffffffffff021916908373ffffffffffffffffffffffffffffffffffffffff160217905550606082015181600301556080820151816004015560a08201518160050160006101000a81548160ff02191690836002811115610b8757fe5b021790555060c0820151816006015560e082015181600701559050508773ffffffffffffffffffffffffffffffffffffffff168273ffffffffffffffffffffffffffffffffffffffff167f2168a0a10cb12f43941acf9cdef54ba002be7269f2b8b38d4ee9e54eb48a466285888a8c420160405180856000191660001916815260200184815260200183815260200182815260200194505050505060405180910390a382935050505095945050505050565b60006001600083600019166000191681526020019081526020016000209050600280811115610c6457fe5b8160050160009054906101000a900460ff166002811115610c8157fe5b148015610d8e57506000809054906101000a900473ffffffffffffffffffffffffffffffffffffffff1673ffffffffffffffffffffffffffffffffffffffff163373ffffffffffffffffffffffffffffffffffffffff161480610d3357508060000160009054906101000a900473ffffffffffffffffffffffffffffffffffffffff1673ffffffffffffffffffffffffffffffffffffffff163373ffffffffffffffffffffffffffffffffffffffff16145b80610d8d57508060010160009054906101000a900473ffffffffffffffffffffffffffffffffffffffff1673ffffffffffffffffffffffffffffffffffffffff163373ffffffffffffffffffffffffffffffffffffffff16145b5b15610ed157600081600301541115610e09578060000160009054906101000a900473ffffffffffffffffffffffffffffffffffffffff1673ffffffffffffffffffffffffffffffffffffffff166108fc82600301549081150290604051600060405180830381858888f193505050501515610e0857600080fd5b5b600160008360001916600019168152602001908152602001600020600080820160006101000a81549073ffffffffffffffffffffffffffffffffffffffff02191690556001820160006101000a81549073ffffffffffffffffffffffffffffffffffffffff02191690556002820160006101000a81549073ffffffffffffffffffffffffffffffffffffffff0219169055600382016000905560048201600090556005820160006101000a81549060ff02191690556006820160009055600782016000905550505b5050565b600080600160008460001916600019168152602001908152602001600020905060016002811115610f0257fe5b8160050160009054906101000a900460ff166002811115610f1f57fe5b148015610fd257508060000160009054906101000a900473ffffffffffffffffffffffffffffffffffffffff1673ffffffffffffffffffffffffffffffffffffffff168473ffffffffffffffffffffffffffffffffffffffff161480610fd157506000809054906101000a900473ffffffffffffffffffffffffffffffffffffffff1673ffffffffffffffffffffffffffffffffffffffff168473ffffffffffffffffffffffffffffffffffffffff16145b5b8015610fe2575042816006015411155b91505092915050565b60008060016000846000191660001916815260200190815260200160002090506000600281111561101857fe5b8160050160009054906101000a900460ff16600281111561103557fe5b14801561109157508373ffffffffffffffffffffffffffffffffffffffff168160000160009054906101000a900473ffffffffffffffffffffffffffffffffffffffff1673ffffffffffffffffffffffffffffffffffffffff16145b91505092915050565b6110a43382610ed5565b15156110af57600080fd5b6110d781600160008460001916600019168152602001908152602001600020600701546110da565b50565b6000806000806001600087600019166000191681526020019081526020016000209350849250600091508360020160009054906101000a900473ffffffffffffffffffffffffffffffffffffffff169050836003015485111561123857836003015492508073ffffffffffffffffffffffffffffffffffffffff1663a9059cbb8560010160009054906101000a900473ffffffffffffffffffffffffffffffffffffffff16856000604051602001526040518363ffffffff167c0100000000000000000000000000000000000000000000000000000000028152600401808373ffffffffffffffffffffffffffffffffffffffff1673ffffffffffffffffffffffffffffffffffffffff16815260200182815260200192505050602060405180830381600087803b151561120d57600080fd5b6102c65a03f1151561121e57600080fd5b50505060405180519050151561123357600080fd5b611436565b8073ffffffffffffffffffffffffffffffffffffffff1663a9059cbb8560010160009054906101000a900473ffffffffffffffffffffffffffffffffffffffff16856000604051602001526040518363ffffffff167c0100000000000000000000000000000000000000000000000000000000028152600401808373ffffffffffffffffffffffffffffffffffffffff1673ffffffffffffffffffffffffffffffffffffffff16815260200182815260200192505050602060405180830381600087803b151561130757600080fd5b6102c65a03f1151561131857600080fd5b50505060405180519050151561132d57600080fd5b8284600301540391508073ffffffffffffffffffffffffffffffffffffffff1663a9059cbb8560000160009054906101000a900473ffffffffffffffffffffffffffffffffffffffff16846000604051602001526040518363ffffffff167c0100000000000000000000000000000000000000000000000000000000028152600401808373ffffffffffffffffffffffffffffffffffffffff1673ffffffffffffffffffffffffffffffffffffffff16815260200182815260200192505050602060405180830381600087803b151561140557600080fd5b6102c65a03f1151561141657600080fd5b50505060405180519050151561142b57600080fd5b600084600301819055505b600260016000886000191660001916815260200190815260200160002060050160006101000a81548160ff0219169083600281111561147157fe5b021790555085600019167fabfecb41642f4ef37a31c1721c2da0a771e03d530ea99bf54d900d29130f51258684604051808381526020018281526020019250505060405180910390a2505050505050565b6000809054906101000a900473ffffffffffffffffffffffffffffffffffffffff1673ffffffffffffffffffffffffffffffffffffffff163373ffffffffffffffffffffffffffffffffffffffff1614151561151d57600080fd5b6000809054906101000a900473ffffffffffffffffffffffffffffffffffffffff1673ffffffffffffffffffffffffffffffffffffffff16ff5b6000809054906101000a900473ffffffffffffffffffffffffffffffffffffffff1681565b60006115883384610feb565b151561159357600080fd5b600160008460001916600019168152602001908152602001600020905060018160050160006101000a81548160ff021916908360028111156115d157fe5b021790555080600401544201816006018190555081816007018190555082600019167f673a31efff5b18f60225e513fd4f0f53c708661f184c1898f5c52e85bd95d500836040518082815260200191505060405180910390a2505050565b60008061163a611c2f565b600080600160008b6000191660001916815260200190815260200160002093506040805190810160405280601c81526020017f19457468657265756d205369676e6564204d6573736167653a0a3332000000008152509250898930600260009054906101000a900463ffffffff166040518085600019166000191681526020018481526020018373ffffffffffffffffffffffffffffffffffffffff1673ffffffffffffffffffffffffffffffffffffffff166c010000000000000000000000000281526014018263ffffffff1663ffffffff167c01000000000000000000000000000000000000000000000000000000000281526004019450505050506040518091039020915082826040518083805190602001908083835b6020831015156117795780518252602082019150602081019050602083039250611754565b6001836020036101000a03801982511681845116808217855250505050505090500182600019166000191681526020019250505060405180910390209050600060028111156117c457fe5b8460050160009054906101000a900460ff1660028111156117e157fe5b14806118145750600160028111156117f557fe5b8460050160009054906101000a900460ff16600281111561181257fe5b145b80156118f55750600181898989604051600081526020016040526000604051602001526040518085600019166000191681526020018460ff1660ff16815260200183600019166000191681526020018260001916600019168152602001945050505050602060405160208103908084039060008661646e5a03f1151561189957600080fd5b50506020604051035173ffffffffffffffffffffffffffffffffffffffff168460000160009054906101000a900473ffffffffffffffffffffffffffffffffffffffff1673ffffffffffffffffffffffffffffffffffffffff16145b94505050505095945050505050565b60008060016000846000191660001916815260200190815260200160002090506000600281111561193157fe5b8160050160009054906101000a900460ff16600281111561194e57fe5b14801561195f575042816006015410155b915050919050565b60008060016000846000191660001916815260200190815260200160002090506000600281111561199457fe5b8160050160009054906101000a900460ff1660028111156119b157fe5b148015611a0d57508373ffffffffffffffffffffffffffffffffffffffff168160000160009054906101000a900473ffffffffffffffffffffffffffffffffffffffff1673ffffffffffffffffffffffffffffffffffffffff16145b91505092915050565b6000600160008360001916600019168152602001908152602001600020600701549050919050565b6000600160008360001916600019168152602001908152602001600020600601549050919050565b6000809054906101000a900473ffffffffffffffffffffffffffffffffffffffff1673ffffffffffffffffffffffffffffffffffffffff163373ffffffffffffffffffffffffffffffffffffffff16141515611ac157600080fd5b600073ffffffffffffffffffffffffffffffffffffffff168173ffffffffffffffffffffffffffffffffffffffff1614151515611afd57600080fd5b8073ffffffffffffffffffffffffffffffffffffffff166000809054906101000a900473ffffffffffffffffffffffffffffffffffffffff1673ffffffffffffffffffffffffffffffffffffffff167f8be0079c531659141344cd1fd0a4f28419497f9722a3daafe3b4186f6b6457e060405160405180910390a3806000806101000a81548173ffffffffffffffffffffffffffffffffffffffff021916908373ffffffffffffffffffffffffffffffffffffffff16021790555050565b6000809054906101000a900473ffffffffffffffffffffffffffffffffffffffff1673ffffffffffffffffffffffffffffffffffffffff163373ffffffffffffffffffffffffffffffffffffffff16141515611c1657600080fd5b8073ffffffffffffffffffffffffffffffffffffffff16ff5b6020604051908101604052806000815250905600a165627a7a72305820d067e83a9d47b5f1a9b780243bb0e1e54c838eff22b8d021a1cf3eaf96d426290029",
  "source": "pragma solidity ^0.4.11;\n\nimport \"zeppelin-solidity/contracts/lifecycle/Destructible.sol\";\nimport \"zeppelin-solidity/contracts/token/StandardToken.sol\";\n\n\ncontract TokenBroker is Destructible {\n    enum ChannelState { Open, Settling, Settled }\n    struct PaymentChannel {\n        address sender;\n        address receiver;\n        address erc20Contract;\n        uint256 value;\n        uint settlementPeriod;\n        ChannelState state;\n        /* until state is invalid */\n        uint until;\n        uint256 payment;\n    }\n\n    mapping(bytes32 => PaymentChannel) channels;\n    uint32 chainId;\n    uint32 id;\n\n    event DidCreateChannel(bytes32 channelId, address indexed sender, address indexed receiver, uint256 value, uint settlementPeriod, uint until);\n    event DidDeposit(bytes32 indexed channelId, uint256 value);\n    event DidStartSettle(bytes32 indexed channelId, uint256 payment);\n    event DidSettle(bytes32 indexed channelId, uint256 payment, uint256 oddValue);\n\n    function TokenBroker(uint32 _chainId) public {\n        chainId = _chainId;\n        id = 0;\n    }\n\n    /* Create payment channel */\n    function createChannel(address erc20Contract, address receiver, uint duration, uint settlementPeriod, uint256 value) public returns(bytes32) {\n        var channelId = keccak256(now + id++); // solium-disable-line\n        var sender = msg.sender;\n        var c = StandardToken(erc20Contract);\n        require(c.transferFrom(sender, address(this), value));\n\n        channels[channelId] = PaymentChannel(\n            sender,\n            receiver,\n            erc20Contract,\n            value,\n            settlementPeriod,\n            ChannelState.Open,\n            block.timestamp + duration, // solium-disable-line\n            0);\n        DidCreateChannel(channelId, sender, receiver, value, settlementPeriod, block.timestamp + duration); // solium-disable-line\n\n        return channelId;\n    }\n\n    /* Add funds to the channel */\n    // function deposit(bytes32 channelId, uint256 value) public {\n    function deposit(bytes32 channelId, uint value) public {\n        require(canDeposit(msg.sender, channelId));\n\n        var channel = channels[channelId];\n        var c = StandardToken(channel.erc20Contract);\n        require(c.transferFrom(channel.sender, address(this), value));\n\n        channel.value += value;\n\n        DidDeposit(channelId, value);\n    }\n\n    function claim(bytes32 channelId, uint256 payment, uint8 v, bytes32 r, bytes32 s) public {\n        if (!canClaim(channelId, payment, v, r, s)) {\n            return;\n        }\n\n        settle(channelId, payment);\n    }\n\n    /* Sender starts settling */\n    function startSettle(bytes32 channelId, uint256 payment) public {\n        require(canStartSettle(msg.sender, channelId));\n        var channel = channels[channelId];\n        channel.state = ChannelState.Settling;\n        channel.until = now + channel.settlementPeriod; // solium-disable-line\n        channel.payment = payment;\n        DidStartSettle(channelId, payment);\n    }\n\n    /* Sender settles the channel, if receiver have not done that */\n    function finishSettle(bytes32 channelId) public {\n        require(canFinishSettle(msg.sender, channelId));\n        settle(channelId, channels[channelId].payment);\n    }\n\n    function close(bytes32 channelId)  public {\n        var channel = channels[channelId];\n        if (channel.state == ChannelState.Settled && (msg.sender == owner || msg.sender == channel.sender || msg.sender == channel.receiver)) {\n            if (channel.value > 0) {\n                require(channel.sender.send(channel.value));\n            }\n            delete channels[channelId];\n        }\n    }\n\n    /******** BEHIND THE SCENES ********/\n\n    function settle(bytes32 channelId, uint256 payment) public {\n        var channel = channels[channelId];\n        uint256 paid = payment;\n        uint256 oddMoney = 0;\n        var c = StandardToken(channel.erc20Contract);\n\n        if (payment > channel.value) {\n            paid = channel.value;\n            require(c.transfer(channel.receiver, paid));\n        } else {\n            require(c.transfer(channel.receiver, paid));\n            oddMoney = channel.value - paid;\n\n            require(c.transfer(channel.sender, oddMoney));\n            channel.value = 0;\n        }\n\n        channels[channelId].state = ChannelState.Settled;\n        DidSettle(channelId, payment, oddMoney);\n    }\n\n    /******** CAN CHECKS ********/\n\n    function canDeposit(address sender, bytes32 channelId) public constant returns(bool) {\n        var channel = channels[channelId];\n        // DW: Do we really need to check that only the sender is allowed to\n        //     deposit?\n        return channel.state == ChannelState.Open &&\n            channel.sender == sender;\n    }\n\n    function canClaim(bytes32 channelId, uint256 value, uint8 v, bytes32 r, bytes32 s) public constant returns(bool) {\n        var channel = channels[channelId];\n        bytes memory prefix = \"\\x19Ethereum Signed Message:\\n32\";\n        bytes32 hh = keccak256(channelId, value, address(this), chainId);\n        bytes32 prefixedHash = keccak256(prefix, hh);\n        return (channel.state == ChannelState.Open || channel.state == ChannelState.Settling) &&\n        channel.sender == ecrecover(prefixedHash, v, r, s);\n    }\n\n    function canStartSettle(address sender, bytes32 channelId) public constant returns(bool) {\n        var channel = channels[channelId];\n        return channel.state == ChannelState.Open &&\n        channel.sender == sender;\n    }\n\n    function canFinishSettle(address sender, bytes32 channelId) public constant returns(bool) {\n        var channel = channels[channelId];\n        return channel.state == ChannelState.Settling && (sender == channel.sender || sender == owner) && channel.until <= now; // solium-disable-line\n    }\n\n    /******** READERS ********/\n\n    function getState(bytes32 channelId) public constant returns(ChannelState) {\n        return channels[channelId].state;\n    }\n\n    function getUntil(bytes32 channelId) public constant returns(uint) {\n        return channels[channelId].until;\n    }\n\n    function getPayment(bytes32 channelId) public constant returns(uint) {\n        return channels[channelId].payment;\n    }\n\n    function isOpenChannel(bytes32 channelId) public constant returns(bool) {\n        var channel = channels[channelId];\n        return channel.state == ChannelState.Open && channel.until >= now; // solium-disable-line\n    }\n}\n",
  "sourcePath": "/Users/ukstv/Documents/Pro/Machinomy/machinomy-contracts/contracts/TokenBroker.sol",
  "compiler": {
    "name": "solc",
    "version": "0.4.18+commit.9cf6e910.Emscripten.clang"
  },
  "schemaVersion": "1.0.1",
  "updatedAt": "2017-12-26T21:23:50.974Z"
}