{
  "contractName": "TokenBroker",
  "abi": [
    {
      "constant": true,
      "inputs": [
        {
          "name": "channelId",
          "type": "bytes32"
        }
      ],
      "name": "getState",
      "outputs": [
        {
          "name": "",
          "type": "uint8"
        }
      ],
      "payable": false,
      "type": "function",
      "stateMutability": "view"
    },
    {
      "constant": false,
      "inputs": [
        {
          "name": "channelId",
          "type": "bytes32"
        },
        {
          "name": "payment",
          "type": "uint256"
        },
        {
          "name": "v",
          "type": "uint8"
        },
        {
          "name": "r",
          "type": "bytes32"
        },
        {
          "name": "s",
          "type": "bytes32"
        }
      ],
      "name": "claim",
      "outputs": [],
      "payable": false,
      "type": "function",
      "stateMutability": "nonpayable"
    },
    {
      "constant": false,
      "inputs": [
        {
          "name": "channelId",
          "type": "bytes32"
        },
        {
          "name": "value",
          "type": "uint256"
        }
      ],
      "name": "deposit",
      "outputs": [],
      "payable": false,
      "type": "function",
      "stateMutability": "nonpayable"
    },
    {
      "constant": false,
      "inputs": [
        {
          "name": "erc20Contract",
          "type": "address"
        },
        {
          "name": "receiver",
          "type": "address"
        },
        {
          "name": "duration",
          "type": "uint256"
        },
        {
          "name": "settlementPeriod",
          "type": "uint256"
        },
        {
          "name": "value",
          "type": "uint256"
        }
      ],
      "name": "createChannel",
      "outputs": [
        {
          "name": "",
          "type": "bytes32"
        }
      ],
      "payable": false,
      "type": "function",
      "stateMutability": "nonpayable"
    },
    {
      "constant": false,
      "inputs": [
        {
          "name": "channelId",
          "type": "bytes32"
        }
      ],
      "name": "close",
      "outputs": [],
      "payable": false,
      "type": "function",
      "stateMutability": "nonpayable"
    },
    {
      "constant": true,
      "inputs": [
        {
          "name": "sender",
          "type": "address"
        },
        {
          "name": "channelId",
          "type": "bytes32"
        }
      ],
      "name": "canFinishSettle",
      "outputs": [
        {
          "name": "",
          "type": "bool"
        }
      ],
      "payable": false,
      "type": "function",
      "stateMutability": "view"
    },
    {
      "constant": true,
      "inputs": [
        {
          "name": "sender",
          "type": "address"
        },
        {
          "name": "channelId",
          "type": "bytes32"
        }
      ],
      "name": "canStartSettle",
      "outputs": [
        {
          "name": "",
          "type": "bool"
        }
      ],
      "payable": false,
      "type": "function",
      "stateMutability": "view"
    },
    {
      "constant": false,
      "inputs": [
        {
          "name": "channelId",
          "type": "bytes32"
        }
      ],
      "name": "finishSettle",
      "outputs": [],
      "payable": false,
      "type": "function",
      "stateMutability": "nonpayable"
    },
    {
      "constant": false,
      "inputs": [
        {
          "name": "channelId",
          "type": "bytes32"
        },
        {
          "name": "payment",
          "type": "uint256"
        }
      ],
      "name": "settle",
      "outputs": [],
      "payable": false,
      "type": "function",
      "stateMutability": "nonpayable"
    },
    {
      "constant": false,
      "inputs": [],
      "name": "destroy",
      "outputs": [],
      "payable": false,
      "type": "function",
      "stateMutability": "nonpayable"
    },
    {
      "constant": true,
      "inputs": [],
      "name": "owner",
      "outputs": [
        {
          "name": "",
          "type": "address"
        }
      ],
      "payable": false,
      "type": "function",
      "stateMutability": "view"
    },
    {
      "constant": false,
      "inputs": [
        {
          "name": "sender",
          "type": "address"
        },
        {
          "name": "_chainId",
          "type": "uint32"
        },
        {
          "name": "contractId",
          "type": "address"
        },
        {
          "name": "channelId",
          "type": "bytes32"
        },
        {
          "name": "payment",
          "type": "uint256"
        },
        {
          "name": "sigV",
          "type": "uint8"
        },
        {
          "name": "sigR",
          "type": "bytes32"
        },
        {
          "name": "sigS",
          "type": "bytes32"
        }
      ],
      "name": "isStateUpdateSigValid",
      "outputs": [
        {
          "name": "",
          "type": "bool"
        }
      ],
      "payable": false,
      "type": "function",
      "stateMutability": "nonpayable"
    },
    {
      "constant": false,
      "inputs": [
        {
          "name": "channelId",
          "type": "bytes32"
        },
        {
          "name": "payment",
          "type": "uint256"
        }
      ],
      "name": "startSettle",
      "outputs": [],
      "payable": false,
      "type": "function",
      "stateMutability": "nonpayable"
    },
    {
      "constant": true,
      "inputs": [
        {
          "name": "channelId",
          "type": "bytes32"
        },
        {
          "name": "value",
          "type": "uint256"
        },
        {
          "name": "v",
          "type": "uint8"
        },
        {
          "name": "r",
          "type": "bytes32"
        },
        {
          "name": "s",
          "type": "bytes32"
        }
      ],
      "name": "canClaim",
      "outputs": [
        {
          "name": "",
          "type": "bool"
        }
      ],
      "payable": false,
      "type": "function",
      "stateMutability": "view"
    },
    {
      "constant": true,
      "inputs": [
        {
          "name": "channelId",
          "type": "bytes32"
        }
      ],
      "name": "isOpenChannel",
      "outputs": [
        {
          "name": "",
          "type": "bool"
        }
      ],
      "payable": false,
      "type": "function",
      "stateMutability": "view"
    },
    {
      "constant": true,
      "inputs": [
        {
          "name": "sender",
          "type": "address"
        },
        {
          "name": "channelId",
          "type": "bytes32"
        }
      ],
      "name": "canDeposit",
      "outputs": [
        {
          "name": "",
          "type": "bool"
        }
      ],
      "payable": false,
      "type": "function",
      "stateMutability": "view"
    },
    {
      "constant": true,
      "inputs": [
        {
          "name": "channelId",
          "type": "bytes32"
        }
      ],
      "name": "getPayment",
      "outputs": [
        {
          "name": "",
          "type": "uint256"
        }
      ],
      "payable": false,
      "type": "function",
      "stateMutability": "view"
    },
    {
      "constant": true,
      "inputs": [
        {
          "name": "channelId",
          "type": "bytes32"
        }
      ],
      "name": "getUntil",
      "outputs": [
        {
          "name": "",
          "type": "uint256"
        }
      ],
      "payable": false,
      "type": "function",
      "stateMutability": "view"
    },
    {
      "constant": false,
      "inputs": [
        {
          "name": "newOwner",
          "type": "address"
        }
      ],
      "name": "transferOwnership",
      "outputs": [],
      "payable": false,
      "type": "function",
      "stateMutability": "nonpayable"
    },
    {
      "constant": false,
      "inputs": [
        {
          "name": "_recipient",
          "type": "address"
        }
      ],
      "name": "destroyAndSend",
      "outputs": [],
      "payable": false,
      "type": "function",
      "stateMutability": "nonpayable"
    },
    {
      "inputs": [
        {
          "name": "_chainId",
          "type": "uint32"
        }
      ],
      "payable": false,
      "type": "constructor",
      "stateMutability": "nonpayable"
    },
    {
      "anonymous": false,
      "inputs": [
        {
          "indexed": false,
          "name": "channelId",
          "type": "bytes32"
        },
        {
          "indexed": true,
          "name": "sender",
          "type": "address"
        },
        {
          "indexed": true,
          "name": "receiver",
          "type": "address"
        },
        {
          "indexed": false,
          "name": "value",
          "type": "uint256"
        },
        {
          "indexed": false,
          "name": "settlementPeriod",
          "type": "uint256"
        },
        {
          "indexed": false,
          "name": "until",
          "type": "uint256"
        }
      ],
      "name": "DidCreateChannel",
      "type": "event"
    },
    {
      "anonymous": false,
      "inputs": [
        {
          "indexed": true,
          "name": "channelId",
          "type": "bytes32"
        },
        {
          "indexed": false,
          "name": "value",
          "type": "uint256"
        }
      ],
      "name": "DidDeposit",
      "type": "event"
    },
    {
      "anonymous": false,
      "inputs": [
        {
          "indexed": true,
          "name": "channelId",
          "type": "bytes32"
        },
        {
          "indexed": false,
          "name": "payment",
          "type": "uint256"
        }
      ],
      "name": "DidStartSettle",
      "type": "event"
    },
    {
      "anonymous": false,
      "inputs": [
        {
          "indexed": true,
          "name": "channelId",
          "type": "bytes32"
        },
        {
          "indexed": false,
          "name": "payment",
          "type": "uint256"
        },
        {
          "indexed": false,
          "name": "oddValue",
          "type": "uint256"
        }
      ],
      "name": "DidSettle",
      "type": "event"
    }
  ],
  "bytecode": "0x6060604052341561000f57600080fd5b604051602080611f0183398101604052808051906020019091905050336000806101000a81548173ffffffffffffffffffffffffffffffffffffffff021916908373ffffffffffffffffffffffffffffffffffffffff16021790555080600260006101000a81548163ffffffff021916908363ffffffff1602179055506000600260046101000a81548163ffffffff021916908363ffffffff16021790555050611e43806100be6000396000f300606060405260043610610112576000357c0100000000000000000000000000000000000000000000000000000000900463ffffffff16806309648a9d1461011757806312921758146101605780631de26e16146101b65780632b0109be146101e657806339c79e0c146102755780633c46f72f1461029c57806368b45a2c146102fa57806375f996801461035857806379f48d4c1461037f57806383197ef0146103af5780638da5cb5b146103c45780639a85161614610419578063ab40428e146104d4578063baa7774614610504578063d0fa96ba14610572578063e20bff5c146105b1578063e66eefc81461060f578063f03cd5ca1461064a578063f2fde38b14610685578063f5074f41146106be575b600080fd5b341561012257600080fd5b61013c6004808035600019169060200190919050506106f7565b6040518082600281111561014c57fe5b60ff16815260200191505060405180910390f35b341561016b57600080fd5b6101b460048080356000191690602001909190803590602001909190803560ff16906020019091908035600019169060200190919080356000191690602001909190505061072c565b005b34156101c157600080fd5b6101e4600480803560001916906020019091908035906020019091905050610756565b005b34156101f157600080fd5b610257600480803573ffffffffffffffffffffffffffffffffffffffff1690602001909190803573ffffffffffffffffffffffffffffffffffffffff1690602001909190803590602001909190803590602001909190803590602001909190505061092f565b60405180826000191660001916815260200191505060405180910390f35b341561028057600080fd5b61029a600480803560001916906020019091905050610cff565b005b34156102a757600080fd5b6102e0600480803573ffffffffffffffffffffffffffffffffffffffff1690602001909190803560001916906020019091905050610f9b565b604051808215151515815260200191505060405180910390f35b341561030557600080fd5b61033e600480803573ffffffffffffffffffffffffffffffffffffffff16906020019091908035600019169060200190919050506110b1565b604051808215151515815260200191505060405180910390f35b341561036357600080fd5b61037d600480803560001916906020019091905050611160565b005b341561038a57600080fd5b6103ad6004808035600019169060200190919080359060200190919050506111a0565b005b34156103ba57600080fd5b6103c2611588565b005b34156103cf57600080fd5b6103d761161d565b604051808273ffffffffffffffffffffffffffffffffffffffff1673ffffffffffffffffffffffffffffffffffffffff16815260200191505060405180910390f35b341561042457600080fd5b6104ba600480803573ffffffffffffffffffffffffffffffffffffffff1690602001909190803563ffffffff1690602001909190803573ffffffffffffffffffffffffffffffffffffffff169060200190919080356000191690602001909190803590602001909190803560ff169060200190919080356000191690602001909190803560001916906020019091905050611642565b604051808215151515815260200191505060405180910390f35b34156104df57600080fd5b6105026004808035600019169060200190919080359060200190919050506117d0565b005b341561050f57600080fd5b61055860048080356000191690602001909190803590602001909190803560ff169060200190919080356000191690602001909190803560001916906020019091905050611883565b604051808215151515815260200191505060405180910390f35b341561057d57600080fd5b610597600480803560001916906020019091905050611b58565b604051808215151515815260200191505060405180910390f35b34156105bc57600080fd5b6105f5600480803573ffffffffffffffffffffffffffffffffffffffff1690602001909190803560001916906020019091905050611bbb565b604051808215151515815260200191505060405180910390f35b341561061a57600080fd5b610634600480803560001916906020019091905050611c6a565b6040518082815260200191505060405180910390f35b341561065557600080fd5b61066f600480803560001916906020019091905050611c92565b6040518082815260200191505060405180910390f35b341561069057600080fd5b6106bc600480803573ffffffffffffffffffffffffffffffffffffffff16906020019091905050611cba565b005b34156106c957600080fd5b6106f5600480803573ffffffffffffffffffffffffffffffffffffffff16906020019091905050611d8f565b005b600060016000836000191660001916815260200190815260200160002060050160009054906101000a900460ff169050919050565b6107398585858585611883565b15156107445761074f565b61074e85856111a0565b5b5050505050565b6000806107633385611bbb565b151561076e57600080fd5b60016000856000191660001916815260200190815260200160002091508160020160009054906101000a900473ffffffffffffffffffffffffffffffffffffffff1690508073ffffffffffffffffffffffffffffffffffffffff166323b872dd8360000160009054906101000a900473ffffffffffffffffffffffffffffffffffffffff1630866000604051602001526040518463ffffffff167c0100000000000000000000000000000000000000000000000000000000028152600401808473ffffffffffffffffffffffffffffffffffffffff1673ffffffffffffffffffffffffffffffffffffffff1681526020018373ffffffffffffffffffffffffffffffffffffffff1673ffffffffffffffffffffffffffffffffffffffff1681526020018281526020019350505050602060405180830381600087803b15156108b557600080fd5b6102c65a03f115156108c657600080fd5b5050506040518051905015156108db57600080fd5b82826003016000828254019250508190555083600019167f6f850cda6d6b2f5cca622bc2d4739e4ed917c12d29f9a92b9e6c127abe398424846040518082815260200191505060405180910390a250505050565b6000806000806002600481819054906101000a900463ffffffff168092919060010191906101000a81548163ffffffff021916908363ffffffff16021790555063ffffffff16420160405180828152602001915050604051809103902092503391508890508073ffffffffffffffffffffffffffffffffffffffff166323b872dd8330886000604051602001526040518463ffffffff167c0100000000000000000000000000000000000000000000000000000000028152600401808473ffffffffffffffffffffffffffffffffffffffff1673ffffffffffffffffffffffffffffffffffffffff1681526020018373ffffffffffffffffffffffffffffffffffffffff1673ffffffffffffffffffffffffffffffffffffffff1681526020018281526020019350505050602060405180830381600087803b1515610a7357600080fd5b6102c65a03f11515610a8457600080fd5b505050604051805190501515610a9957600080fd5b610100604051908101604052808373ffffffffffffffffffffffffffffffffffffffff1681526020018973ffffffffffffffffffffffffffffffffffffffff1681526020018a73ffffffffffffffffffffffffffffffffffffffff16815260200186815260200187815260200160006002811115610b1357fe5b81526020018842018152602001600081525060016000856000191660001916815260200190815260200160002060008201518160000160006101000a81548173ffffffffffffffffffffffffffffffffffffffff021916908373ffffffffffffffffffffffffffffffffffffffff16021790555060208201518160010160006101000a81548173ffffffffffffffffffffffffffffffffffffffff021916908373ffffffffffffffffffffffffffffffffffffffff16021790555060408201518160020160006101000a81548173ffffffffffffffffffffffffffffffffffffffff021916908373ffffffffffffffffffffffffffffffffffffffff160217905550606082015181600301556080820151816004015560a08201518160050160006101000a81548160ff02191690836002811115610c4d57fe5b021790555060c0820151816006015560e082015181600701559050508773ffffffffffffffffffffffffffffffffffffffff168273ffffffffffffffffffffffffffffffffffffffff167f2168a0a10cb12f43941acf9cdef54ba002be7269f2b8b38d4ee9e54eb48a466285888a8c420160405180856000191660001916815260200184815260200183815260200182815260200194505050505060405180910390a382935050505095945050505050565b60006001600083600019166000191681526020019081526020016000209050600280811115610d2a57fe5b8160050160009054906101000a900460ff166002811115610d4757fe5b148015610e5457506000809054906101000a900473ffffffffffffffffffffffffffffffffffffffff1673ffffffffffffffffffffffffffffffffffffffff163373ffffffffffffffffffffffffffffffffffffffff161480610df957508060000160009054906101000a900473ffffffffffffffffffffffffffffffffffffffff1673ffffffffffffffffffffffffffffffffffffffff163373ffffffffffffffffffffffffffffffffffffffff16145b80610e5357508060010160009054906101000a900473ffffffffffffffffffffffffffffffffffffffff1673ffffffffffffffffffffffffffffffffffffffff163373ffffffffffffffffffffffffffffffffffffffff16145b5b15610f9757600081600301541115610ecf578060000160009054906101000a900473ffffffffffffffffffffffffffffffffffffffff1673ffffffffffffffffffffffffffffffffffffffff166108fc82600301549081150290604051600060405180830381858888f193505050501515610ece57600080fd5b5b600160008360001916600019168152602001908152602001600020600080820160006101000a81549073ffffffffffffffffffffffffffffffffffffffff02191690556001820160006101000a81549073ffffffffffffffffffffffffffffffffffffffff02191690556002820160006101000a81549073ffffffffffffffffffffffffffffffffffffffff0219169055600382016000905560048201600090556005820160006101000a81549060ff02191690556006820160009055600782016000905550505b5050565b600080600160008460001916600019168152602001908152602001600020905060016002811115610fc857fe5b8160050160009054906101000a900460ff166002811115610fe557fe5b14801561109857508060000160009054906101000a900473ffffffffffffffffffffffffffffffffffffffff1673ffffffffffffffffffffffffffffffffffffffff168473ffffffffffffffffffffffffffffffffffffffff16148061109757506000809054906101000a900473ffffffffffffffffffffffffffffffffffffffff1673ffffffffffffffffffffffffffffffffffffffff168473ffffffffffffffffffffffffffffffffffffffff16145b5b80156110a8575042816006015411155b91505092915050565b6000806001600084600019166000191681526020019081526020016000209050600060028111156110de57fe5b8160050160009054906101000a900460ff1660028111156110fb57fe5b14801561115757508373ffffffffffffffffffffffffffffffffffffffff168160000160009054906101000a900473ffffffffffffffffffffffffffffffffffffffff1673ffffffffffffffffffffffffffffffffffffffff16145b91505092915050565b61116a3382610f9b565b151561117557600080fd5b61119d81600160008460001916600019168152602001908152602001600020600701546111a0565b50565b6000806000806001600087600019166000191681526020019081526020016000209350849250600091508360020160009054906101000a900473ffffffffffffffffffffffffffffffffffffffff16905083600301548511156112fe57836003015492508073ffffffffffffffffffffffffffffffffffffffff1663a9059cbb8560010160009054906101000a900473ffffffffffffffffffffffffffffffffffffffff16856000604051602001526040518363ffffffff167c0100000000000000000000000000000000000000000000000000000000028152600401808373ffffffffffffffffffffffffffffffffffffffff1673ffffffffffffffffffffffffffffffffffffffff16815260200182815260200192505050602060405180830381600087803b15156112d357600080fd5b6102c65a03f115156112e457600080fd5b5050506040518051905015156112f957600080fd5b6114fc565b8073ffffffffffffffffffffffffffffffffffffffff1663a9059cbb8560010160009054906101000a900473ffffffffffffffffffffffffffffffffffffffff16856000604051602001526040518363ffffffff167c0100000000000000000000000000000000000000000000000000000000028152600401808373ffffffffffffffffffffffffffffffffffffffff1673ffffffffffffffffffffffffffffffffffffffff16815260200182815260200192505050602060405180830381600087803b15156113cd57600080fd5b6102c65a03f115156113de57600080fd5b5050506040518051905015156113f357600080fd5b8284600301540391508073ffffffffffffffffffffffffffffffffffffffff1663a9059cbb8560000160009054906101000a900473ffffffffffffffffffffffffffffffffffffffff16846000604051602001526040518363ffffffff167c0100000000000000000000000000000000000000000000000000000000028152600401808373ffffffffffffffffffffffffffffffffffffffff1673ffffffffffffffffffffffffffffffffffffffff16815260200182815260200192505050602060405180830381600087803b15156114cb57600080fd5b6102c65a03f115156114dc57600080fd5b5050506040518051905015156114f157600080fd5b600084600301819055505b600260016000886000191660001916815260200190815260200160002060050160006101000a81548160ff0219169083600281111561153757fe5b021790555085600019167fabfecb41642f4ef37a31c1721c2da0a771e03d530ea99bf54d900d29130f51258684604051808381526020018281526020019250505060405180910390a2505050505050565b6000809054906101000a900473ffffffffffffffffffffffffffffffffffffffff1673ffffffffffffffffffffffffffffffffffffffff163373ffffffffffffffffffffffffffffffffffffffff161415156115e357600080fd5b6000809054906101000a900473ffffffffffffffffffffffffffffffffffffffff1673ffffffffffffffffffffffffffffffffffffffff16ff5b6000809054906101000a900473ffffffffffffffffffffffffffffffffffffffff1681565b600080600289898989600060405160200152604051808563ffffffff1663ffffffff167c01000000000000000000000000000000000000000000000000000000000281526004018473ffffffffffffffffffffffffffffffffffffffff1673ffffffffffffffffffffffffffffffffffffffff166c01000000000000000000000000028152601401836000191660001916815260200182815260200194505050505060206040518083038160008661646e5a03f1151561170157600080fd5b5050604051805190509050600181868686604051600081526020016040526000604051602001526040518085600019166000191681526020018460ff1660ff16815260200183600019166000191681526020018260001916600019168152602001945050505050602060405160208103908084039060008661646e5a03f1151561178a57600080fd5b50506020604051035173ffffffffffffffffffffffffffffffffffffffff168a73ffffffffffffffffffffffffffffffffffffffff161491505098975050505050505050565b60006117dc33846110b1565b15156117e757600080fd5b600160008460001916600019168152602001908152602001600020905060018160050160006101000a81548160ff0219169083600281111561182557fe5b021790555080600401544201816006018190555081816007018190555082600019167f673a31efff5b18f60225e513fd4f0f53c708661f184c1898f5c52e85bd95d500836040518082815260200191505060405180910390a2505050565b60008061188e611e03565b600080600160008b6000191660001916815260200190815260200160002093506040805190810160405280601c81526020017f19457468657265756d205369676e6564204d6573736167653a0a3332000000008152509250898930600260009054906101000a900463ffffffff166040518085600019166000191681526020018481526020018373ffffffffffffffffffffffffffffffffffffffff1673ffffffffffffffffffffffffffffffffffffffff166c010000000000000000000000000281526014018263ffffffff1663ffffffff167c01000000000000000000000000000000000000000000000000000000000281526004019450505050506040518091039020915082826040518083805190602001908083835b6020831015156119cd57805182526020820191506020810190506020830392506119a8565b6001836020036101000a0380198251168184511680821785525050505050509050018260001916600019168152602001925050506040518091039020905060006002811115611a1857fe5b8460050160009054906101000a900460ff166002811115611a3557fe5b1480611a68575060016002811115611a4957fe5b8460050160009054906101000a900460ff166002811115611a6657fe5b145b8015611b495750600181898989604051600081526020016040526000604051602001526040518085600019166000191681526020018460ff1660ff16815260200183600019166000191681526020018260001916600019168152602001945050505050602060405160208103908084039060008661646e5a03f11515611aed57600080fd5b50506020604051035173ffffffffffffffffffffffffffffffffffffffff168460000160009054906101000a900473ffffffffffffffffffffffffffffffffffffffff1673ffffffffffffffffffffffffffffffffffffffff16145b94505050505095945050505050565b600080600160008460001916600019168152602001908152602001600020905060006002811115611b8557fe5b8160050160009054906101000a900460ff166002811115611ba257fe5b148015611bb3575042816006015410155b915050919050565b600080600160008460001916600019168152602001908152602001600020905060006002811115611be857fe5b8160050160009054906101000a900460ff166002811115611c0557fe5b148015611c6157508373ffffffffffffffffffffffffffffffffffffffff168160000160009054906101000a900473ffffffffffffffffffffffffffffffffffffffff1673ffffffffffffffffffffffffffffffffffffffff16145b91505092915050565b6000600160008360001916600019168152602001908152602001600020600701549050919050565b6000600160008360001916600019168152602001908152602001600020600601549050919050565b6000809054906101000a900473ffffffffffffffffffffffffffffffffffffffff1673ffffffffffffffffffffffffffffffffffffffff163373ffffffffffffffffffffffffffffffffffffffff16141515611d1557600080fd5b600073ffffffffffffffffffffffffffffffffffffffff168173ffffffffffffffffffffffffffffffffffffffff16141515611d8c57806000806101000a81548173ffffffffffffffffffffffffffffffffffffffff021916908373ffffffffffffffffffffffffffffffffffffffff1602179055505b50565b6000809054906101000a900473ffffffffffffffffffffffffffffffffffffffff1673ffffffffffffffffffffffffffffffffffffffff163373ffffffffffffffffffffffffffffffffffffffff16141515611dea57600080fd5b8073ffffffffffffffffffffffffffffffffffffffff16ff5b6020604051908101604052806000815250905600a165627a7a723058200acab6df57161ae3502ddcd57c04cfb8709beeaab76963d7473907a8f7f2203f0029",
  "source": "pragma solidity ^0.4.11;\n\nimport \"zeppelin-solidity/contracts/lifecycle/Destructible.sol\";\nimport \"zeppelin-solidity/contracts/token/StandardToken.sol\";\n\n\ncontract TokenBroker is Destructible {\n    enum ChannelState { Open, Settling, Settled }\n    struct PaymentChannel {\n        address sender;\n        address receiver;\n        address erc20Contract;\n        uint256 value;\n        uint settlementPeriod;\n        ChannelState state;\n        /* until state is invalid */\n        uint until;\n        uint256 payment;\n    }\n\n    mapping(bytes32 => PaymentChannel) channels;\n    uint32 chainId;\n    uint32 id;\n\n    event DidCreateChannel(bytes32 channelId, address indexed sender, address indexed receiver, uint256 value, uint settlementPeriod, uint until);\n    event DidDeposit(bytes32 indexed channelId, uint256 value);\n    event DidStartSettle(bytes32 indexed channelId, uint256 payment);\n    event DidSettle(bytes32 indexed channelId, uint256 payment, uint256 oddValue);\n\n    function TokenBroker(uint32 _chainId) public {\n        chainId = _chainId;\n        id = 0;\n    }\n\n    /* Create payment channel */\n    function createChannel(address erc20Contract, address receiver, uint duration, uint settlementPeriod, uint256 value) public returns(bytes32) {\n        var channelId = keccak256(now + id++); // solium-disable-line\n        var sender = msg.sender;\n        var c = StandardToken(erc20Contract);\n        require(c.transferFrom(sender, address(this), value));\n\n        channels[channelId] = PaymentChannel(\n            sender,\n            receiver,\n            erc20Contract, \n            value,\n            settlementPeriod,\n            ChannelState.Open,\n            block.timestamp + duration, // solium-disable-line\n            0);\n        DidCreateChannel(channelId, sender, receiver, value, settlementPeriod, block.timestamp + duration); // solium-disable-line\n\n        return channelId;\n    }\n\n    /* Add funds to the channel */\n    // function deposit(bytes32 channelId, uint256 value) public {\n    function deposit(bytes32 channelId, uint value) public {\n        require(canDeposit(msg.sender, channelId));\n\n        var channel = channels[channelId];\n        var c = StandardToken(channel.erc20Contract);\n        require(c.transferFrom(channel.sender, address(this), value));\n\n        channel.value += value;\n\n        DidDeposit(channelId, value);\n    }\n\n    function claim(bytes32 channelId, uint256 payment, uint8 v, bytes32 r, bytes32 s) public {\n        if (!canClaim(channelId, payment, v, r, s)) {\n            return;\n        }\n\n        settle(channelId, payment);\n    }\n\n    /* Sender starts settling */\n    function startSettle(bytes32 channelId, uint256 payment) public {\n        require(canStartSettle(msg.sender, channelId));\n        var channel = channels[channelId];\n        channel.state = ChannelState.Settling;\n        channel.until = now + channel.settlementPeriod; // solium-disable-line\n        channel.payment = payment;\n        DidStartSettle(channelId, payment);\n    }\n\n    /* Sender settles the channel, if receiver have not done that */\n    function finishSettle(bytes32 channelId) public {\n        require(canFinishSettle(msg.sender, channelId));\n        settle(channelId, channels[channelId].payment);\n    }\n\n    function close(bytes32 channelId)  public {\n        var channel = channels[channelId];\n        if (channel.state == ChannelState.Settled && (msg.sender == owner || msg.sender == channel.sender || msg.sender == channel.receiver)) {\n            if (channel.value > 0) {\n                require(channel.sender.send(channel.value));\n            }\n            delete channels[channelId];\n        }\n    }\n\n    /******** BEHIND THE SCENES ********/\n\n    function settle(bytes32 channelId, uint256 payment) public {\n        var channel = channels[channelId];\n        uint256 paid = payment;\n        uint256 oddMoney = 0;\n        var c = StandardToken(channel.erc20Contract);\n\n        if (payment > channel.value) {\n            paid = channel.value;\n            require(c.transfer(channel.receiver, paid));\n        } else {\n            require(c.transfer(channel.receiver, paid));\n            oddMoney = channel.value - paid;\n\n            require(c.transfer(channel.sender, oddMoney));\n            channel.value = 0;\n        }\n\n        channels[channelId].state = ChannelState.Settled;\n        DidSettle(channelId, payment, oddMoney);\n    }\n\n    /******** CAN CHECKS ********/\n\n    function canDeposit(address sender, bytes32 channelId) public constant returns(bool) {\n        var channel = channels[channelId];\n        // DW: Do we really need to check that only the sender is allowed to\n        //     deposit?\n        return channel.state == ChannelState.Open &&\n            channel.sender == sender;\n    }\n\n    function canClaim(bytes32 channelId, uint256 value, uint8 v, bytes32 r, bytes32 s) public constant returns(bool) {\n        var channel = channels[channelId];\n        bytes memory prefix = \"\\x19Ethereum Signed Message:\\n32\";\n        bytes32 hh = keccak256(channelId, value, address(this), chainId);\n        bytes32 prefixedHash = keccak256(prefix, hh);\n        return (channel.state == ChannelState.Open || channel.state == ChannelState.Settling) &&\n        channel.sender == ecrecover(prefixedHash, v, r, s);\n    }\n\n    function isStateUpdateSigValid(\n        address sender,\n        uint32 _chainId, address contractId, bytes32 channelId,\n        uint256 payment,\n        uint8 sigV, bytes32 sigR, bytes32 sigS\n    ) \n    public \n    returns(bool) \n    {\n        var actualHash = sha256(\n            _chainId, contractId, channelId,\n            payment\n        );\n\n        return (sender == ecrecover(actualHash, sigV, sigR, sigS));\n    }\n\n    function canStartSettle(address sender, bytes32 channelId) public constant returns(bool) {\n        var channel = channels[channelId];\n        return channel.state == ChannelState.Open &&\n        channel.sender == sender;\n    }\n\n    function canFinishSettle(address sender, bytes32 channelId) public constant returns(bool) {\n        var channel = channels[channelId];\n        return channel.state == ChannelState.Settling && (sender == channel.sender || sender == owner) && channel.until <= now; // solium-disable-line\n    }\n\n    /******** READERS ********/\n\n    function getState(bytes32 channelId) public constant returns(ChannelState) {\n        return channels[channelId].state;\n    }\n\n    function getUntil(bytes32 channelId) public constant returns(uint) {\n        return channels[channelId].until;\n    }\n\n    function getPayment(bytes32 channelId) public constant returns(uint) {\n        return channels[channelId].payment;\n    }\n\n    function isOpenChannel(bytes32 channelId) public constant returns(bool) {\n        var channel = channels[channelId];\n        return channel.state == ChannelState.Open && channel.until >= now; // solium-disable-line\n    }\n}\n",
  "sourcePath": "/Users/ukstv/Documents/Pro/Machinomy/machinomy-contracts/contracts/TokenBroker.sol",
  "compiler": {
    "name": "solc",
    "version": "0.4.18+commit.9cf6e910.Emscripten.clang"
  },
  "schemaVersion": "1.0.1",
  "updatedAt": "2017-12-18T13:36:04.673Z"
}